S01500004B30325F3132385F436C6F636B322E733139BB
S113000000200020950100006D01000091200000F7
S113001075010000790100007D010000000000006E
S113002000000000000000000000000091740000C7
S11300308501000000000000AD7400008D01000087
S11300401104000019040000210400002904000028
S11300503104000039040000410400004904000098
S11300605104000059040000610400006904000008
S11300707104000079040000810400008904000078
S11300809104000099040000A1040000A9040000E8
S1130090B1040000B9040000C1040000C904000058
S11300A0D1040000D9040000E1040000E9040000C8
S11300B0F1040000F9040000010500000905000036
S11300C01105000039320000190500002105000067
S11300D02905000031050000390500004105000034
S11300E049050000510500008D9E000059050000DF
S11300F06105000069050000710500007905000034
S113010035CE00008105000089050000910500003E
S113011099050000A1050000A9050000B105000033
S1130120B9050000C1050000D9720000C90500002E
S1130130D1050000D9050000E1050000E905000033
S1130140F105000058F6000000000020180000002F
S113015058F6000000E0FF1F000000001800002017
S1130160A40C000000E0FF1F00000000FEE700BF39
S1130170FEE700BFFEE700BFFEE700BFFEE700BFEB
S1130180FEE700BFFEE700BFFEE700BFFEE700BFDB
S1130190FEE700BF2DE9F04172B601F0F7F9364AE7
S11301A0DFF8DCC0624529D2D2E9001594680C322C
S11301B0002CF7D0631E1F2B41D9081D85423ED069
S11301C0261D3CD89B0803F1010E4FEA5E0701EBA4
S11301D0C7080B46681AD3E90076C418C750083319
S11301E043456660F7D11EF0010F2EF00103D9D00C
S11301F051F8231045F823106245D5D31F4EB2425F
S113020019D2013EB61A26F0070602F1100302F1D4
S113021008041E44002154E902024AB1531E3B2B38
S113022001D9151D12D90023C15004339342FBD3C5
S11302300834A642EFD162B60DF02AF9FEE7002396
S1130240C858E85004339C42FAD8ABE79B085A1CC0
S1130250550800EBC5050346C3E900110833AB425A
S1130260FAD122F00103D207E2D50834A64240F8BD
S11302702310D0D1DFE700BF440100006C0100006F
S11302805C010000FFFFFFFFFFFFFFFFFFFFFFFF19
S1130290FFFFFFFFFFFFFFFFFFFFFFFFFFFFFFFF6A
S11302A0FFFFFFFFFFFFFFFFFFFFFFFFFFFFFFFF5A
S11302B0FFFFFFFFFFFFFFFFFFFFFFFFFFFFFFFF4A
S11302C0FFFFFFFFFFFFFFFFFFFFFFFFFFFFFFFF3A
S11302D0FFFFFFFFFFFFFFFFFFFFFFFFFFFFFFFF2A
S11302E0FFFFFFFFFFFFFFFFFFFFFFFFFFFFFFFF1A
S11302F0FFFFFFFFFFFFFFFFFFFFFFFFFFFFFFFF0A
S1130300FFFFFFFFFFFFFFFFFFFFFFFFFFFFFFFFF9
S1130310FFFFFFFFFFFFFFFFFFFFFFFFFFFFFFFFE9
S1130320FFFFFFFFFFFFFFFFFFFFFFFFFFFFFFFFD9
S1130330FFFFFFFFFFFFFFFFFFFFFFFFFFFFFFFFC9
S1130340FFFFFFFFFFFFFFFFFFFFFFFFFFFFFFFFB9
S1130350FFFFFFFFFFFFFFFFFFFFFFFFFFFFFFFFA9
S1130360FFFFFFFFFFFFFFFFFFFFFFFFFFFFFFFF99
S1130370FFFFFFFFFFFFFFFFFFFFFFFFFFFFFFFF89
S1130380FFFFFFFFFFFFFFFFFFFFFFFFFFFFFFFF79
S1130390FFFFFFFFFFFFFFFFFFFFFFFFFFFFFFFF69
S11303A0FFFFFFFFFFFFFFFFFFFFFFFFFFFFFFFF59
S11303B0FFFFFFFFFFFFFFFFFFFFFFFFFFFFFFFF49
S11303C0FFFFFFFFFFFFFFFFFFFFFFFFFFFFFFFF39
S11303D0FFFFFFFFFFFFFFFFFFFFFFFFFFFFFFFF29
S11303E0FFFFFFFFFFFFFFFFFFFFFFFFFFFFFFFF19
S11303F0FFFFFFFFFFFFFFFFFFFFFFFFFFFFFFFF09
S1130400FFFFFFFFFFFFFFFFFFFFFFFFFEFFFFFFF9
S113041008B500F0DFFA08BD08B500F031FB08BDEF
S113042008B500F083FB08BD08B500F0D5FB08BD96
S113043008B5FFF7ADFE08BD08B5FFF7A9FE08BD76
S113044008B5FFF7A5FE08BD08B5FFF7A1FE08BD76
S113045008B5FFF79DFE08BD08B5FFF799FE08BD76
S113046008B5FFF795FE08BD08B5FFF791FE08BD76
S113047008B5FFF78DFE08BD08B5FFF789FE08BD76
S113048008B5FFF785FE08BD08B5FFF781FE08BD76
S113049008B5FFF77DFE08BD08B5FFF779FE08BD76
S11304A008B5FFF775FE08BD08B5FFF771FE08BD76
S11304B008B5FFF76DFE08BD08B5FFF769FE08BD76
S11304C008B5FFF765FE08BD08B5FFF761FE08BD76
S11304D008B5FFF75DFE08BD08B5FFF759FE08BD76
S11304E008B5FFF755FE08BD08B5FFF751FE08BD76
S11304F008B5FFF74DFE08BD08B5FFF749FE08BD76
S113050008B5FFF745FE08BD08B501F02BF808BD96
S113051008B5FFF73DFE08BD08B5FFF739FE08BD75
S113052008B5FFF735FE08BD08B5FFF731FE08BD75
S113053008B5FFF72DFE08BD08B5FFF729FE08BD75
S113054008B5FFF725FE08BD08B5FFF721FE08BD75
S113055008B5FFF71DFE08BD08B5FFF719FE08BD75
S113056008B5FFF715FE08BD08B5FFF711FE08BD75
S113057008B5FFF70DFE08BD08B5FFF709FE08BD75
S113058008B5FFF705FE08BD08B5FFF701FE08BD75
S113059008B5FFF7FDFD08BD08B5FFF7F9FD08BD77
S11305A008B5FFF7F5FD08BD08B5FFF7F1FD08BD77
S11305B008B5FFF7EDFD08BD08B5FFF7E9FD08BD77
S11305C008B5FFF7E5FD08BD08B5FFF7E1FD08BD77
S11305D008B5FFF7DDFD08BD08B5FFF7D9FD08BD77
S11305E008B5FFF7D5FD08BD08B5FFF7D1FD08BD77
S11305F008B5FFF7CDFD08BD08B501F055F900F0C9
S1130600E5FF01F00FF809F073FF002008BD00BFFB
S11306101A4B1B7B03F00303012B20D0022B14D0B5
S1130620DBB9174B1868F0B1144A13785178127B70
S1130630C3F3C20311F0300F20FA03F002F00302F7
S113064000D022B1022A02D070470E48ECE7062BF4
S11306500AD0072B0DD040097047002070470A4B81
S113066018680028E0D17047084BA3FB003000094C
S11306707047074BA3FB0030C0087047004006409A
S11306801C000020006CDC0218000020CDCCCCCC77
S1130690ABAAAAAA084B416803F580525164516879
S11306A090F800C06CF3114151601A68417861F30D
S11306B093421A60704700BF0070044008B5224A94
S11306C09379C3F38103012B10D0022B02D09BB189
S11306D0002008BD137B03F00303012B2BD0022B56
S11306E02CD0002BF4D1194B186808BD9379DB0783
S11306F01AD4174B186808BD53789907E8D493792E
S1130700DA061DD5124B18680028E1D00E4A1149AB
S1130710D378D278C3F341135B0003EBD21331F8DF
S1130720133003FB00F008BD0B49137A0868C3F3C8
S11307304203D84008BD094B186808BD084808BDE5
S1130740FFF766FFE0E700BF004006401C00002002
S11307500400002028D80000000000201800002019
S1130760006CDC0210B513280FD8DFE800F011117B
S11307706A0E740E333E4A0E0A54601A0E0E0E0EA2
S11307803C47494B1B7819066FD40024204610BD02
S1130790FFF794FF454B5B6C1B0F0133B0FBF3F485
S11307A0F4E7434B5A789407EFD49B79D80666D57F
S11307B0404B18680028E8D03D4A3F49D378D278A6
S11307C0C3F341135B0003EBD21331F8134000FB76
S11307D004F4DBE7354B5B6813F4403FC3F3014299
S11307E0DFD0032AD1D1354CD0E7354B1B6813F445
S11307F0402FC3F3814245D0032AC6D14FF47A7403
S1130800C4E7294B1A781206BFD52E4A9B78146880
S11308109B09DC40BAE7264B9B79D80640D5254B8B
S11308201C68FFF74BFFB4EBD00FAFD9ADE7204BFB
S11308301A789107A9D59A79D20719D41D4B1C6847
S1130840A4E7FFF73BFF194B5B6CC3F3036301336E
S1130850B0FBF3F49AE7FFF731FF144B5B6CC3F37F
S113086003430133B0FBF3F490E7164B1C688DE7A8
S1130870154A1B7A1468C3F34203DC4086E7FFF78A
S1130880C7FE97E7084B1B781C067FF57EAF0D4B20
S11308901C68A4F50044B4FA84F46409E40375E71D
S11308A0FFF7B6FE0446BCE7005006400080044053
S11308B0004006400400002028D80000006CDC0240
S11308C0007004401C0000200000002010B5214BE3
S11308D093F806C093F806E05FFA8EF493F808E004
S11308E0CEF3420E9645CCF3810C19D01B789B07AE
S11308F00AD5E4070BD5174C637803F0FE03637045
S1130900A379DB07FCD402E0BCF1010FF1D0114C58
S1130910237A520002F00E0203F0D0031A4322722B
S11309200C4A537801F0010403F0FE03234353708F
S1130930137803F0FC030343BCF1010F137001D0DF
S1130940830705D5034A937903F001038B42FAD157
S1130950002010BD0040064038B5184C94F803C080
S1130960A379DD065FFA8CFC25D4E37883F02003B9
S1130970E3700125114C237803F03B0343F0040397
S11309802370A379DB06FCD50DB184F803C04B01B9
S113099003F0600343EAC0130CF01F0C074943EA59
S11309A00C03DBB2CB708B7913F00C0FFBD102B1CB
S11309B09047002038BD0025DCE700BF004006401A
S11309C0FFF7CABF024AD36B43F00203D3637047F5
S11309D00080044070B5294B1C68227CA16841F258
S11309E01C00CA7701EB4211E3680A5A256802F039
S11309F08006C2F3C012002B2FD041F21800095810
S1130A00C91A4B09F6B1DBB2617C8B424FFA83FC05
S1130A101CD0617C49B25B1A44BF217D43FA81F347
S1130A20D8B284F811C0E17C091A49B2E17415B155
S1130A3061682046A84716B1A368227C1A77BFF3E1
S1130A404F8F70BD1F2910D9013BDCE7E37C217D6A
S1130A5099420FD000200346E3E7002DEFD06168F0
S1130A602046A847BFF34F8F70BD237D013B03F0A1
S1130A70FF03C9E7E07C43B2D3E700BF20000020B6
S1130A8070B5294B5C68227CA16841F21C00CA77CE
S1130A9001EB4211E3680A5A256802F08006C2F3AA
S1130AA0C012002B2FD041F218000958C91A4B0963
S1130AB0F6B1DBB2617C8B424FFA83FC1CD0617CC3
S1130AC049B25B1A44BF217D43FA81F3D8B284F85A
S1130AD011C0E17C091A49B2E17415B1616820467C
S1130AE0A84716B1A368227C1A77BFF34F8F70BD55
S1130AF01F2910D9013BDCE7E37C217D99420FD00B
S1130B0000200346E3E7002DEFD061682046A847A4
S1130B10BFF34F8F70BD237D013B03F0FF03C9E793
S1130B20E07C43B2D3E700BF2000002070B5294B1E
S1130B309C68227CA16841F21C00CA7701EB421137
S1130B40E3680A5A256802F08006C2F3C012002B3B
S1130B502FD041F218000958C91A4B09F6B1DBB27B
S1130B60617C8B424FFA83FC1CD0617C49B25B1AD6
S1130B7044BF217D43FA81F3D8B284F811C0E17CEB
S1130B80091A49B2E17415B161682046A84716B143
S1130B90A368227C1A77BFF34F8F70BD1F2910D929
S1130BA0013BDCE7E37C217D99420FD00020034622
S1130BB0E3E7002DEFD061682046A847BFF34F8FCD
S1130BC070BD237D013B03F0FF03C9E7E07C43B222
S1130BD0D3E700BF2000002070B5294BDC68227CDD
S1130BE0A16841F21C00CA7701EB4211E3680A5A7A
S1130BF0256802F08006C2F3C012002B2FD041F208
S1130C0018000958C91A4B09F6B1DBB2617C8B4252
S1130C104FFA83FC1CD0617C49B25B1A44BF217D2E
S1130C2043FA81F3D8B284F811C0E17C091A49B2BD
S1130C30E17415B161682046A84716B1A368227C07
S1130C401A77BFF34F8F70BD1F2910D9013BDCE722
S1130C50E37C217D99420FD000200346E3E7002D79
S1130C60EFD061682046A847BFF34F8F70BD237D46
S1130C70013B03F0FF03C9E7E07C43B2D3E700BFC5
S1130C8020000020C8B138B5044600250C480D49A1
S1130C90A064C4E90F550C220CF0F6FB0A4A94F840
S1130CA04C300A492166C4E9142523F0030343F0B8
S1130CB0030384F84C30284638BD0420704700BF35
S1130CC03000002038D80000000800011000130094
S1130CD02DE9F843044690F834000138C0B241EAE3
S1130CE00205284245D1A06881423AD3E5681144FF
S1130CF02844814235D822498B423CD1D4F83080F3
S1130D002669551E4544B5FBF6F306FB135212B192
S1130D1003FB06635D1EA8452FD8DFF868904FF0EB
S1130D20700706E0D106B04421D4D3071CD4A845EB
S1130D3023D828F07F4343F01063C9F8043089F8BE
S1130D400070A36C0F480133A3649847A36C013B64
S1130D50A36499F800309806DAB2E3D56720BDE8B9
S1130D60F8836620BDE8F8836920BDE8F88368202D
S1130D70F5E76520F3E76B20F1E70020EFE700BF1C
S1130D806B66656B000002402DE9F843044690F859
S1130D903900002A4DD01E46431E1546DBB241EAF7
S1130DA00602134238D1A36899423DD3E268314424
S1130DB01344994238D8D4F83090002E3BD00428FC
S1130DC03BD0082832D1314F4FF0700808E012F0C0
S1130DD0100F09F1080925D1D00720D4083E2AD0E4
S1130DE02B68BB6029F07F426B68FB6042F0E062D5
S1130DF07A6087F80080A36C24480133A364984781
S1130E00A36C013BA3643B78DAB29B0605F10805A9
S1130E10DDD56720BDE8F8836520BDE8F883692047
S1130E20BDE8F8836820F5E76620F3E7174B2A68E6
S1130E309A600420EEE70020ECE7DFF850804FF0E2
S1130E40700708E012F0100F09F10409EAD1D30782
S1130E50E5D4043EEFD029F07F4355F8042BC8F8BD
S1130E60082043F0C063C8F8043088F80070A36C0D
S1130E7006480133A3649847A36C013BA36498F824
S1130E8000309906DAB2DDD5C3E700BF00000240A6
S1130E902DE9F04F90F83590164609F1FF321F46C0
S1130EA0D2B241EA0603134283B05CD1836899420B
S1130EB005464ED3C06831440344994249D8D5F815
S1130EC030806B69B0FBF3F208F1FF3313445142F5
S1130ED003EA010AD04508BF1346019208BF08EB94
S1130EE0030A002E41D0DFF888B03F0209E0019BDD
S1130EF010F0100FA0449A4433D1C3072DD4361BED
S1130F0033D0AAEB0804B44228BF344628F07F400B
S1130F10B4FBF9F147EA014140F0807041F0FF0170
S1130F204FF07003CBF80400CBF808108BF80030B6
S1130F30A96C0F480131A9648847A96C0139A964D7
S1130F409BF800108A06C8B2D1D5672003B0BDE86B
S1130F50F08F662003B0BDE8F08F692003B0BDE8D0
S1130F60F08F6820F2E76520F0E70020EEE700BF8D
S1130F700000024000284CD010B40379264923F025
S1130F803F03002243F03F030280037191F828409D
S1130F9091F82B3082605FFA84FC01244461D9B259
S1130FA04FF400641D4B0461DB6CC3F303630F2B2C
S1130FB01DD001622021C1621949826131F81330C8
S1130FC042629B024FF4807202FA0CF2B3F5004FB6
S1130FD0C360C2611BD84FF48063124941634FF46C
S1130FE0806202875DF8044B8362FFF74BBE4FF4C7
S1130FF00033C3604FF4807303FA0CF32024C0E978
S11310000623C0E90812C4624FF48053E5E75B0984
S1131010E3E70420704700BF000002400080044062
S113102044D800000808040478B3F0B58468A142E9
S1131030054606D3E86801EB020C04EB000EF44508
S113104001D96620F0BD6C784FF0640C0CFB045C95
S113105004EB84009CF8016000EB800005EB800049
S11310604EB90E464FF0640C0CFB04542663BDE8E5
S1131070F040FFF72DBE9CF80460F607F1D5DCF8CC
S1131080087001F50006F61BECE70420704700BF6A
S113109078B3F0B58468A142054606D3E86801EB4D
S11310A0030C04EB000EF44501D96620F0BD6C7806
S11310B04FF0640C0CFB045C04EB84009CF80160AE
S11310C000EB800005EB80004EB90E464FF0640C37
S11310D00CFB04542663BDE8F040FFF755BE9CF8B2
S11310E00460F607F1D5DCF8087001F50006F61B7C
S11310F0ECE70420704700BF78B3F0B58468A142E0
S1131100054606D3E86801EB020C04EB000EF44537
S113111001D96620F0BD6C784FF0640C0CFB045CC4
S113112004EB84009CF8016000EB800005EB800078
S11311304EB90E464FF0640C0CFB04542663BDE814
S1131140F040FFF7A5BE9CF80460F607F1D5DCF883
S1131150087001F50006F61BECE70420704700BF99
S1131160B8B1B2B1212912D8DFE801F0191C1F254A
S1131170282B3033111111111111111111111111E9
S113118011111111111111111111111136156A20BA
S1131190704704207047036C136000207047036994
S11311A01360FAE7C3681360F7E7C3684169B3FBE8
S11311B0F1F31360F1E743691360EEE783681360AA
S11311C0EBE70379C3F300131360E6E7C369136025
S11311D0E3E7036A1360E0E7C36B1360DDE700BF76
S11311E010B41478012303FA01F134B943695DF8AA
S11311F0044B23EA010343617047537833B14160E0
S113120043695DF8044B0B43436170478160F7E722
S1131210144A00B5936B91F803E043F00103936320
S11312200B7891F802C04A785B004FEACC0C03F0CB
S113123002030CF0080C43EA0C03120102F0300222
S113124043EA8E03134303604B798A79097903F0E7
S11312500303D20043EA810302F07802134343609C
S11312605DF804FB0080044010B507220446002109
S11312700CF00CF9002301224FF480712380A37039
S1131280A4F80520A4F8031010BD00BF154AD36BC1
S113129043F40003D36303680A7823F00203036072
S11312A0D0F8083123F00103C0F80831D0F8183120
S11312B023F00103C0F81831D0F8283123F00103DA
S11312C0C0F82831D0F8383123F00103C0F83831A0
S11312D003681AB123F001030360704743F001036C
S11312E00360704700800440044B5A6D02609A6D9D
S11312F04260DA6D82601B6EC360704700800440F8
S1131300034600205A7802F09F025A70704700BFCB
S113131002460020537803F09F0343F060035370A8
S1131320704700BF0B68B2EB031F10B575D34FEACB
S1131330031CB2FBFCFC4FEA4C1E5200B2FBF3F45C
S1131340B2FBF4F2A4EB0E0E3A4C934234BFD21A21
S11313509A1AA4FB03435B0903EB4303934261D34F
S1131360354B984261D003F58053344A984218BFF4
S11313700124A3F5103304BF4FF4006413461A6824
S113138022431A60C37803F0F303C370037803F0B5
S1131390E00343EA1C23DBB25FFA8CFC037080F8A1
S11313A001C0837A0EF01F0E03F0E00343EA0E033C
S11313B083724A7A83780C79920003F0E80302F08E
S11313C00402134314B1234343F0100383704B7995
S11313D0C3748B794375037C43F088030374437CA3
S11313E043F0C0034374CB791BB1437B43F0080340
S11313F043730B7A1BB1437B43F001034373CB7AF2
S11314008A7AC1785B42524202F0080203F0040374
S113141013430B43C370002010BD4FF0200E4FF058
S1131420010C8AE740F2F53010BD044B4FF48064A0
S1131430A5E700BF1F85EB5100A00640348004409F
S113144010B50C22002104460CF020F84FF4E131D1
S11314504FF48032002384E80E0010BD0A4A03785A
S113146011400B43DBB20370C37843EA1123DBB2B0
S1131470C370837943EA1143DBB28371437C43EA4B
S113148011634374704700BFC0F00F0702794179BC
S1131490037B807C1B0443EA0123134343EA00607B
S11314A0704700BF00B5437903F03F0343EA1123BB
S11314B0DBB20A0E437111F0170F82741CBF03795B
S11314C0C3790B0705D50379C379437C43F0400303
S11314D0437490F804C090F805E0037B827C1B04FD
S11314E043EA0E2343EA0C0343EA02630B4240F24D
S11314F0EE3008BF00205DF804FB00BF42B10A448F
S113150003791B06FCD511F8013BC3718A42F7D15C
S113151003795B06FCD570470346807CDA78400685
S1131520D2B217D5D87800F0F300D870587C40F0C8
S1131530C000587481B9197C01F0F7011974597C01
S113154041F0C0015974D97802F00C020A4300201A
S1131550DA70704701207047197C41F00801197452
S1131560EDE700BF08B5054A054B11681B6805483F
S11315709847BFF34F8FBFF34F8F08BD740000200F
S11315807000002000A00640704700BF0A4908B55B
S1131590D1F88820094B42F47002C1F888204CF23B
S11315A0205C4DF628104FF4E972A3F80EC0D881E0
S11315B01A80FFF7E9FF08BD00ED00E000200540B8
S11315C047F2305300BF013BFCD1704710B50E4CBD
S11315D0AA2323702046FFF79BFEE378802BFCD1DF
S11315E00A4B0B4959640B4A03210120FFF7E8F920
S11315F0002201210220FFF769F90748FFF74AF8A2
S1131600064B074A1A6010BD00E007400080044002
S113161000000711C115000064D800000800002074
S11316200080B805704700BFF0B5964C964FA36B89
S113163043F40073A363A36B43F48063A363A36BBA
S113164043F40063A363A36B43F48053A363A36BCA
S113165091B043F400530026A3636A46384601213F
S1131660ADF80060FFF7BCFD01AA38460221ADF8D1
S11316700460FFF7B5FD854B02AA1B88ADF808305E
S1131680384612210125FFF7ABFD03AA3846132182
S11316904037ADF80C50FFF7A3FD04AA3146384695
S11316A0ADF81050FFF79CFD05AA3846294640378F
S11316B0ADF81450FFF794FD06AA38460521ADF89D
S11316C01850FFF78DFD07AA384606214037ADF8BC
S11316D01C50FFF785FD08AA38460421ADF82050B8
S11316E0FFF77EFD09AA38460521ADF82450FFF71F
S11316F077FD0AAA38460621ADF82860FFF770FD89
S1131700ADF82C60624E0BAA38460721FFF768FD3E
S11317100CAA30461021ADF83050FFF761FD0DAA38
S113172030461121ADF83450FFF75AFD0EAA304669
S11317301221ADF83850FFF753FD0FAA304613219C
S1131740ADF83C50FFF74CFD524A534D5168534B92
S1131750534821F4E06141F480715160916C21F4AB
S1131760E06141F480719164D16C21F4E06141F451
S11317708071D164916821F4E06141F480719160D9
S11317802A6822F4E06242F480722A606A6822F4D1
S1131790E06242F480726A605968424A21F4E0616E
S11317A041F4407159605968014041F003015960A6
S11317B0996821F4E06141F480719960D96821F459
S11317C0E06141F44071D960D968014041F00301FE
S11317D0D960196921F4E06141F440711961196912
S11317E0014041F003011961596921F4E06141F4B8
S11317F080715961996921F4E06141F480719961C2
S1131800116921F4E06141F480711161516921F49D
S1131810E06141F480715161916921F4E06141F426
S1131820807191619169014041F003019161D16935
S113183021F4E06141F48071D161D169014003F583
S1131840005341F00301D1611A6C22F4E06242F4C6
S113185080721A645A6C22F4E06242F480725A6410
S11318609A6C22F4E06242F480729A64DA6C22F494
S1131870E06242F48072DA64236923F03003236166
S113188011B0F0BD0080044000F00F406CD800009F
S113189000F10F400090044000A0044000B0044058
S11318A0FCFFFFFE00C00440FFF7BEBE2DE9F0417F
S11318B00E469AB04449054614460BF0F7FD20B194
S11318C0424928460BF0F2FDA0B901236268404961
S11318D04048337001F0B6FA3F494048626801F06D
S11318E0B1FA3F493F48626801F0ACFA00201AB0EF
S11318F0BDE8F0813C4928460BF0D8FD002850D1C2
S113190001236268394933703248DFF81481384F53
S113191001F0C0FA05A8FFF7E7FC069B0293DDE996
S11319200713059A0192CDE90313324A532105A8FE
S113193002F082F80DF103050DF11306424653211E
S113194005A802F08BF815F8012F532105A802F021
S113195095FCAE424FF053013A4605A802D002F07E
S11319607DF8EBE7244A02F079F86268234805A978
S113197001F090FA6168224800F088FF214B224967
S11319805B6A62682148C3F3011351F8231001F024
S113199081FA1B48616800F079FF00201AB0BDE8A5
S11319A0F0811B4928460BF081FD0028A8D0194975
S11319B028460BF07BFD002898D1174B174A0121CC
S11319C03170DA60FEE700BF0CDC000000D90000D3
S11319D07CD800009CD80000A8D80000CCD8000017
S11319E0DCD80000F8D8000088DC000014D900001E
S11319F078D8000070D8000074D800003CD90000EA
S1131A003CE9000000800440F4F2000044D90000E6
S1131A1028D9000050D9000000ED00E00400FA05C8
S1131A2034E50000704700BF08B510461A460BF0B5
S1131A302BFD002008BD00BF014BC3E90001704726
S1131A40E00000200120704708B503460846194607
S1131A500BF01AFD002008BD70B582B0002301937D
S1131A600C46F1B101F1FF3C0546431E844401E0FC
S1131A70634519D013F8012FFF2AF9D01C48FFF74A
S1131A803FFC064660B9012003F004FB194801AA93
S1131A903146FFF765FB18B9019BB3F5006F07D01A
S1131AA01B24204602B070BD0024204602B070BD45
S1131AB0EFF3108672B6104B0E4822462946FFF704
S1131AC0B3FA40B186F310881B240948FFF720FCC1
S1131AD00028E6D0E4E786F310880648224601236E
S1131AE02946FFF709FB04460028EDD1EDE700BFC6
S1131AF000E007407C0000206B66656B2DE9F04137
S1131B000F46114615460646FFF7A6FFC8B9044618
S1131B100E48FFF7F5FBA0B9012003F0BBFAEFF381
S1131B20108872B60A482B463A463146FFF7B0FA97
S1131B30002818BF1B2488F310880448FFF7E8FB2B
S1131B4000B11B242046BDE8F08100BF00E007403F
S1131B507C00002070B50E4692B0624905461446DA
S1131B600BF0A4FC20B1604928460BF09FFCC0B9DF
S1131B7062685E495E4801F065F95E495E486268E4
S1131B8001F060F95D495E48626801F05BF95D4906
S1131B905D48626801F056F901233370002012B0E9
S1131BA070BD5A4928460BF081FC28B15849284693
S1131BB00BF07CFC00283BD101236268554933704B
S1131BC04B48554D01F066F906A8544A302101F0FE
S1131BD033FF06A84FF40062302102F089FB06A807
S1131BE04F4A302101F03AFF62684E4806A901F0DD
S1131BF051F906A84C4A302101F01EFF2A6806A8B4
S1131C00302102F033FC06A8484A302101F026FFB7
S1131C106A6806A8302102F029FC06A8404A30214F
S1131C2001F01CFF4248626806A901F033F9B5E7E8
S1131C3040490E2228460BF0A4FCF0B901230E35CE
S1131C40337005A904A8049502F038FE002834D1A5
S1131C5006A904A802F032FE002834D1069B002B0A
S1131C6031DD059902944A1E334C019410251A441F
S1131C700095042301F010F990E730490F2228461B
S1131C800BF07FFC002889D101230F35337005A99F
S1131C9004A8049502F012FE00287FF47FAF059B90
S1131CA0C3F30A03CBB906A904A802F007FE78B966
S1131CB0DDE90501FFF7D0FE71E7A168204800F0D7
S1131CC0E5FD1B206BE7A1681E4800F0DFFDF8E787
S1131CD0A1681D4800F0DAFDF3E7A1681B4800F095
S1131CE0D5FDEEE70CDC000070DA0000E4D900005A
S1131CF004DA0000A8D80000CCD8000010DA0000F4
S1131D0024DA00003CDA000058DA000088DC000025
S1131D10C8DA000080DA0000E000002094DA000055
S1131D203CE900009CDA0000A4DA0000ACDA000010
S1131D30B8DA0000D8DA0000291A00001CDB000021
S1131D4000DB0000E8DA000058DB00002CDB0000B8
S1131D5008B50548642200210BF098FB0248FFF700
S1131D6009F900B908BDFEE77C00002001491422EE
S1131D700BF08ABB14F3000010B5044682B00222B3
S1131D80002101A80BF082FB0023E1686068ADF834
S1131D90043001AAFFF724FA0123237002B010BD16
S1131DA030B5044683B00D460222002101A80BF091
S1131DB06DFB0123E16860688DF8043001AA8DF899
S1131DC00550FFF70DFA0023237003B030BD00BFA8
S1131DD0F0B5054683B0142005F0B4F8044660B1AC
S1131DE0142200210BF052FB2946204611F8043B33
S1131DF000F8043B10220BF047FB2E786F78022288
S1131E00002101A80BF042FB86F001064FF000030D
S1131E1066F3070367F30F23E1686068ADF80430E5
S1131E2001AAFFF7DDF92B7C2374B3B9D4E90221AD
S1131E3052F8213023F0807323F0030342F8213059
S1131E40D5E9022152F8213023F4E063204643F41B
S1131E50807342F8213003B0F0BD012B0ED0022B69
S1131E60EED1D4E9022152F8213023F0807323F01B
S1131E70030343F0020342F82130E1E7D4E90221ED
S1131E8052F8213023F0807323F0030343F003035B
S1131E9042F82130D4E700BFC168426801238B4077
S1131EA093607047C168426801238B405360704758
S1131EB0C168426801238B40D360704710B4C46882
S1131EC042680123A34019B15DF8044B5360704785
S1131ED05DF8044B936070474268C3681069D8404A
S1131EE000F0010080F00100704700BF002370B5CE
S1131EF00B7003780C4606461546002B40D12E4A3B
S1131F002946204601F0AAFD7368F2681B69D34094
S1131F10DB074CBF294A2A4A2946204601F09EFD88
S1131F20284A2946204601F099FD72682946204630
S1131F3002F09CFA244A2946204601F08FFDB2683B
S1131F402946204602F092FA204A2946204601F00A
S1131F5085FDF2682946204602F030FB1C4A2946DA
S1131F60204601F07BFD337C012B16D0022B0DD0D3
S1131F70D3B929462046174ABDE8704001F06EBD2A
S1131F80154A2946204601F069FDBDE72946204649
S1131F90124ABDE8704001F061BD29462046104A4E
S1131FA0BDE8704001F05ABD294620460D4ABDE8FF
S1131FB0704001F053BD00BF74DB000098E50000E1
S1131FC084DB000088DB000094DB0000A0DB000061
S1131FD0A8DB0000B0DB00007CDB0000B8DB000005
S1131FE0B4DB0000BCDB0000704700BF30B41A4C07
S1131FF005681A4B25601A4944681C608568194AAB
S1132000194C0D60194BC16805691160256044695C
S11320101C60D0E90640164A164914604FF0E023CC
S11320200860154AD3F8281D1160144AD3F82C1DF2
S11320301160134AD3F8301D1160124AD3F83C1DC5
S11320401160114AD3F8341D1160104AD3F8383D99
S1132050136000BE30BC70471C0100201801002032
S113206014010020100100200C01002008010020B0
S11320700401002000010020FC000020F8000020E2
S1132080F4000020F0000020EC000020E800002014
S113209004207146084202D0EFF3098001E0EFF317
S11320A0088081690A884BF6AB639A4201D0FFF736
S11320B09DBF0231816120210160704701491422D2
S11320C00BF0E2B928F3000070B586B0044601A80D
S11320D0FFF74CFE00231022211D02A88DF80430C6
S11320E00BF0D2F92378BBB1637883F0010301A824
S11320F08DF80530FFF76CFE0646082004F022FF39
S1132100054630B1082200210BF0C0F923782B7169
S11321102E60284606B070BD6378E8E70068FFF7D4
S1132120C7BE00BF704700BF704700BF2DE9F04F26
S11321300E46B3B03949054614460BF0B7F920B141
S1132140374928460BF0B2F9A0B901236268354932
S11321503548337000F076FE34493548626800F043
S113216071FE34493448626800F06CFE002033B0DC
S1132170BDE8F08F314928460BF098F928B1304971
S113218028460BF093F9002870D1012562682D4987
S11321902548357000F07EFE62682B492B4800F01C
S11321A079FE61682A4800F071FB626829492A486F
S11321B000F070FE4FF47A7222A8102101F08AFC1C
S11321C0616822A800F062FB6168244800F05EFBAD
S11321D02A4622A8102101F07DFC616822A800F0A3
S11321E055FB61681E4800F051FB626819491D489F
S11321F000F050FE04F098FF1021024622A802F0DD
S1132200BDFA616822A800F041FB1748616800F03C
S11322103DFB002033B0BDE8F08F00BF0CDC0000B4
S113222004DC0000C0DB0000DCDB0000A8D80000F8
S1132230CCD80000E4DB0000F8DB000088DC000000
S113224080DC000014DC000034DC00003CDC000016
S11322503CE90000B0DF000048DC000058DC00006E
S113226060DC000068DC000074DC000028469A4949
S11322700BF01CF9054600287FF478AF0123616850
S11322809648337000F002FB202304221946009282
S11322900FA8934A8DF83C5002F070FC61680FA8B7
S11322A000F0F4FA20230722194600920FA88D4A61
S11322B08DF83C5002F062FC61680FA800F0E6FA69
S11322C00B2720231946884A00970FA88DF83C5005
S11322D002F054FC61680FA800F0D8FA05230093BB
S11322E020231946814A8DF83C500FA802F046FC81
S11322F061680FA800F0CAFA092300932023194645
S11323007B4A8DF83C500FA802F038FC61680FA896
S113231000F0BCFA082620231946764A00960FA836
S11323208DF83C5002F02AFC61680FA800F0AEFA68
S113233020231946704A00970FA88DF83C5002F0EC
S11323401DFC61680FA800F0A1FA202319466B4A0E
S113235000970FA88DF83C5002F010FC61680FA89C
S113236000F094FA20231946654A00960FA88DF8C8
S11323703C5002F003FC61680FA800F087FA1523B3
S11323800093202319465F4A8DF83C500FA802F0B1
S1132390F5FB61680FA800F079FA202319465A4A20
S11323A000960FA88DF83C5002F0E8FB61680FA876
S11323B000F06CFA5548616800F068FA06F076F8A7
S11323C0102800F2C381102122A806F0B5FD83462F
S11323D000283FF4CBAEDFF83C8122AE002756F84C
S11323E0040B002800F07E810523012217A906F0C2
S11323F023FC0DF10F03009356F8040C06AB05AA59
S113240004A906F051FE0025199A8DF81C502021CC
S113241007A802F0D3F8042300932023194607AA3F
S11324200FA88DF83C5002F0A9FB61680FA800F0DA
S11324302DFA9DF80F308DF81C50002B40F075815B
S1132440334A202107A801F0F7FA07230093202339
S11324501946002507AA0FA88DF83C5002F08EFB00
S113246061680FA800F012FA4246202107A801F083
S1132470E3FA56F8042C202107A801F0F7FF0B23F8
S113248000932023194607AA0FA88DF83C5002F0A8
S113249075FB61680FA800F0F9F956F8040C8DF883
S11324A03C5006F009F80523009320231946024600
S11324B00FA802F063FB61680FA800F0E7F99DF82C
S11324C06830052B00F24C81DFE813F023011D0175
S11324D0170111012901260090DC0000A4DC000092
S11324E0ECDC0000F0DC0000F8DC000000DD0000A3
S11324F008DD000010DD000018DD000024DD000010
S113250030DD000038DD000044DD00003CE900005F
S113251088DD000034E50000944A202107A801F07A
S11325208BFA0923009320230025194607AA0FA834
S11325308DF83C5002F022FB61680FA800F0A6F968
S11325402822202107A88DF81C5001F0ADFA1C9A0E
S1132550202107A802F032F82C22202107A801F03C
S1132560A3FA1B9A202107A802F028F82922202187
S113257007A801F099FA4FF008092023194607AA81
S11325800FA8CDF800908DF83C5002F0F7FA61687E
S11325900FA800F07BF94246202107A801F04CFA6D
S11325A0049A202107A801F061FF4FF00B0A2023B1
S11325B0194607AACDF800A00FA88DF83C5002F0E8
S11325C0DDFA61680FA800F061F94246202107A8EE
S11325D001F032FA059A202107A801F047FF2023D1
S11325E0194607AACDF800A00FA88DF83C5002F0B8
S11325F0C5FA61680FA800F049F9DDE90423D21A8D
S11326004FF0050A20234A44194692B207A8CDF890
S113261000A08DF81C5001F0B7FB554A202107A8F3
S113262001F01CFA2023194607AA0FA8CDF8009040
S11326308DF83C5002F0A2FA61680FA800F026F968
S11326404246202107A801F0F7F9069A202107A89D
S113265001F00CFF474A202107A801F0FFF9069B6F
S1132660049ACDF800A0D21A04322023194692B25B
S113267007A801F089FB404A202107A801F0EEF9E0
S1132680152300932023194607AA0FA88DF83C5060
S113269002F074FA61680FA800F0F8F8BDF884201D
S11326A0CDF800A020239200194692B207A88DF815
S11326B01C5001F069FB2E4A202107A801F0CEF935
S11326C02023194607AA0FA8CDF800908DF83C5096
S11326D002F054FA61680FA800F0D8F8274861683E
S11326E000F0D4F80137BB457FF479AE3EE5244AC7
S11326F0202107A801F0A0F913E7224A202107A806
S113270001F09AF90DE7204A202107A801F094F975
S113271007E71E4A202107A801F08EF901E71C4AA9
S1132720202107A801F088F9FBE607A8194A20210F
S113273001F082F99DF80F2007A8202101F03AFA50
S1132740154A202107A801F089F97EE60FA8134A4B
S1132750202101F071F9A1680FA800F097F832E682
S11327600F4A202107A801F067F9DAE6C8DD000066
S1132770DCDD0000E0DD0000E4DD00003CE90000F9
S1132780ACDD0000B8DD0000A4DD00009CDD00002D
S1132790C0DD000090DD000098DD00004CDD00008D
S11327A0D0DD000072B6034A936B43F001039363D8
S11327B004F04EBD0080044008B504F01BFB003853
S11327C018BF012008BD00BF10B5044604F096FAF6
S11327D0431C08BF0020207010BD00BF30B583B07B
S11327E0144D8DF80700032401220DF10701002088
S11327F004F080F901282B7813D00133DBB2632B6A
S11328002B7013D806F08CFA02284FF0050005D07F
S113281002F040FC013CE7D103B030BD06F00AF8F9
S1132820F8E7002BF8D0013B2B70F5E764232B70FD
S1132830F2E700BFB40C002004F012BBF8B50F4659
S1132840154608B3064600780D2408B908E06CB1B3
S1132850A84716F8010F013CE4B20028F7D12CB1C7
S11328602020013CA84714F0FF04F9D13A20A847DE
S11328702020A8473FB135B1387820B1A84717F8D0
S1132880010F0028FAD1F8BD0D24E9E751B138B59C
S1132890044600780D4620B1A84714F8010F00281B
S11328A0FAD138BD704700BF30B585B00D46024639
S11328B00B2101A801F062FF45B19DF8040028B185
S11328C001ACA84714F8010F0028FAD105B030BDB7
S11328D070B5054642682449244888B0FFF7AEFF26
S11328E0234924486A68FFF7A9FF6B689BB120203D
S11328F098476E687EB1204C3120B04714F8010F20
S11329000028FAD16E6836B11C4C0D20B04714F87B
S1132910010F0028FAD100246846232220218DF8D3
S1132920004001F0C1F86846144A202101F096F8ED
S11329306A6813486946FFF781FF6A6811491248BB
S1132940FFF77CFF6846C822202101F017FF684684
S11329500E4A202101F082F80D486A686946FFF7A3
S11329606DFF204608B070BDFCDD000018DE0000DD
S113297024DE000030DE0000F0DD00003CE9000051
S113298038DE000044DE00004CDE000058DE0000AB
S113299070DE00002DE9F0410E4659490446174601
S11329A00AF084FD002840F090807D68002D00F03E
S11329B0A580544C0D20A84714F8010F0028FAD123
S11329C07D68002D00F09A804F4C2D20A84714F804
S11329D0010F0028FAD17D68002D00F08F80494C4A
S11329E00D20A84714F8010F0028FAD17D68002DA6
S11329F000F08480454C4B20A84714F8010F0028B0
S1132A00FAD17D68002D79D03E4C0D20A84714F8EA
S1132A10010F0028FAD17D68002D6FD03A4C2D208B
S1132A20A84714F8010F0028FAD17D68002D65D05D
S1132A30344C0D20A84714F8010F0028FAD17D6802
S1132A40DFF8E4801A244D2000E06CB1A84718F8A0
S1132A50010F013CE4B20028F7D12CB12020013C45
S1132A60A84714F0FF04F9D13B20A8472020A84729
S1132A7035B1274C4720A84714F8010F0028FAD194
S1132A807D68244F1A24202000E06CB1A84717F871
S1132A90010F013CE4B20028F7D12CB12020013C05
S1132AA0A84714F0FF04F9D13B20A8472020A847E9
S1132AB035B1194C5020A84714F8010F0028FAD159
S1132AC0012333700020BDE8F081144920460AF048
S1132AD0EDFC00283FF469AF114920460AF0E6FCFA
S1132AE028B1104920460AF0E1FC0028EAD101236C
S1132AF033703846BDE8F041FFF7EABE00259FE792
S1132B000CDC00003CE9000078DE0000B8DE0000C8
S1132B10C8DE0000CCD80000A8D80000E8DE000021
S1132B2088DC0000F8DE000018DE0000F8B58F68CD
S1132B30002F36D01B4E04460D462A20B84716F8FF
S1132B40010F0028FAD1AE68002E2AD0207830B1C7
S1132B50B04714F8010F0028FAD1AE680EB3124C36
S1132B600D20B04714F8010F0028FAD1AE68C6B1A1
S1132B700E4C2A20B04714F8010F0028FAD1AE6891
S1132B807EB10B4C6820B04714F8010F0028FAD12D
S1132B90AD6835B1074C2020A84714F8010F002870
S1132BA0FAD1F8BD08DF00003CE9000028DF00008E
S1132BB00CDC000034DF00002DE9F04782B000296E
S1132BC04CD090F800900746B9F1000F24D0B9F129
S1132BD0230F4FF0000615469A46884608BF013772
S1132BE08DF80760E2B11468D4B142460DF10701D3
S1132BF03846A04755F8044F002818BF1B26002C60
S1132C00F3D19DF807305BB156B9B9F1230F02D067
S1132C10BAF1000F0AD0B146484602B0BDE8F087C9
S1132C2041463846FFF782FF1B26EEE7D8F80450EA
S1132C30002DF0D00C4C0D20A84714F8010F0028EB
S1132C40FAD1D8F80450002DE5D0084C4320A84709
S1132C5014F8010F0028FAD1B146DDE74FF01B0943
S1132C60484602B0BDE8F0873CE90000E8DD00001A
S1132C70014B186000207047E8010020014B1868E0
S1132C80704700BFE80100202DE9F04F85B09DF8A2
S1132C9038B00193002A50D01646804689460AF07F
S1132CA049FCF36805469847D8B308EB050A0027A2
S1132CB0A9EB050532688DF80F700DF10F009047F0
S1132CC09DF80F406CB1082C2FD07F2C2DD00D2CEB
S1132CD00AF8014B05F1FF3503D00A2C01D0012D70
S1132CE0E8D800228AF8002040460AF023FC20B3EA
S1132CF0012809F1FF3924D081452BD9013818F86E
S1132D0000300A2B01D00D2B0BD1002408F8004011
S1132D10019A5B4631464046FFF74EFF88F8004073
S1132D2000E0002005B0BDE8F08FD045C2D20AF81B
S1132D30017C01350AF1FF3ABCE71B2005B0BDE870
S1132D40F08F98F800300A2B0FD00D2B0DD0B9F16D
S1132D50010FE6D85B46019A31464046FFF72CFF47
S1132D600023042088F80030DCE7002388F80030D2
S1132D70EDE700BF002A57D02DE9F04383B0904619
S1132D8006460F460AF0D6FBD8F80C30044698479E
S1132D9080B335194FF000093C1BD8F800308DF88A
S1132DA007900DF1070098479DF807306BB1082B89
S1132DB024D07F2B22D00D2B05F8013B04F1FF34E6
S1132DC003D00A2B01D0012CE7D800232B70304606
S1132DD00AF0B0FBC8B1012807F1FF3719D08742C8
S1132DE01ED9431EF25C0A2A01D00D2A02D100200A
S1132DF0F05400E0082003B0BDE8F083AE42CCD22A
S1132E0005F8019C0134013DC7E71B2003B0BDE870
S1132E10F08333780A2B09D00D2B07D0012FE9D882
S1132E20002333700420E6E71B207047002333702F
S1132E30F4E700BF10B582B000240094FFF724FF2C
S1132E4002B010BDF8B50F46154608B30646007823
S1132E501A2408B908E06CB1A84716F8010F013C20
S1132E60E4B20028F7D12CB12020013CA84714F08B
S1132E70FF04F9D13B20A8472020A8473FB135B132
S1132E80387820B1A84717F8010F0028FAD1F8BD07
S1132E901A24E9E7FFF7D2BC2DE9F04FA9B08A4222
S1132EA09DF8C860DDF8D0800393C0F0CB808B46DA
S1132EB0511A0131CDE901106A4F04925FFA81F988
S1132EC0019B0298339DB34234BF4B46334606AA56
S1132ED0594634BF4C463446A8470590002840F074
S1132EE0A280614A65210EA800F0A6FD039B5A4604
S1132EF065210EA801F0A4FE3A2265210EA800F077
S1132F00D3FDD8F804A0BAF1000F08D09DF838001A
S1132F1028B10EADD04715F8010F0028FAD10023CF
S1132F208DF83830A4B106AD9A462B4655469A46DC
S1132F30002D64D01AF8012B65210EA801F09EF92A
S1132F400135202265210EA800F0AEFDA542EFD187
S1132F50A642254608D901353A4665210EA8EDB2A8
S1132F6000F07CFDAE42F6D1D8F804A0BAF1000F0F
S1132F700AD09DF8380038B10EADD04715F8010FCE
S1132F800028FAD1D8F804A02020D0478CB104F14D
S1132F9018030DF1180A0DEB03051AF8010BD8F804
S1132FA00430A0F120025F2A88BF2E209847AA454A
S1132FB0F3D1A64208D901343A4665210EA8E4B2F9
S1132FC000F04CFDA642F6D1D8F8045035B1274C98
S1132FD00D20A84714F8010F0028FAD1019B9B1B70
S1132FE00193049BB344A9EB06095B455FFA89F995
S1132FF0BFF466AF059A104629B0BDE8F08F2022D1
S113300065210EA800F050FD1AF8012B65210EA8C9
S113301001F034F90125202265210EA800F044FDB9
S1133020AC4287D194E7D8F8085035B1104C0D2044
S1133030A84714F8010F0028FAD11B22104629B022
S1133040BDE8F08FD8F8085035B10A4C0D20A847D8
S113305014F8010F0028FAD10222104629B0BDE865
S1133060F08F00BFB4DF000034E500003CE900004D
S11330709CDF00005CDF000010B4034683B0EFF374
S1133080108072B68DF807000E490A7842B99DF88F
S1133090070080F31088FF2003B05DF8044B7047ED
S11330A0094C012B4FF0000238BF01230A70236042
S11330B09DF8070080F31088104603B05DF8044BB8
S11330C0704700BFEC010020F0010020FF2816D05B
S11330D010B4034683B0EFF3108072B68DF8070086
S11330E00748084A0024012140F82340D1549DF8A0
S11330F0070080F3108803B05DF8044B70477047F5
S1133100F0010020EC010020FF2813D082B0034618
S1133110EFF3108072B68DF80700084A52F8233096
S1133120B3FA83F35B099DF8070080F3108818460F
S113313002B0704701231846704700BFF001002019
S113314082B0EFF3108072B68DF80700054A136859
S11331500BB1013B13609DF8070080F3108802B0A7
S1133160704700BFF00100200349044B00200122F6
S113317008601A70704700BFF0010020EC010020C5
S113318010B5084B82B00446002218680DF10701FF
S113319004F00AFE01280CBF9DF8073000232370B9
S11331A002B010BDC402002008B5044B186804F036
S11331B081FF003818BF012008BD00BFC4020020F1
S11331C070B50C4C0C4D22680A2802F10103A85476
S11331D0236002D0C72B00D070BD00260648EE54F1
S11331E00AF0A8F9044902460448FEF787F92E704C
S11331F0266070BDBC020020F401002000B006402F
S1133200024B0021186804F04FBB00BFC00200202D
S113321000B5084B83B0186800220DF1070104F0D3
S1133220C3FD01280CBF9DF80700002003B05DF822
S113323004FB00BFC00200202DE9F0472E4D84B0EE
S113324000232846CDE90233FEF720F910F0280FB9
S113325006463FD0AB7D03F0FF04002B3AD0274F46
S1133260DFF8A08010E099F80020EAB93B700DF176
S1133270070AD8F80000002303AA514604F0ACFC66
S1133280631E13F0FF0425D0EB79DBB28DF8073011
S1133290002BF5D03A78DFF870900A2AE3D1402B5E
S11332A0E1D1012389F80030154B0DF1070A1868A4
S11332B002AA0023514604F08FFC99F800209DF8DF
S11332C007303B70002AD4D00A2B04BF002389F8AE
S11332D00030CEE746F08061074841F00801FEF770
S11332E0E1F8DDE90232134301D003F0E9FFBFF353
S11332F04F8F04B0BDE8F08700B0064014000020F2
S1133300C0020020C4020020B50C002070B50E4697
S11333109AB09E49054614460AF0C8F820B19C4963
S113332028460AF0C3F8A0B90123626899499A486B
S11333303370FFF787FD994999486268FFF782FD6A
S1133340984999486268FFF77DFD002528461AB020
S113335070BD964928460AF0A9F828B19449284630
S11333600AF0A4F800287FD10123626891493370E0
S11333708948FFF78FFD904962689048FFF78AFDFE
S11333808F48FEF783F88F4A0546602102A800F0B3
S113339053FB2A46602102A801F068F88A4A60219A
S11333A002A800F05BFB6268884802A9FFF772FD7F
S11333B02B0600F1CD806E0600F1C480A80600F152
S11333C0BB80E90600F1B2802A0700F1A9806B07EF
S11333D000F1A080AE0700F19780E80700F18E802D
S11333E0290400F185806A047CD4EB0574D42E0290
S11333F06CD4680264D4002DC0F2B080690059D442
S1133400AA0151D46B0144D402A84FF4E1326021E3
S113341001F0B4F902A86C4A602100F01FFB626855
S11334206B4802A9FFF736FD02A86A4A602100F042
S113343003FB02A84FF44062602101F0BFF802A828
S1133440654A602100F00AFB6022114602A801F0DF
S1133450B5F802A85C4A602100F000FB5F4862688E
S113346002A9FFF717FD70E75D49112228460AF00B
S113347088F800287FF469AF01231135337001A95E
S113348002A8029501F01AFA054600286CD01B2503
S11334905CE7626853495448FFF7FCFC51495248C1
S11334A06268FFF7F7FCAFE7626850494E48FFF7E0
S11334B0F1FCA7E762684E494B48FFF7EBFC9FE736
S11334C062684C494848FFF7E5FC94E762684A495A
S11334D04548FFF7DFFC8CE7626848494248FFF73C
S11334E0D9FC84E7626846493F48FFF7D3FC7CE790
S11334F0626844493C48FFF7CDFC74E7626842497E
S11335003948FFF7C7FC6BE7626840493648FFF764
S1133510C1FC62E762683E493348FFF7BBFC59E7E8
S113352062683C493048FFF7B5FC50E762683A49A5
S11335302D48FFF7AFFC47E7626838492A48FFF790
S1133540A9FC3EE7626836492748FFF7A3FC35E744
S1133550626834492448FFF79DFC2CE762683249CD
S11335602148FFF797FC49E701991548FDF79AFFB1
S1133570616806462D48FFF789F961683046FFF710
S113358093F911486168FFF781F9DFE60CDC00006C
S113359008E00000B8DF0000D4DF0000A8D8000075
S11335A0CCD80000E0DF0000F8DF000088DC000079
S11335B04CE0000018E0000030E0000038E00000BB
S11335C000B0064034E500003CE9000044E000009F
S11335D034E200003CE2000044E2000054E2000057
S11335E060E2000018E20000B0DF0000FCE100002F
S11335F0E4E10000A8E1000084E100006CE10000C7
S113360050E1000038E1000020E1000004E1000086
S1133610ECE00000D4E00000BCE00000A0E000000A
S11336207CE0000060E00000CCE1000074E20000F7
S113363070B584B001A8FDF703FF01264FF4E13112
S1133640002240F201130D2001918DF80820ADF8FD
S11336500E30ADF80B60FDF785F81A4D024601A94E
S11336602846FDF75FFE00B1FEE76B7B43F00403E1
S11336706B736B7B43F002036B730446314628463D
S1133680FDF74AFF10492846FDF7E8FE0F4B50218D
S1133690022283F821134FF440605A6031462246D7
S11336A004F04AF90A4B186048B1224631466020BA
S11336B004F042F9074B186010B104B070BDFEE786
S11336C0FEE700BF00B006400020080400E100E06F
S11336D0C4020020C0020020B1F1004F00F0998024
S11336E0002910B507DB40F08580302303700124E6
S11336F00023035510BD784B4A42A3FB0243DB0869
S113370003EB8304A2EB4402303202701C46002B0C
S113371000F0C580704BA3FB04C2D20802EB820CFC
S1133720A4EB4C0430344470002A00F08280A3FBE4
S113373002C4E40804EB840CA2EB4C023032827025
S1133740002C7BD0A3FB04C2D20802EB820CA4EBB6
S11337504C043034C470002A77D0A3FB02C4E408BC
S113376004EB840CA2EB4C0230320271002C73D0B7
S1133770A3FB04C2D20802EB820CA4EB4C04303449
S11337804471002A6FD0A3FB02C4E40804EB840C48
S1133790A2EB4C0230328271002C6BD0A3FB04C22A
S11337A0D20802EB820CA4EB4C043034C471002A1E
S11337B067D0A3FB0243DB0803EB8304A2EB4402C0
S11337C030320272002B63D030330029437227DB7E
S11337D00A2422464FF0050E03460244864412F89A
S11337E001CD197803F801CB9E451170F7D1002360
S11337F0035510BD394BCC1783FB0123C4EBA30441
S113380004EB8403A1EB430330330370002C81D118
S11338106DE73349334A344B01604260836070473B
S11338200A21092202322D2343541446C2F3470EBF
S1133830D2E7002936DA02210122F3E7002936DB38
S1133840032422464FF0010EC6E7002932DB04248C
S113385022464FF0020EBFE700292EDB0524224644
S11338604FF0020EB8E700292ADB062422464FF067
S1133870030EB1E7002926DB072422464FF0030E8E
S1133880AAE7002925DB082422464FF0040EA3E70B
S113389000291BDB092422464FF0040E9CE701217A
S11338A01A46BFE7022422464FF0010E94E7032193
S11338B00222B7E704210322B4E705210422B1E779
S11338C006210522AEE707210622ABE709210822DB
S11338D0A8E708210722A5E7CDCCCCCC67666666AD
S11338E02D323134373438333634380011F5004F43
S11338F073D0002910B506DB56D1302303700124A0
S11339000023035510BD494A4B429BB2A2FB03421C
S1133910D20802EB8204A3EB44033033037013B2E6
S1133920002A75D0414A9BB2A2FB03C4E40804EB0D
S1133930840CA3EB4C033033437023B2002C54D0DB
S11339409BB2A2FB03C4E40804EB840CA3EB4C037A
S1133950303383700FFA84FC002C4BD01FFA8CFC9C
S1133960A2FB0C23DB0803EB8302ACEB420C0CF14F
S1133970300C80F803C01AB2002B42D03032002938
S1133980027121DB052423464FF0020E0246034454
S1133990864413F801CD117802F801CB96451970CD
S11339A0F7D10023035510BD214ACB1782FB0142F6
S11339B0C3EBA20303EB8302A1EB420230321BB23E
S11339C00270002BAED19AE70522042302332D2185
S11339D081541C46C3F3470ED8E71649016043F6E9
S11339E036020023828083717047002912DA022292
S11339F00123EBE7002912DB032423464FF0010ED9
S1133A00C4E700290EDB042423464FF0020EBDE771
S1133A100122DBE7022423464FF0010EB6E703221E
S1133A200223D3E704220323D0E700BFCDCCCCCCC0
S1133A30676666662D33323701290BD00144013A9B
S1133A40013903E000F8013B884203D012F8013F3A
S1133A50002BF7D100230370704700BF01391FD03A
S1133A6010B4034601E0013914D0184613F8014B91
S1133A70002CF8D1013A014403E000F8013B8842EC
S1133A8003D012F8013F002BF7D1002303705DF837
S1133A90044B70471846002303705DF8044B7047CD
S1133AA000230370704700BF013910D010B401E047
S1133AB0013907D0034601301C78002CF8D1184690
S1133AC000F8012B002303705DF8044B70470023BA
S1133AD00370704712F5004F70B501F1FF3447D001
S1133AE0002A154609DB41D10129064602D03023BC
S1133AF006F8013B0023337070BD53421BB2012909
S1133B0051D02A4E4FF0000C00E04CB39BB2A6FB00
S1133B100321C90801EB8102E646A3EB42033033DB
S1133B200CF1010C00F80E30013C5FFA8CFC0BB276
S1133B300029EAD100EB0C02002D164627DB4FEAE0
S1133B405C03002BD6D000EB030C12F8011D0378A4
S1133B5000F8011B84451370F7D100233370CBE7C1
S1133B6000EB0C0216464FEA5C03EAE71346C6E78D
S1133B7054B10F4A044403E000F8013BA04203D0CF
S1133B8012F8013B002BF7D10023037070BD002C09
S1133B90D5D00EF1020E2D23137050FA8EF2CEF30F
S1133BA046031646CDE70646A4E700BFCDCCCCCCF1
S1133BB080E2000010B483B022BB30238DF80030C3
S1133BC0012308336B440022013903F8082C13D075
S1133BD0034601E0013946D0184613F8012B002AA8
S1133BE0F8D16A46014403E000F8013B884203D05F
S1133BF012F8013B002BF7D10023037003B05DF8EA
S1133C00044B70471A4CA4FB02C3DB0803EB830C80
S1133C10A2EB4C0C0CF1300C092A8DF800C09BB2BD
S1133C2023D9A4FB034C4FEADC0C0CEB8C04A3EB70
S1133C304403632A03F130038DF801301FFA8CFC2E
S1133C408ABF032302230CF1300C0DEB030288BF5F
S1133C508DF802C09DF8004012F801CC8DF800C028
S1133C6002F8014CADE71846C6E70123A9E700BFF7
S1133C70CDCCCCCC30B583B02ABB30238DF800300A
S1133C80012505F108030DEB030501394FF000038D
S1133C9005F8083C13D0034601E0013961D0184609
S1133CA013F8012B002AF8D16A46014403E000F816
S1133CB0013B884203D012F8013B002BF7D10023CB
S1133CC0037003B030BD2F4BA3FB0254E40804EB94
S1133CD08405A2EB45053035092A8DF80050A4B2BD
S1133CE044D9A3FB045C4FEADC0C0CEB8C05A4EB7D
S1133CF045043034632A8DF801401FFA8CFC37D90F
S1133D00A3FB0C54E40804EB8405ACEB450C0CF168
S1133D10300CB2F57A7F8DF802C0A4B22BD3A3FB8A
S1133D200453DB0803EB8305A4EB450430348DF81E
S1133D30034042F20F74A2429BB21FD930338DF874
S1133D400430022405256B461C445A1912F801ED6F
S1133D5093F800C003F801EBA34282F800C0F5D148
S1133D608FE718460023037003B030BD012588E7B0
S1133D7001240225E7E701240325E4E702240425BE
S1133D80E1E700BFCDCCCCCCF0B583B09DF820509A
S1133D90002A3BD130228DF80020012707F10802C8
S1133DA00DEB02074FF0000C07F808CC9DF800203B
S1133DB06FB2002A00F0DE805FFA8CF20132E64630
S1133DC04FFA82FC0CF108046C44D6B214F8084C87
S1133DD0002CF1D1BC456DDB013913D0034601E061
S1133DE0013962D0184613F8012B002AF8D16A462B
S1133DF0014403E000F8013B884203D012F8013B80
S1133E00002BF7D10023037003B0F0BD654CA4FB75
S1133E100276F60806EB8607A2EB47073037092A35
S1133E208DF80070B6B240F2B080A4FB06C7FF085C
S1133E3007EB870CA6EB4C063036632A8DF801603D
S1133E40BFB240F2A480A4FB07C6F60806EB860CBA
S1133E50A7EB4C073037B2F57A7F8DF80270B6B213
S1133E60C0F09880A4FB0674E40804EB8407A6EB76
S1133E70470630368DF8036042F20F76B242A4B2A0
S1133E8040F28B8030348DF80440052702266A46C0
S1133E90164402EB070C1CF801ED147802F801EB50
S1133EA096428CF80040F6D178E718460023037058
S1133EB003B0F0BDBCF1000F1FDB08376F4405F100
S1133EC0FF3CBEF1FF3F07F8084C5FFA8CF74FFA4E
S1133ED08CFC65D0751B6A440CF108046C440CF12D
S1133EE0FF3C12F801ED04F808EC55FA8CF42406B2
S1133EF04FFA8CFCF0D5BF1B7FB2002FFFF66CAFDE
S1133F007E1C022FF6B21ADD002463F3070407F1C6
S1133F10080263F30F246A4463F317440B3A06F070
S1133F20FC0563F31F64551B42F80449AA42FBD104
S1133F3026F00302BA1A57B2B2073FF44DAF07F1A5
S1133F4008026A44FFB202F8083C7A1ED2B2FF2A81
S1133F503FF442AF0832023F6A44FFB2FF2F02F837
S1133F60083C3FF439AF07F108020DEB020707F8EC
S1133F70083C31E7002F7FF72FAF05F108046C44AC
S1133F806F1E04F8082C7FB2BAE7012706E7022760
S1133F9001267CE70327012679E70427022676E732
S1133FA02646A8E7CDCCCCCC2DE9F04182B00E4614
S1133FB00446114668469DF820801F46FFF796FC8C
S1133FC09DF800304FFA88FC002B00F0918000200F
S1133FD0C2B20132014650B200F108030DEB0305F1
S1133FE0D3B215F8085C002DF2D1604520DB711EB8
S1133FF013D0234601E0013914D01C4613F8012BD9
S1134000002AF8D16A46214403E004F8013B8C42BB
S113401003D012F8013B002BF7D10023237002B028
S1134020BDE8F0811C460023237002B0BDE8F08196
S1134030002820DB0CF108000DEB000C013108F125
S1134040FF300CF8085C5FFA80FC40B25ED06A4432
S1134050A3EB080800F10801694412F8015D01F8B6
S1134060085C411E48B258FA81F10906F2D5ACEB5E
S1134070030C4FFA8CFCBCF1000FB8DB0CF101000F
S1134080BCF1020FC0B21ADD002267F3070267F326
S11340900F22ACF1030367F317426B4400F0FC01F9
S11340A067F31F62591A43F804298B42FBD120F0AD
S11340B00303ACEB03034FFA83FC830797D05FFA47
S11340C08CF30CF108020DEB020C5A1ED2B2FF2A3B
S11340D00CF8087C8BD00832023B6A44DBB2FF2B1D
S11340E002F8087C83D008336B4403F8087C7EE72D
S11340F0BCF1000F7FF77BAF08F108026A4408F1B6
S1134100FF3C02F8083C4FFA8CFCB7E72B46AEE7BD
S11341102DE9F04184B00E460446114601A89DF8ED
S113412028801F46FFF7D8FA9DF804304FFA88FC20
S1134130002B00F093800020C2B20132014650B23D
S113414000F110030DEB0305D3B215F80C5C002D40
S1134150F2D1604520DB711E13D0234601E0013902
S113416014D01C4613F8012B002AF8D101AA2144CB
S113417003E004F8013B8C4203D012F8013B002B0E
S1134180F7D10023237004B0BDE8F0811C4600235E
S1134190237004B0BDE8F081002821DB0CF110008D
S11341A00DEB000C013108F1FF300CF80C5C5FFAE8
S11341B080FC40B260D001A90A44A3EB080800F1D6
S11341C01001694412F8015D01F80C5C411E48B20B
S11341D058FA81F10906F2D5ACEB030C4FFA8CFCCA
S11341E0BCF1000FB7DB0CF10100BCF1020FC0B24F
S11341F01BDD002267F3070201A967F30F22ACF16C
S113420003030B4467F3174200F0FC0167F31F62DA
S1134210591A43F804298B42FBD120F00303ACEB79
S113422003034FFA83FC830795D05FFA8CF30CF1F8
S113423010020DEB020C5A1ED2B2FF2A0CF80C7CB1
S113424089D01032023B6A44DBB2FF2B02F80C7CAB
S113425081D010336B4403F80C7C7CE7BCF1000F75
S11342607FF779AF08F110026A4408F1FF3C02F8C5
S11342700C3C4FFA8CFCB6E72B46ADE700B502F0D8
S11342800F0CBCF1090F83B08CBF37233023634478
S11342909F2A8DF805308CBF372330234FF0000E52
S11342A003EB121301398DF806E08DF8043013D0B6
S11342B0034601E0013914D0184613F8012B002AF3
S11342C0F8D101AA014403E000F8013B814203D084
S11342D012F8013B002BF7D10023037003B05DF803
S11342E004FB18460023037003B05DF804FB00BF11
S11342F000B502F00F030A2B83B034BF4FF0300E29
S11343004FF0370E73448DF80330C2F303134FF0AC
S1134310000C0A2B8DF804C034BF4FF0300C4FF062
S1134320370C9C44C2F303230A2B8DF802C034BF1C
S11343304FF0300C4FF0370CB2F5204F634434BFCC
S11343404FF0300C4FF0370C0CEB123201398DF872
S113435001308DF8002013D0034601E0013914D058
S1134360184613F8012B002AF8D16A46014403E0E9
S113437000F8013B814203D012F8013B002BF7D136
S11343800023037003B05DF804FB18460023037098
S113439003B05DF804FB00BF00B502F00F0383B067
S11343A00A2B4FF0000C34BF4FF0300E4FF0370E95
S11343B08DF806C0C2F3031C7344BCF10A0F8DF8D8
S11343C0053034BF302337236344C2F3032CBCF1DC
S11343D00A0F34BF4FF0300E4FF0370E8DF8043013
S11343E0C2F30333F4440A2B8DF803C034BF4FF0F7
S11343F0300C4FF0370C9C44C2F303430A2BC2F336
S113440003528DF802C034BF4FF0300C4FF0370C1C
S11344100A2A634434BF4FF0300C4FF0370C624427
S113442001398DF801308DF8002013D0034601E0E6
S1134430013914D0184613F8012B002AF8D16A4622
S1134440014403E000F8013B884203D012F8013B29
S1134450002BF7D10023037003B05DF804FB18466A
S11344600023037003B05DF804FB00BF00B502F045
S11344700F0385B00A2B4FF0000C34BF4FF0300E01
S11344804FF0370E8DF80CC0C2F3031C7344BCF11B
S11344900A0F8DF80B3034BF302337236344C2F343
S11344A0032CBCF10A0F34BF4FF0300E4FF0370E1F
S11344B08DF80A30C2F30333F4440A2B8DF809C093
S11344C034BF4FF0300C4FF0370C6344C2F3034C4D
S11344D0BCF10A0F34BF4FF0300E4FF0370E8DF899
S11344E00830C2F30353F4440A2B8DF807C034BFD9
S11344F04FF0300C4FF0370C9C44C2F303630A2B8B
S11345008DF806C034BF4FF0300C4FF0370CB2F1C9
S1134510204F634434BF4FF0300C4FF0370C0CEB9A
S1134520127201398DF805308DF8042013D003463A
S113453001E0013914D0184613F8012B002AF8D1F0
S113454001AA014403E000F8013B884203D012F8B9
S1134550013B002BF7D10023037005B05DF804FB89
S113456018460023037005B05DF804FB30B585B030
S11345700D460446114601A8FFF7AEF8691E13D094
S1134580234601E0013913D01C4613F8012B002AFD
S1134590F8D101AA214403E004F8013BA14203D06D
S11345A012F8013B002BF7D10023237005B030BD76
S11345B01C460023237005B030BD00BF30B585B064
S11345C032BB30238DF80430012505F110030DEBC7
S11345D0030501394FF0000305F80C3C14D00346E1
S11345E002E0013900F09F80184613F8012B002ADD
S11345F0F7D101AA014403E000F8013B884203D04B
S113460012F8013B002BF7D10023037005B030BD35
S1134610544BA3FB0254E40804EB8405A2EB4505C8
S11346203035092A8DF8045040F28280A3FB045CE3
S11346304FEADC0C0CEB8C05A4EB45043034632A04
S11346408DF8054076D9A3FB0C54E40804EB8405EB
S1134650ACEB450C0CF1300CB2F57A7F8DF806C04A
S11346606BD3A3FB04C5ED0805EB850CA4EB4C044C
S113467030348DF8074042F20F74A24260D9A3FB94
S113468005C4E40804EB840CA5EB4C0530358DF827
S11346900850354DAA4256D9A3FB04C5ED0805EBD5
S11346A0850CA4EB4C0430348DF809402F4CA24205
S11346B04CD9A3FB05C4E40804EB840CA5EB4C051E
S11346C030358DF80A502A4DAA4242D3A3FB04C5C3
S11346D0ED0805EB850CA4EB4C0430348DF80B404D
S11346E0244CA24238D9A3FB0543DB0803EB830423
S11346F0A5EB4405204C3035A2428DF80C502ED940
S113470030338DF80D3005240A2501AB1C445A19A9
S113471012F801ED93F800C003F801EBA34282F80C
S113472000C0F5D151E718460023037005B030BD31
S113473001254AE701240225E7E701240325E4E7EC
S113474002240425E1E702240525DEE703240625E7
S1134750DBE703240725D8E704240825D5E7042448
S11347600925D2E7CDCCCCCC9F8601003F420F0077
S113477080969800FFE0F505FFC99A3B70B50139B2
S11347803AB9054611B1302305F8013B00232B70DB
S113479070BD05460029F9D0134E002300E099B1FD
S11347A0A6FB024C4FEADC0C0CEB8C0EA2EB4E0E7B
S11347B014465D1C0EF1300E092C00F803E001F1E3
S11347C0FF31EBB26246EAD8C5185B08DED02A4650
S11347D0034412F8014D017800F8014B8342117033
S11347E0F7D100232B7070BDCDCCCCCC2DE9F04794
S11347F0DDE9085A00283CD00F4691469846044605
S113480001B1B2B394F800C0BCF1220F34D02A4BEA
S11348100026BAF1000F08BF9A460CE0072B14D803
S113482008F038FE88B9013617B1B1451DD8387083
S1134830002714F801CFBCF10D0F614650460CF16E
S1134840FF33EBD9BCF1200FEAD1002002460FB1AF
S113485000233B70B8F1000F02D03244C8F80020A6
S113486045B101362E60BDE8F087237807F8013B97
S1134870DFE71B20BDE8F08700266378601C012277
S1134880314609E0B3B1013697B1B1450FD9037888
S113489007F8013B43780130222BF3D14378222BD4
S11348A000F1010002F10102EDD00020CFE73970E0
S11348B00027EFE70120CAE7B0DF000030B5026847
S11348C000230B601378202B04D10132026013788B
S11348D0202BFAD02D2B40D00025302B26D0A3F14D
S11348E03002092A20D84FF00A0C00240FE05FFAA6
S11348F08EF3373BDAB2624504FB0C2414D203680E
S11349005A1C02605B78202B21D92E2B1FD0A3F1D7
S11349103002602BD2B2A3F1200EE8D8102AE8D8D6
S1134920624504FB0C24EAD31B2030BD531C0360F6
S11349305378622B22D0782B15D1931C0360937883
S11349404FF0100C202B01D92E2BCED1002415B9F9
S11349500C60002030BD6442FAE7541C04605378B4
S113496001252246B9E7202BF3D92E2BF1D0A3F150
S11349703002092AD8D84FF0080CB6E7931C03601C
S113498093784FF0020CDDE703681A78202A03D1EC
S113499013F8012F202AFBD000220A7093F800C0DC
S11349A0ACF1300C5FFA8CFCBCF1090F2CD881F807
S11349B000C05A78303AD2B2092A27D80CEB8C0CB2
S11349C002EB4C02D2B20A7093F802C0ACF1300C84
S11349D05FFA8CFCBCF1090F1CD802EB82020CEBD1
S11349E04202D2B20A7093F803C0ACF1300C5FFA01
S11349F08CFCBCF1090F0FD802EB82020CEB420CC9
S1134A0081F800C0042070471B2070470133036005
S1134A10002070470233FAE70333F8E70368002203
S1134A200A701A78202A03D113F8012F202AFBD008
S1134A30A2F1300CBCF1090F04D922F02002413A52
S1134A40052A11D893F800C0ACF13002D2B2092A79
S1134A5010D9ACF16102052A08D9ACF14102052A4A
S1134A602FD90360002070471B207047ACF1570C0E
S1134A705FFA8CF2013300B50A7093F800E0AEF1EE
S1134A80300C5FFA8CFCBCF1090F11D9AEF1610C4A
S1134A90BCF1050F08D9AEF1410CBCF1050F16D9D4
S1134AA0036000205DF804FBAEF1570E5FFA8EFC44
S1134AB001330CEB021C81F800C0036000205DF898
S1134AC004FBACF1370C5FFA8CF20133D3E7AEF19F
S1134AD0370E5FFA8EFC0133EBE700BF70B50E466C
S1134AE0044608F027FD0546304608F023FD8542BC
S1134AF010DB05F1010C431CA444334401E0022AF9
S1134B000AD41A461CF8010D13F8011D8842A2EBC1
S1134B100602F4D01B2070BD304608F00BFD05469C
S1134B20204608F007FD431B0022E254104670BDE6
S1134B30012A036820D000B5013A86460020885433
S1134B4001EB020C1A78222A13D15A1C5B78222B0F
S1134B5008D073B18C450CD001F8013B12F8013F29
S1134B60222BF6D1002001320870CEF800205DF827
S1134B7004FB1B205DF804FB1B20704770B5012962
S1134B809DF810404ED90578002D52D0451C4FF0A9
S1134B90000EAC4615F8016B0EF1010E002EF8D193
S1134BA0A1EB0E0170444D1E08BF057002D143E015
S1134BB0013D38D0864610F8016B002EF8D1013A39
S1134BC0754403E00EF8010BAE4503D012F8010F53
S1134BD00028F7D100228EF800209CF8002092B122
S1134BE054B3012928D90CF101020CEB010002E0B5
S1134BF014B3824208D01578013C9446811AE4B279
S1134C000132002DF4D1BCB1012915D90139644414
S1134C10614401E0614508D00CF8013BA445F9D199
S1134C200023237070BD8646D4E70C46002323700E
S1134C30F8E74D1E8446BDE76446F1E7704700BFC0
S1134C4000B5012B85B000F0E580022B00F0178140
S1134C50032B02F00F0377D00A2B34BF4FF0300E32
S1134C604FF0370E73448DF80B30C2F303134FF03B
S1134C70000C0A2B8DF80CC034BF4FF0300C4FF0F1
S1134C80370C6344C2F3032CBCF10A0F34BF4FF05A
S1134C90300E4FF0370E8DF80A30C2F30333F4446C
S1134CA00A2B8DF809C034BF4FF0300C4FF0370C8D
S1134CB06344C2F3034CBCF10A0F34BF4FF0300E0F
S1134CC04FF0370E8DF80830C2F30353F4440A2B27
S1134CD08DF807C034BF4FF0300C4FF0370C9C44B4
S1134CE0C2F303630A2B8DF806C034BF4FF0300CB7
S1134CF04FF0370CB2F1204F634434BF4FF0300C07
S1134D004FF0370C0CEB127201398DF805308DF829
S1134D10042018BF034602D111E0013974D01846AB
S1134D2013F8012B002AF8D101AA014403E000F88A
S1134D30013B884203D012F8013B002BF7D100233A
S1134D40037005B05DF804FB0A2B4FF0000C34BF70
S1134D504FF0300E4FF0370E8DF80AC0C2F3031C2B
S1134D607344BCF10A0F8DF8093034BF3023372364
S1134D706344C2F3032CBCF10A0F34BF4FF0300E6E
S1134D804FF0370E8DF80830C2F30333F4440A2B86
S1134D908DF807C034BF4FF0300C4FF0370C9C44F3
S1134DA0C2F303430A2BC2F303528DF806C034BF87
S1134DB04FF0300C4FF0370C0A2A634434BF4FF0E5
S1134DC0300C4FF0370C624401398DF805308DF802
S1134DD0042018BF034602D1B1E7013914D01846A4
S1134DE013F8012B002AF8D101AA014403E000F8CA
S1134DF0013B8842A3D012F8013B002BF7D10023DA
S1134E00037005B05DF804FB18460023037005B079
S1134E105DF804FB02F00F03092BC2F303128CBFED
S1134E204FF0370E4FF0300E7344092A8DF80530D9
S1134E308CBF372330231A444FF0000C01398DF80E
S1134E4006C08DF8042018BF03463FF478AF184617
S1134E5013F8012B32B10139D6D0184613F8012BBF
S1134E60002AF8D101AA014404E000F8013B884279
S1134E703FF465AF12F8013B002BF6D15FE702F077
S1134E800F0CBCF10A0F34BF3023372363448DF871
S1134E900730C2F303130A2B34BF4FF0300C4FF02A
S1134EA0370C4FF0000E9C44C2F303230A2B8DF8F9
S1134EB008E0C2F3033E34BF30223722BEF10A0FAA
S1134EC0134434BF30223722724401398DF805303F
S1134ED08DF806C08DF8042018BF034602D12EE7D2
S1134EE0013991D0184613F8012B002AF8D101AAF0
S1134EF0014404E000F8013B88423FF420AF12F87B
S1134F00013B002BF6D11AE72DE9F047046894F829
S1134F1000C086B0BCF1200F054601940F469046B0
S1134F201E4605D114F801CFBCF1200FFAD001942C
S1134F30BCF1300F2CD16378782B01AC2AD003A9B3
S1134F402046FFF7BBFCF8B9DDF80C90B9F1FF0F70
S1134F501AD804A92046FFF7B1FCA8B9DDF810A0BF
S1134F60BAF1FF0F10D8204605A9FFF7A7FC58B9DE
S1134F70059BFF2B08D8019A87F8009088F800A0B9
S1134F8033702A60002000E01B2006B0BDE8F087E3
S1134F9001ACD4E702A92046FFF790FC0028CED14B
S1134FA0029BB3F1807FCADA1A143A701A1288F895
S1134FB00020019A3370E4E72DE9F04103681A7880
S1134FC086B0202A044601930D4604D113F8012F1C
S1134FD0202AFBD00193302A30D15B78782B01AFA3
S1134FE02ED003A93846FFF769FC18BBDDF80C8006
S1134FF0B8F1FF0F1ED804A93846FFF75FFCC8B903
S1135000049EFF2E16D8384605A9FFF757FC88B929
S1135010059AFF2A0ED801995FFA88F8F3B2D2B242
S11350201B0243EA08431343002021602B6006B0AF
S1135030BDE8F0811B2006B0BDE8F08101AFD0E7E8
S113504002A93846FFF73AFC0028CAD1029AB2F105
S1135050807FC6DAC2F30748C2F307230199D2B2AC
S1135060DEE700BF03681A78202A04D10133036005
S11350701A78202AFAD0704700BF00BF00BF7047DB
S1135080034A5368184453688342FCD3704700BFF3
S1135090001000E0084B094A1B68A2FB03234FEAF7
S11350A0931C38B106494A6862444B689A42FCD85A
S11350B00138F8D1704700BF08000020D34D6210BA
S11350C0001000E04FF0E021064BD1F8FC2D002049
S11350D042F08072C1F8FC2D58601A6842F0010257
S11350E01A607047001000E00149A42208F0CCB90E
S11350F05CF300002DE9F04F054689B0482001F02B
S113510021FF0746002856D04822002108F0BEF9A6
S11351102B783B7003A8FCF729FE2B780DF11008BF
S1135120002B4FD1DFF8C4B0DFF8C4A001972835B5
S11351303C4607F1400900271022294640468DF8D5
S11351400C7008F0A1F903A88DF80D70FCF740FE6F
S1135150012615F8142C627360611022A5F1100168
S11351602673A76040468DF80C7008F08DF903A8EB
S11351708DF80D70FCF72CFE617B20617140FCF70B
S11351809DFEDBF80030174A267303EB8303BAEB6A
S1135190430F03FA06F008D2134B9042A3FB0030EE
S11351A04FEA90400BD2FFF767FF10344C4505F1EE
S11351B02405C0D1019F384609B0BDE8F08FFFF740
S11351C05FFFF2E700241022291D40468DF80C40B1
S11351D008F05AF903A88DF80D40FCF7F9FD786042
S11351E0A0E700BFC0D8A70083DE1B43080000204F
S11351F03F420F0020B103780BB140687047184656
S1135200704700BF037803B9704710B5044640687F
S1135210FCF742FE0120FFF73DFF6068FCF742FE09
S11352200C4B0D4A1B6803EB8303B2EB430F4FEAAD
S1135230430006D2094B984204D2BDE81040FFF760
S11352401BBF10BD064BA3FB0030BDE81040800C13
S1135250FFF716BF080000203F420F00C0D8A70088
S113526083DE1B4308B1037803B970474068FCF739
S113527025BE00BF70B500EB0115002A2B7B044648
S11352804FEA011612DD4BB3A5196869FCF70AFE53
S11352902B7B43B1AB6801333444A3606869BDE838
S11352A07040FCF7F9BDAB68013BF5E7002BEBD090
S11352B0697B2869FCF702FE1D4B1E4A1B6803EB41
S11352C083030021B2EB430F29734FEA4300DBD27F
S11352D0194B984225D2FFF7CFFED5E700EB011317
S11352E06A7B186982F00101FCF7E8FD104B114A52
S11352F01B6803EB83030121B2EB430F297303FA09
S113530001F0C1D20C4B9842E5D303F1844303F579
S1135310E80303F2C353A3FB0030800CFFF7B0FE95
S1135320B2E7064BA3FB0030800CFFF7A9FEABE706
S1135330080000203F420F00C0D8A70083DE1B43B3
S113534038B5037804465BB904F140052069FCF7DD
S113535013FD10346068FCF70FFDAC42F6D138BD84
S11353604068FCF709FDEFE7037870B5044693B98C
S113537004F14006637B257B206983F0010105B9B4
S11353801946FCF70DFD103460680021FCF708FD98
S1135390B442EFD170BD40680121FCF701FDE7E79D
S11353A0704700BF08B5054B4FF0FF31186802F095
S11353B061FE012800D0FEE708BD00BFC80200203E
S11353C008B5044B186802F0E7FB012800D0FEE79B
S11353D008BD00BFC80200202DE9F0430E46C5B049
S11353E0A3490546144608F061F820B1A1492846AE
S11353F008F05CF818BB62689F49A048FDF722FDDD
S11354009F49A0486268FDF71DFD9F499F48626857
S1135410FDF718FD9E499F486268FDF713FD9E49FC
S11354209E486268FDF70EFD9D499E486268FDF73F
S113543009FD01233370002045B0BDE8F0839A498B
S1135440284608F033F828B19849284608F02EF881
S1135450002834D101236268954933708748FDF7E9
S113546019FD2CA840221021FFF788F92CA8914A95
S11354701021FEF7F3FA62688F482CA9FDF70AFDA4
S11354802CA88E4A1021FEF7D7FA62688C482CA902
S1135490FDF700FD2CA88B4A1021FEF7CDFA6268B7
S11354A089482CA9FDF7F6FC2CA8884A1021FEF7A0
S11354B0C3FA874862682CA9FDF7ECFCBBE7854971
S11354C00F22284608F05DF80346002868D101221F
S11354D002AF327005F10F0003AE0DF17008CDE993
S11354E000334022334638604146FFF77FF90546D2
S11354F0002840F0BB803368002B00F0B7803A6886
S113550038461A443A60FFF7ADFDCDE900550DF178
S113551010093868334630224946FFF767F90546D3
S1135520002840F0A3803368002B00F09F803A6885
S113553038461A443A60FFF795FDCDE900553346E5
S11355403868302210A9FFF751F9002840F08E8006
S11355503368002B00F08A803A68D1183960D35C34
S1135560002B40F08380602300935B4ACDF80480D5
S11355702CAB484610A900F03DFF002876D06168A6
S113558010A8FDF783F961685448FDF77FF9616855
S11355902CA8FDF77BF952486168FDF777F94AE7D3
S11355A050491022284607F0ECFF0346002840F03B
S11355B09B80012232700DF1700803AECDE90033F7
S11355C005F110003346402241460290FFF70EF9E0
S11355D002AF0446002849D1039B002B46D0029A0F
S11355E038461A440DF110090292FFF73BFDCDE94C
S11355F000440298334630224946FFF7F7F8002862
S113560034D1039B002B31D0029A38461A440292BB
S1135610FFF728FD0023CDE90033029833463022FA
S113562010A9FFF7E3F8044600BB039BF3B1029A09
S113563038461A440292FFF715FDCDE9004402985A
S1135640334660222CA9FFF7D1F878B9039B6BB1DC
S1135650029AD1180291D35C43B943462CAA10A9EB
S1135660484600F04BFF00287FF4E5AE1B20E3E63C
S11356700CDC0000A8E3000088E20000A8E20000BF
S1135680A8D80000CCD80000B4E20000DCE200009E
S1135690F0E2000020E3000038E300005CE30000D7
S11356A074E3000094E3000088DC000014E40000CC
S11356B0B8E3000074DC0000C8E30000D4E3000099
S11356C0E4E30000ECE30000FCE3000004E4000079
S11356D00CE4000028E40000B0DF000038E400001F
S11356E03CE900003CE400004F491122284607F041
S11356F048FF0346002850D1012232700DF1700892
S113570003AECDE9003305F1110033464022414692
S11357100290FFF76BF802AF04460028A6D1039B62
S1135720002BA3D0029A38461A440DF110090292B4
S1135730FFF798FCCDE900440298334630224946ED
S1135740FFF754F8002891D1039B002B8ED0029AC6
S113575038461A440292FFF785FC0023CDE9003352
S113576002983346302210A9FFF740F800287FF44E
S11357707DAF039B002B3FF479AF029AD1180291BD
S1135780D25C002A7FF472AF434610A9484600F069
S1135790B5FE00287FF44FAE68E72449112228465D
S11357A007F0EFFE034600287FF445AE0122327075
S11357B00DF1700803AECDE9003305F11100334655
S11357C04022414602AF0290FFF710F800287FF410
S11357D04DAF039A002A3FF449AF029B3846134465
S11357E00293FFF73FFC0023CDE9003302983346D0
S11357F0302204A9FEF7FAFF00287FF437AF039B99
S1135800002B3FF433AF029AD1180291D25C002AE4
S11358107FF42CAF4346114604A800F06FFE002825
S11358207FF409AE22E700BF50E4000064E4000006
S113583008B5042002F078F9034B186018B1BDE8EC
S1135840084000F063B9FEE7C802002070B50C46BA
S11358508CB00646182120461546FCF7F3F898B399
S11358601F4A30216846FEF7E7F82268302168466F
S1135870FEF7FCFD1B4A30216846FEF7EFF81A4B91
S113588022689A4210D0194A30216846FEF7E6F899
S11358906846174A3021FEF7E1F8726869462846DF
S11358A0FDF7F8FA0CB070BD221D68463021FEF7F2
S11358B0D5F868460F4A3021FEF7D0F862693021E6
S11358C06846FEF77BFEE3E768460B4A3021FEF7A5
S11358D0B3F8726869462846FDF7DCFA0CB070BD6F
S11358E094E40000A0E40000BEBAEDFEACE40000C5
S11358F03CE90000A4E4000078E4000038B50C465C
S11359000546FFF74FFD10220021204607F0BEFD9B
S11359104FF4FC330B4A19680B489142C4E9003038
S11359200BD10A48294607F0C1FD30B96268A2606C
S113593040F20113A381012038BDFFF741FD00208F
S113594038BD00BFBEBAEDFE18F8010004F801002E
S113595070B50C46114D0646FFF724FD10220021B8
S1135960204607F093FD4FF480720021284607F08B
S11359708DFD284625600A4B40F8043B1835324615
S113598065601021FEF758F8D4E9001200204FF4A6
S1135990807348610120A260A38170BDCC02002005
S11359A0BEBAEDFE38B5037B0022427323B1012455
S11359B0FFF706FD204638BD056804350446284631
S11359C007F0B8FD20B1054415F8013C7E2BEED05C
S11359D021684FF480724FF4FC30FCF78FF8B0FA72
S11359E080F46409FFF7ECFC204638BD00232DE960
S11359F0F041074688461446037007E015F8016B2A
S1135A00A5603246FEF750F80A2E0DD023685D6972
S1135A10D4E901322B449A42414638461546EDD327
S1135A20A3600020BDE8F0810120BDE8F08100BF43
S1135A30F8B50E7B0EB10120F8BD0C46054607F003
S1135A4079FD0D490746A0682A46091AFDF7F4FFB7
S1135A50A36822681F4402F580739F42A76007D29F
S1135A60616853690B449F4224BF781A5061E2E78E
S1135A70A3603046F8BD00BFCC030020D0E9012369
S1135A809B1A01200B607047034642680868196836
S1135A90024401F580718A4226BF0A460020012093
S1135AA09A60704738B504460D46FFF77BFC2046E4
S1135AB007F040FD20B1231813F8013C7E2B03D0DE
S1135AC0FFF77EFC012038BD0E48214607F0EEFCAE
S1135AD098B90C482A461021FDF7AEFF0A494FF445
S1135AE080724FF4FC30FCF709F8014628B94FF4F2
S1135AF08072054807F0CAFCE2E7FFF761FC00206A
S1135B0038BD00BFD0020020CC0200200020704726
S1135B102DE9F0430E4693B085490546144607F037
S1135B20C5FC20B18349284607F0C0FCD0B962689F
S1135B3081498248FDF786F9814982486268FDF708
S1135B4081F9814981486268FDF77CF9804981487F
S1135B506268FDF777F9012333700026304613B0ED
S1135B60BDE8F0837C49284607F0A0FC28B17B49B6
S1135B70284607F09BFC002858D101256268784923
S1135B806E483570FDF786F9764A302106A8FDF790
S1135B9053FF4FF4FC32302106A8FEF767FC724A2B
S1135BA0302106A8FDF75AFF4FF40062302106A801
S1135BB0FEF79EFB6D4A302106A8FDF74FFF2A46EB
S1135BC0302106A8FEF756F8694A302106A8FDF7E9
S1135BD045FF6848626806A9FDF75CF94FF48072D6
S1135BE0302106A8FEF7CAFD634A302106A8FDF756
S1135BF035FF6248626806A9FDF74CF918224FF494
S1135C00FC306946FBF720FF50B162685C495D488F
S1135C10FDF740F95C4A5D492046FFF717FE9CE713
S1135C20584A69462046FFF711FEF3E758492846CB
S1135C3007F03CFC80B15749284607F037FC0028A0
S1135C408BD101234FF400614FF4FC30337013B057
S1135C50BDE8F043FBF700BF01233370FFF7A2FB5D
S1135C6018224FF4FC306946FBF7EEFE0646002886
S1135C7051D1494B009A9A421FD0444F474A394662
S1135C802046FFF7E3FD444B3A689A4202D0FFF7FF
S1135C9097FB63E77B69002BF9D06FF0170807F1D6
S1135CA01805A8EB0708636815F8010B98477B698A
S1135CB005EB08029A42F6D3E9E7DDF81480384A86
S1135CC069462046FFF7C2FDB8F1000F1EDDDFF87C
S1135CD0D490B8F1200FCCBF202747463A4606A9F6
S1135CE04846D4BF45463D46FBF7AEFED8B906ABA1
