S01500004B30325F3132385F436C6F636B322E733139BB
S214000000002000206D0100006D0200002F0C010092
S2140000107D020000850200008D0200000000000046
S2140000200000000000000000000000001182000038
S2140000309D0200000000000031820000AD020000BA
S214000040D9F80000E5F80000F1F80000FDF800001F
S21400005009F9000015F9000021F900002DF900004B
S21400006039F9000045F9000051F900005DF900007B
S21400007069F9000075F9000081F900008DF90000AB
S21400008099F90000A5F90000B1F90000BDF90000DB
S214000090C9F90000D5F90000E1F90000EDF900000B
S2140000A0F9F9000005FA000011FA00001DFA000038
S2140000B029FA000035FA000041FA00004DFA000067
S2140000C059FA00007545000065FA000071FA000054
S2140000D07DFA000089FA000095FA0000A1FA0000F7
S2140000E0ADFA0000B9FA000025AA0000C5FA000023
S2140000F0D1FA0000DDFA0000E9FA0000F5FA000087
S21400010081EB000001FB00000DFB000019FB000066
S21400011025FB000031FB00003DFB000049FB000012
S21400012055FB000061FB0000758100006DFB0000C0
S21400013079FB000085FB000091FB00009DFB0000A2
S214000140A9FB00001486010000000020FC0000004F
S2140001501486010000E0FF1F00000000FC000020E5
S2140001606C0B000000E0FF1F0000000080B584B0AC
S21400017000AF72B601F0D8FB194BFB6013E0FB68CA
S2140001801A1DFA601B683B60FB681A1DFA601B6844
S214000190BB60FB681A1DFA601B687B607A68B968EA
S2140001A0386800F023F8FB680E4A9342E7D30DE068
S2140001B0FB681A1DFA601B68BB60FB681A1DFA60B4
S2140001C01B687B607968B86800F033F8FB68064AFD
S2140001D09342EDD362B615F031FC00BFFDE700BFD9
S2140001E0440100005C0100006C01000080B489B08E
S2140001F000AFF860B9607A60BB68FB61FB68BB6102
S21400020000237B610AE0BA69131DBB61FB69191DF7
S214000210F96112681A607B6904337B617A697B68CE
S2140002209A42F0D300BF00BF2437BD465DF8047B7A
S214000230704780B485B000AF786039607B68FB603B
S2140002400023BB6007E0FB681A1DFA6000221A60F4
S214000250BB680433BB60BA683B689A42F3D300BFFE
S21400026000BF1437BD465DF8047B704780B400AF0E
S21400027000BFFDE780B400AF00BFFDE780B400AF6D
S21400028000BFFDE780B400AF00BFFDE780B400AF5D
S21400029000BFFDE780B400AF00BFFDE780B400AF4D
S2140002A000BFFDE780B400AF00BFFDE780B400AF3D
S2140002B000BFFDE780B400AF00BFFDE7FFFFFFFF14
S2140002C0FFFFFFFFFFFFFFFFFFFFFFFFFFFFFFFF39
S2140002D0FFFFFFFFFFFFFFFFFFFFFFFFFFFFFFFF29
S2140002E0FFFFFFFFFFFFFFFFFFFFFFFFFFFFFFFF19
S2140002F0FFFFFFFFFFFFFFFFFFFFFFFFFFFFFFFF09
S214000300FFFFFFFFFFFFFFFFFFFFFFFFFFFFFFFFF8
S214000310FFFFFFFFFFFFFFFFFFFFFFFFFFFFFFFFE8
S214000320FFFFFFFFFFFFFFFFFFFFFFFFFFFFFFFFD8
S214000330FFFFFFFFFFFFFFFFFFFFFFFFFFFFFFFFC8
S214000340FFFFFFFFFFFFFFFFFFFFFFFFFFFFFFFFB8
S214000350FFFFFFFFFFFFFFFFFFFFFFFFFFFFFFFFA8
S214000360FFFFFFFFFFFFFFFFFFFFFFFFFFFFFFFF98
S214000370FFFFFFFFFFFFFFFFFFFFFFFFFFFFFFFF88
S214000380FFFFFFFFFFFFFFFFFFFFFFFFFFFFFFFF78
S214000390FFFFFFFFFFFFFFFFFFFFFFFFFFFFFFFF68
S2140003A0FFFFFFFFFFFFFFFFFFFFFFFFFFFFFFFF58
S2140003B0FFFFFFFFFFFFFFFFFFFFFFFFFFFFFFFF48
S2140003C0FFFFFFFFFFFFFFFFFFFFFFFFFFFFFFFF38
S2140003D0FFFFFFFFFFFFFFFFFFFFFFFFFFFFFFFF28
S2140003E0FFFFFFFFFFFFFFFFFFFFFFFFFFFFFFFF18
S2140003F0FFFFFFFFFFFFFFFFFFFFFFFFFFFFFFFF08
S214000400FFFFFFFFFFFFFFFFFFFFFFFFFEFFFFFFF8
S21400041080B483B000AF7860084B1B6823F440229A
S2140004207B689B0403F44023044913430B6000BF1E
S2140004300C37BD465DF8047B704700BF0070044073
S21400044080B483B000AF78600A4B03F580535B68D6
S21400045023F440327B681B0403F4403305491343FE
S21400046001F58052536000BF0C37BD465DF8047B33
S214000470704700BF0070044080B483B000AF114BDB
S2140004801B7BDBB203F00303022B0ED0022B0FD82C
S214000490002B02D0012B04D00AE00B4B1B687B60BC
S2140004A009E00A4B1B687B6005E0094B7B6002E0B5
S2140004B000237B6000BF7B6818460C37BD465DF89E
S2140004C0047B704700400640FC000020000100202E
S2140004D0006CDC0280B582B000AFFFF7CDFF78601D
S2140004E07B68002B01D17B6846E0254B1B78DBB28E
S2140004F0DB08DBB203F00703FB70FB787A6822FAAE
S21400050003F37B601E4B5B78DBB21B09DBB203F0A8
S2140005100303BB701A4B1B7BDBB203F003037B7039
S214000520BB78002B02D07B78002B02D07B78022B86
S21400053021D1FB78072B14D0072B19DC052B02DC06
S214000540002B03DA14E0062B04D011E07B685B096D
S2140005507B6010E07B680B4AA2FB03231B097B60D1
S21400056009E07B68084AA2FB0323DB087B6002E005
S21400057000237B6000BF7B6818460837BD4680BDF9
S21400058000400640CDCCCCCCABAAAAAA80B400AF23
S2140005900C4B9B79DBB203F00103002B02D10A4B14
S2140005A01B6809E0094B1A68064B1B7ADBB25B082E
S2140005B003F0070322FA03F31846BD465DF8047BF2
S2140005C0704700BF004006400000002004000020E6
S2140005D080B500AF074B9B79DBB203F01003002B0E
S2140005E003D1FFF777FF034601E0034B1B6818466D
S2140005F080BD00BF004006400000002080B400AF71
S214000600074B1B78DBB25BB2002B02DA054B1B688C
S21400061000E000231846BD465DF8047B704700BF27
S21400062000500640FC00002080B483B000AF0D4BA5
S2140006301B78DBB25BB2002B0CDA0A4B9B78DBB282
S21400064023F03F03FB71084B1B68FA799209D2B27C
S214000650D34000E0002318460C37BD465DF8047B07
S214000660704700BF00500640FC00002080B582B0F6
S21400067000AF114B1B689B0C03F00303002B02D04A
S214000680032B0CD00FE0FFF7B9FF0346B3F5004F7E
S21400069002D14FF4004300E000237B6006E04FF4F5
S2140006A07A737B6002E000237B6000BF7B6818469D
S2140006B00837BD4680BD00BF0070044080B582B0DC
S2140006C000AF0D4B03F580535B681B0C03F0030370
S2140006D0002B02D0032B04D006E000F0E9F8786087
S2140006E005E0064B7B6002E000237B6000BF7B6872
S2140006F018460837BD4680BD00700440006CDC021A
S21400070080B584B000AF0346FB71FB79132B7BD812
S21400071001A252F823F000BF690700006907000035
S2140007208707000009080000A50700000908000068
S214000730C3070000CB0700000108000009080000FE
S214000740F9070000D3070000DB070000E3070000FE
S2140007500908000009080000090800000908000050
S214000760EB070000F107000000F074F802462A4B81
S21400077003F580535B6C1B0F03F00F030133B2FBD2
S214000780F3F3FB6043E000F065F80246224B03F506
S21400079080535B6C1B0E03F00F030133B2FBF3F3C5
S2140007A0FB6034E000F056F802461B4B03F580531E
S2140007B05B6C1B0C03F00F030133B2FBF3F3FB601F
S2140007C025E0FFF77BFFF86021E0FFF74FFFF860BA
S2140007D01DE00FF0FCF9F86019E000F0A1F8F860F1
S2140007E015E000F065F8F86011E00C4BFB600EE0D9
S2140007F04FF47A73FB600AE0FFF700FFF86006E04C
S214000800FFF712FFF86002E00023FB6000BFFB6802
S21400081018461037BD4680BD00700440006CDC02F0
S21400082080B582B000AF7860094A7B685B6802F5E5
S214000830805253647B681B781846FFF701FE7B687E
S2140008405B781846FFF7E4FD00BF0837BD4680BD5D
S2140008500070044080B582B000AF144B9B79DBB2C9
S2140008609B0803F003033B603B68022B11D03B68F8
S214000870022B12D83B68002B03D03B68012B04D018
S2140008800BE000F015F878600AE0FFF77FFE78606E
S21400089006E0FFF7F1FD786002E000237B6000BF12
S2140008A07B6818460837BD4680BD00BF004006403E
S2140008B080B582B000AF184B5B78DBB203F0020362
S2140008C0002B01D0002322E0FFF782FE78607B68D1
S2140008D0002B01D17B681AE00F4BDB78DBB25B099B
S2140008E0DBB203F00303FB700B4BDB78DBB2DB09F8
S2140008F0DBB203F00103BB70FA78BB7807495200FD
S214000900134431F813301A467B6802FB03F318468B
S2140009100837BD4680BD00BF00400640005F0100AE
S21400092080B500AF064B1B78DBB203F00203002B4A
S21400093001D1002302E0FFF729FE0346184680BDDA
S2140009400040064080B485B000AF0346FB710B46FE
S214000950BB7113467B713B4B9B79DBB29B0803F064
S2140009600303FB60374B9B79DBB203F00103FB729A
S214000970344B1B7ADBB25B08DBB203F00703BB72B7
S2140009807A79BB7A9A422CD02E4B1B78DBB203F0D6
S2140009900203002B02D1FB68012B12D1FB7A012B3C
S2140009A00FD1284B5B78DBB2264A23F00103DBB27B
S2140009B0537000BF234B9B79DBB203F00103002B7F
S2140009C0F8D1204B1B7ADBB223F02F03DAB27B7907
S2140009D05B00DBB203F00E03DBB21A491343DBB253
S2140009E00B72184B5B78DBB223F00103DAB2BB79EB
S2140009F003F00103DBB213491343DBB24B70114B18
S214000A001B78DBB223F00303DAB20E49FB791343FB
S214000A10DBB20B70FB68012B04D0FB7903F00203FA
S214000A20002B08D000BF074B9B79DBB203F0010216
S214000A30BB799A42F7D1002318461437BD465DF8B5
S214000A40047B70470040064080B584B000AF034684
S214000A503A60FB710B46BB710023FB73284BDB78B7
S214000A60BB73274B9B79DBB203F01003002B09D135
S214000A700123FB73224BDB78DBB2214A83F0200391
S214000A80DBB2D3701E4B1B78DBB203F03B03DBB24A
S214000A901B4A43F00403DBB2137000BF184B9B796C
S214000AA0DBB203F01003102BF8D1FB7B002B02D037
S214000AB0134ABB7BD370BB7B03F01F03DAB2FB7910
S214000AC0DB01D9B2BB795B01DBB203F06003DBB2BA
S214000AD00B43DBB20A491343DBB2CB7000BF084BB3
S214000AE09B79DBB203F00C03002BF8D13B68002B9C
S214000AF001D03B689847002318461037BD4680BD96
S214000B000040064080B485B000AF78600023FB60EC
S214000B1006E0094A7B68934206D0FB680133FB6017
S214000B20FB68002BF5D000E000BFFB6818461437C2
S214000B30BD465DF8047B70470010024080B582B069
S214000B4000AF78607868FFF7DDFF044B18460FF0BB
S214000B5068F800BF0837BD4680BD00BF01003C10E6
S214000B6080B500AF044B1B6818460FF074F8BFF34F
S214000B704F8F00BF00BF80BD0401002080B500AFCE
S214000B80044B5B6818460FF066F8BFF34F8F00BF44
S214000B9000BF80BD0401002080B500AF044B9B68F9
S214000BA018460FF058F8BFF34F8F00BF00BF80BD48
S214000BB00401002080B500AF044BDB6818460FF038
S214000BC04AF8BFF34F8F00BF00BF80BD040100206E
S214000BD080B584B000AF78607B68002B01D1042319
S214000BE01EE07B6800229A647B680022DA637B68DA
S214000BF000221A647B689B6C002B02D10A4A7B6831
S214000C009A647B689B6C184600F04EF978680FF083
S214000C10C9F8F860FB68002B01D0FB6800E00023F1
S214000C2018461037BD4680BD1401002080B58AB036
S214000C3000AFF860B9607A603B60FB6893F83430C8
S214000C407A68B968F8680FF0E3F838623B6A002BF8
S214000C5001D03B6A43E0386800F06CF938623B6AC2
S214000C60002B01D03B6A3AE0FB681B6BFB61FB681C
S214000C701B69BB61FA697B681344013B7B627B6A34
S214000C80BA69B3FBF2F2B96901FB02F29B1A002BB8
S214000C901ED07A6ABB69B2FBF3F301337B617B69D2
S214000CA0BA6902FB03F3013B7B6211E0FB6923F0A8
S214000CB07F430D4A43F010631360F86800F004F9B0
S214000CC038623B6A002B08D1FA69BB691344FB61A2
S214000CD0FA697B6A9A42E9D900E000BF3B6A184687
S214000CE02837BD4680BD00BF0400024090B589B0DD
S214000CF000AFF860B9607A603B60FB6893F8393003
S214000D00FB747B68002B01D1042353E0FB7C3A681C
S214000D10B968F8680FF07CF8F861FB69002B01D021
S214000D20FB6947E0FB681B6BBB613B687B613BE094
S214000D30224B1C1D78680FF0A3F8034623607B68DF
S214000D4004337B60FB7C042B07D1BB6923F07F4315
S214000D501A4A43F0C063136017E0FB7C082B12D1DD
S214000D60164B03F1080478680FF08AF803462360F0
S214000D707B6804337B60BB6923F07F430F4A43F0F4
S214000D80E063136001E0042314E0F86800F09CF8C8
S214000D90F861FB69002B0BD1FB7CBA691344BB617D
S214000DA0FB7C7A69D31A7B617B69002BC0D100E09B
S214000DB000BFFB6918462437BD4690BD04000240BC
S214000DC080B58CB000AFF860B9607A60FB70FB68E5
S214000DD093F83530FB77FB7F7A68B968F8680FF0D0
S214000DE017F8B861BB69002B01D0BB6955E0FB68FA
S214000DF01B6B7B62FB68DA68FB685B69B2FBF3F32C
S214000E007B617A6A7B6913445A1E7B695B42134096
S214000E10FB62FA6A7B6A9A4203D1FA6A7B691344D8
S214000E20FB627B68BB6234E0FA6A7B6AD31A3B6279
S214000E303A6ABB6A9A4201D9BB6A3B62FB7F3A6A4E
S214000E40B2FBF3F33B617B6A23F07F43154A43F022
S214000E50807313603B691A04FB781B021A43114B1C
S214000E60043342F0FF021A60F86800F02DF8B8610B
S214000E70BB69002B01D0BB690FE0BA6A3B6AD31A84
S214000E80BB627A6A3B6A13447B62FA6A7B691344E4
S214000E90FB62BB6A002BC7D1002318463037BD461D
S214000EA080BD00BF0400024080B582B000AF78600D
S214000EB00C220449786814F0BDFD00BF0837BD4613
S214000EC080BD00BF105F010080B584B000AF7860C1
S214000ED0174B70221A707B689B6C5A1C7B689A644E
S214000EE07B689B6CFB60FB68114898477B689B6C33
S214000EF05A1E7B689A640E4B1B78FB72FB7A03F0D3
S214000F002003002B01D067230EE0FB7A03F01003CA
S214000F10002B01D0682307E0FB7A03F00103002BC7
S214000F2001D0692300E0002318461037BD4680BD77
S214000F300000024080B483B000AF78607B68064A49
S214000F40934201D06B2300E0002318460C37BD46C1
S214000F505DF8047B704700BF6B66656B90B597B015
S214000F6000AF78607B68002B01D10423C8E1002322
S214000F7087F85730BEE197F857307A68642101FB4E
S214000F8003F3134400221A7097F857307A686421E6
S214000F9001FB03F31344013397F857201A7097F8B0
S214000FA05730642202FB03F37A68134418460FF0A6
S214000FB037F8B864BB6C002B01D0BB6CA0E10023F3
S214000FC07B644FF400333B640123FB634FF4006300
S214000FD0BB6320237B6304233B630823FB62082355
S214000FE0BB624FF070637B6218233B628D4B93F8B5
S214000FF02830DBB2FB618B4B93F82B30DBB2BB6146
S21400100097F857307A68642101FB03F313440833DA
S2140010107A6C1A6097F857307A68642101FB03F3FC
S21400102013441433FA6B1A6097F857307A686421C1
S21400103001FB03F313441033BA6B1A6097F857306A
S2140010407A68642101FB03F313441B79C3F300039E
S214001050DBB2002B1DD097F857307A68642101FB6D
S21400106003F313441B79C3F34003DBB2002B10D009
S21400107097F857403B6A7A6A396CF86B00F0E4F9E7
S21400108001467A68642304FB03F313440C331960A7
S2140010900CE097F85730FA6B396C01FB02F279686E
S2140010A0642000FB03F30B440C331A6097F85730A8
S2140010B07A68642101FB03F313441B79C3F300131E
S2140010C0DBB2002B40D097F85730642202FB03F3C4
S2140010D018337A6813447B6197F857307A6864212E
S2140010E001FB03F313441B79C3F34013DBB2002B5D
S2140010F014D097F857307A68642101FB03F3134441
S21400110008331A687B691A604FF48072FB699A404C
S2140011107B695A607B69BA699A6015E07B689A6851
S2140011207B691A603F4B93F82830DBB21A464FF4BF
S214001130807303FA02F27B695A603A4B93F82B30BD
S214001140DBB21A467B699A6097F857307A68642152
S21400115001FB03F313441B79C3F38003DBB2002BBC
S21400116071D097F85730642202FB03F320337A6875
S214001170134404333B6197F857307A68642101FBC7
S21400118003F313441B79C3F3C003DBB2002B20D058
S21400119097F857307A68642101FB03F31344083349
S2140011A01A683B691A603B697A6B9A6097F8573001
S2140011B07A68642101FB03F313440C331A683B6915
S2140011C09B68194610460EF05FFF02463B695A6060
S2140011D039E00023FB647B689A683B691A603B69C8
S2140011E020229A6000233B650EE097F857307A6815
S2140011F0642101FB03F313440C331B68FA6C13449D
S214001200FB643B6D01333B653B6D002BEDD03B69CA
S2140012109B681946F86C0EF037FFF86000233B65B4
S2140012200EE000BF000002407A683B6D642101FBBF
S21400123003F313442833FA681A603B6D01333B65A9
S2140012403B6D002BF0D097F857303A6BD0B27A68E7
S214001250642101FB03F31344393302461A7097F8EE
S2140012605730FA6AD0B27A68642101FB03F313445C
S214001270343302461A7097F85730BA6AD0B27A6892
S214001280642101FB03F31344353302461A7097F8C2
S21400129057307A68642101FB03F313443633042283
S2140012A01A7097F857307A68642101FB03F31344E9
S2140012B0373304221A7097F857307A68642101FB96
S2140012C003F31344383300221A7097F85730642219
S2140012D002FB03F37A6813441846FFF779FCB864F8
S2140012E0BB6C002B01D0BB6C0AE097F8573001337B
S2140012F087F8573097F85730002B3FF43CAE002362
S21400130018465C37BD4690BD80B487B000AFF86025
S2140013100B467A60FB72FB68002B02D07B68002BC2
S21400132001D104238AE000237B61FB7A212B00F2A3
S214001330818001A252F823F0C1130000CB130000F5
S214001340D5130000E7130000F1130000FB130000A4
S2140013500D140000171400003514000035140000AA
S2140013603514000035140000351400003514000054
S2140013703514000035140000351400003514000044
S2140013803514000035140000351400003514000034
S2140013903514000035140000351400003514000024
S2140013A03514000035140000351400003514000014
S2140013B03514000035140000211400002B14000022
S2140013C0FB681A697B681A6037E0FB68DA687B6836
S2140013D01A6032E0FB68DA68FB685B69B2FBF3F21E
S2140013E07B681A6029E0FB685A697B681A6024E00B
S2140013F0FB689A687B681A601FE0FB681B79C3F37A
S2140014000013DBB21A467B681A6016E0FB68DA69DE
S2140014107B681A6011E0FB681A6A7B681A600CE049
S214001420FB68DA6B7B681A6007E0FB681A6C7B68FF
S2140014301A6002E06A237B6100BF7B6918461C378E
S214001440BD465DF8047B704780B487B000AFF86097
S214001450B9607A603B60104B03F58053DA6C7B68AA
S2140014601A403B6822FA03F3FB74FB7C0F2B05D172
S214001470FB68BA6802FB03F37B6105E0FB7C074A66
S21400148032F813309B027B617B6918461C37BD46D9
S2140014905DF8047B704700BF007004401C5F0100CD
S2140014A080B485B000AF78600023FB6006E0094A90
S2140014B07B68934206D0FB680133FB60FB68002B19
S2140014C0F5D000E000BFFB6818461437BD465DF84F
S2140014D0047B70470000044080B584B000AF78609D
S2140014E039607868FFF7DCFFF860194B18460EF095
S2140014F09DFE3B681B785B0003F002023B68DB78CE
S2140015009B0003F004031A433B689B78DB0003F060
S21400151008031A433B685B781B0103F030031A4349
S2140015207B681A603B689B79DB0003F078023B68B7
S2140015301B799B0003F004031A433B685B7903F0B6
S21400154003031A437B685A6000BF1037BD4680BD50
S2140015500000381080B485B000AF78600023FB60D0
S21400156006E0094A7B68934206D0FB680133FB60BD
S214001570FB68002BF5D000E000BFFB681846143768
S214001580BD465DF8047B70470070034080B584B0AC
S21400159000AF786039607868FFF7DCFF1B4B1846B1
S2140015A00EF080FE7B681B6823F002027B681A60E0
S2140015B00023FB7312E0FB7B7A681B01134403F5E0
S2140015C084731A68FB7B22F0010279681B010B44C6
S2140015D003F584731A60FB7B0133FB73FB7B032BE1
S2140015E0E9D93B681B78002B06D07B681B6823F084
S2140015F001027B681A6005E07B681B6843F0010205
S2140016007B681A6000BF1037BD4680BD17003C10CF
S21400161080B483B000AF78600E4B03F580535A6DEC
S2140016207B681A600B4B03F580539A6D7B685A6093
S214001630084B03F58053DA6D7B689A60054B03F51B
S21400164080531A6E7B68DA6000BF0C37BD465DF8C3
S214001650047B70470070044080B485B000AF7860AB
S2140016600223BB600023FB6009E00B4AFB6852F8CC
S21400167023307A689A4207D0FB680133FB60FA6829
S214001680BB689A42F1D300E000BFFB6818461437E7
S214001690BD465DF8047B70473C5F010080B58AB0AC
S2140016A000AFF860B9607A6000237B62002387F899
S2140016B023300023FB61BB681B681B017A68B2FB02
S2140016C0F3F37B627B6A002B01D101237B6200234C
S2140016D0BB617B685A00BB681B68B2FBF3F27B6A8F
S2140016E05B01D31A7B617B685A007B6A59017B6970
S2140016F00B44B2FBF3F3BB61BB681B68BA699A4242
S21400170004D9BB681B68BA69D31A03E0BB681A68B9
S214001710BB69D31AFB61BB681B685B4AA2FB032349
S2140017205A0913465B001344FA699A4202D940F2FA
S214001730F533A5E0F868FFF78FFF0346534A52F8E3
S214001740233018460EF0FAFDFB68DB78DBB223F098
S2140017500C03DAB2FB68DA70FB681B78DBB25BB2AC
S21400176023F01F035AB27B6A1B0A5BB213435BB2B9
S214001770DAB2FB681A707B6ADAB2FB685A70FB68EA
S2140017809B7ADBB223F01F03DAB27B69DBB203F08D
S2140017901F03DBB21343DAB2FB689A72FB689B78CE
S2140017A0DBB223F0170387F82330BB685B7A9B0015
S2140017B0DBB203F00403DAB297F82330134387F85A
S2140017C02330BB681B79002B09D0BB681A7997F8C1
S2140017D023301343DBB243F0100387F82330FB6853
S2140017E097F823209A70BB685A79FB68DA74BB684E
S2140017F09A79FB685A75FB681B7CDBB263F077034B
S214001800DAB2FB681A74FB685B7CDBB263F03F03FA
S214001810DAB2FB685A74BB68DB79002B07D0FB682A
S2140018205B7BDBB243F00803DAB2FB685A73BB6833
S2140018301B7A002B07D0FB685B7BDBB243F001030F
S214001840DAB2FB685A73FB68DB7887F82330BB682C
S2140018509B7A002B05D097F8233043F0080387F8CF
S2140018602330BB68DB7A002B05D097F8233043F093
S214001870040387F82330FB6897F82320DA700023E8
S21400188018462837BD4680BD1F85EB51445F0100D2
S21400189080B483B000AF786039603A68174B134065
S2140018A03B607B681B78DAB23B68DBB21343DAB284
S2140018B07B681A707B68DB78DAB23B681B0ADBB29F
S2140018C01343DAB27B68DA707B689B79DAB23B68DE
S2140018D01B0CDBB21343DAB27B689A717B685B7CC5
S2140018E0DAB23B681B0EDBB21343DAB27B685A747B
S2140018F000BF0C37BD465DF8047B7047C0F00F078D
S21400190080B500AF054B1B68054A126811460548AE
S2140019109847BFF34F8F00BF00BF80BD5C0100201B
S2140019205401002000A0064080B500AF0B4BD3F852
S21400193088300A4A43F47003C2F88830084B4CF2E9
S2140019402052DA81064B4DF62812DA81044B4FF40A
S214001950E9721A800EF025FE00BF80BD00ED00E0A3
S2140019600020054080B400AF054B03F580531A46AF
S214001970044B536400BFBD465DF8047B704700BF50
S214001980007004400000071180B500AFAA2111487E
S2140019900EF00EFE0F480EF0B6FC00BF0D480EF01F
S2140019A016FE0346802BF9D1FFF7DCFF0123032147
S2140019B0094A18460EF022F9022301210022184691
S2140019C0FEF7C0FF0548FEF72BFF054B054A1A60D9
S2140019D000BF80BD00E00740E90501004C5F010044
S2140019E0080000200080B80580B590B000AFB7486A
S2140019F00EF021FEB6480EF01EFEB6480EF01BFE98
S214001A00B5480EF018FEB5480EF015FE002387F810
S214001A103C30002387F83D3007F13C031A4601218D
S214001A20AF480EF0D8FB002387F83830002387F83D
S214001A30393007F138031A460221A9480EF0CBFBCD
S214001A40A84B1B88BB8607F134031A461221A4480C
S214001A500EF0C1FB012387F83030002387F83130C1
S214001A6007F130031A4613219D480EF0B4FB0123FC
S214001A7087F82C30002387F82D3007F12C031A4600
S214001A80002199480EF0A7FB012387F82830002391
S214001A9087F8293007F128031A46012192480EF0EC
S214001AA09AFB012387F82430002387F8253007F1B6
S214001AB024031A4605218D480EF08DFB012387F876
S214001AC02030002387F8213007F120031A4606212C
S214001AD086480EF080FB01233B7700237B7707F1D7
S214001AE01C031A46042182480EF075FB01233B7640
S214001AF000237B7607F118031A4605217C480EF072
S214001B006AFB00233B7500237B7507F114031A4616
S214001B10062177480EF05FFB00233B7400237B749E
S214001B2007F110031A46072171480EF054FB0123F3
S214001B303B7300237B7307F10C031A4610216D4894
S214001B400EF049FB01233B7200237B7207F108036A
S214001B501A46112167480EF03EFB01233B71002315
S214001B607B713B1D1A46122162480EF034FB01239E
S214001B703B7000237B703B461A4613215D480EF0EF
S214001B802AFB012201215C480EF06FFD0122122182
S214001B9059480EF06AFD0122132157480EF065FDE4
S214001BA00122022154480EF060FD01220021534814
S214001BB00EF05BFD0122012150480EF056FD032277
S214001BC001214F480EF051FD4D4B5B6823F08073AA
S214001BD023F003034A4A43F0030353600122022121
S214001BE047480EF042FD0322032145480EF03DFD16
S214001BF0434BDB6823F0807323F00303404A43F033
S214001C000303D360032204213D480EF02EFD3C4B17
S214001C101B6923F0807323F00303394A43F0030360
S214001C2013610122052136480EF01FFD0122062110
S214001C3033480EF01AFD0122042132480EF015FD3D
S214001C40012205212F480EF010FD012206212D4805
S214001C500EF00BFD2B4B9B6923F0807323F00303E0
S214001C60284A43F0030393610122072125480EF01A
S214001C70FCFC244BDB6923F0807323F00303214A2A
S214001C8043F00303D361012210211F480EF0EDFC40
S214001C90012211211C480EF0E8FC012212211A48EC
S214001CA00EF0E3FC0122132117480EF0DEFC174B62
S214001CB003F580531B69154A23F0300302F5805262
S214001CC0136100BF4037BD4680BD00BF0900381015
S214001CD00A0038100B0038100C0038100D003810B1
S214001CE000F00F40545F010040F00F4080F00F40BE
S214001CF0C0F00F4000F10F400090044000A00440E8
S214001D0000B0044000C0044000D00440007004400E
S214001D1080B59CB000AF78607B685B681A46244943
S214001D2024480FF0CCFA07F10C0318460EF0C0FC5E
S214001D30034687F86F3097F86F30002B0AD107F10B
S214001D401C0107F10C035322184600F073F80346F3
S214001D5087F86F3097F86F30002B06D007F11C031A
S214001D60154A532118460FF0CDFB7B685A6807F1D9
S214001D701C03194611480FF0A2FA7B685B681946E7
S214001D800F480FF03CF800F0E1F801467B685B680E
S214001D901A460C480FF093FA7B685B6819460848A9
S214001DA00FF02DF8002318467037BD4680BD00BFE3
S214001DB0D85F0100EC5F0100F85F010000600100E1
S214001DC0847501000860010080B582B000AF7860BD
S214001DD07B685B681A460B490B480FF05EFA7B6817
S214001DE05B681A4609490A480FF057FA7B685B6831
S214001DF01A46084908480FF050FA002318460837D4
S214001E00BD4680BD14600100EC5F01003460010037
S214001E1058600100686001008460010080B400AF73
S214001E20024B034ADA6000BFFDE700BF00ED00E0AA
S214001E300400FA0580B586B000AFF860B9607A6035
S214001E40164A7968B8680FF05DFB00237B6118E0DE
S214001E50134A7968B8680FF07AFBFA687B6913440E
S214001E601B781A467968B8680FF016FD7B690E2B4A
S214001E7004D80C4A7968B8680FF069FB7B690133AF
S214001E807B617B690F2BE3D9074A7968B8680FF046
S214001E905EFB002318461837BD4680BD8C600100E7
S214001EA020700100906001009460010080B586B04B
S214001EB000AFF860B9607A600023FB751E49F868C9
S214001EC013F0CAFD0346002B06D01C49F86813F031
S214001ED0C3FD0346002B07D1BB6801221A70786841
S214001EE0FFF772FF034623E01549F86813F0B4FDC8
S214001EF00346002B06D01349F86813F0ADFD0346E1
S214001F00002B08D1BB6801221A707868FFF700FF23
S214001F100346FB750BE00C49F86813F09DFD03467D
S214001F20002B04D1BB6801221A70FFF777FFFB7DF8
S214001F3018461837BD4680BD8C67010098600100C2
S214001F409C670100AC600100C060010080B483B0F3
S214001F5000AF0D4B03F580535B6A1B0903F00303C8
S214001F607B607B68002B07DB7B68082B04DC074A5A
S214001F707B6852F8233000E0054B18460C37BD4608
S214001F805DF8047B704700BF00700440D4810100F8
S214001F90D460010080B483B000AF786039607B689D
S214001FA0054A1360044A3B68536000BF0C37BD46C1
S214001FB05DF8047B704700BF6001002080B588B0E4
S214001FC000AFF860B9607A600023FB777968F8683C
S214001FD000F038F80346002B01D01B2329E01748F1
S214001FE00EF07AF9B861BB69002B01D01B2320E004
S214001FF0012003F037F90EF099FB7861F9687B68E9
S214002000BA680F480DF0A0FFB861BB69002B02D07C
S2140020101B23FB7700E000BF78690EF098FB0748AB
S2140020200EF071F9B861BB69002B01D01B23FB775A
S214002030FB7F18462037BD4680BD00BF00E0074046
S2140020406801002080B586B000AF78603960002354
S214002050BB600023FB75396878680EF094FB034676
S214002060002B01D000234CE028480EF035F93861EB
S2140020703B69002B01D01B2343E0012003F0F2F85C
S21400208007F108031A4600212148FFF73DF9386199
S2140020903B69002B01D01B2333E0BB68B3F5006F10
S2140020A001D01B232DE00EF041FBF8607968194B38
S2140020B03A6817480DF012FF38613B69002B05D0CF
S2140020C01B23FB75F8680EF042FB10E0F8680EF074
S2140020D03EFB796801233A680D480DF06BFF3861C6
S2140020E03B69002B02D01B23FB7500E000BF0748AE
S2140020F00EF009F938613B69002B01D01B23FB75F4
S214002100FB7D18461837BD4680BD00BF00E007407F
S214002110680100206B66656B80B58EB000AF786096
S2140021207B685B681A462A492A480FF0C8F807F108
S2140021300803294A302118460FF0E4F907F108038E
S2140021404FF40062302118460FF0D5FB07F1080364
S214002150224A302118460FF0FAF97B685A6807F1D0
S214002160080319461E480FF0AAF807F108031D4A8F
S214002170302118460FF0C6F91B4B1A6807F1080302
S214002180302118460FF024FC07F10803174A3021C7
S21400219018460FF0DCF9144B5A6807F10803302193
S2140021A018460FF015FC07F108030C4A30211846B4
S2140021B00FF0CDF97B685A6807F1080319460C48FA
S2140021C00FF07DF8002318463837BD4680BD00BFA7
S2140021D0F0600100046101001061010084750100D7
S2140021E018610100206101006001002028610100E3
S2140021F03461010080B58CB004AFF860B9607A60D5
S2140022007249F86813F028FC0346002B06D0704984
S214002210F86813F021FC0346002B20D17B685B682E
S2140022201A466C496C480FF038F87B685B681A46AB
S2140022306A496B480FF031F87B685B681A46694953
S21400224069480FF02AF87B685B681A466749684851
S2140022500FF023F8BB6801221A700023B1E065492D
S214002260F86813F0F9FB0346002B06D06249F868BD
S21400227013F0F2FB0346002B07D1BB6801221A704D
S2140022807868FFF749FF03469BE00E225B49F86833
S21400229013F04DFC0346002B50D1BB6801221A7088
S2140022A0FB680E33FB6107F1180207F11C031146A9
S2140022B018460FF0F3FB0346002B37D107F1140244
S2140022C007F11C03114618460FF0E8FB0346002BE7
S2140022D024D17B69002B21DDBB691A467B69194630
S2140022E010460EF044FA0346002B0FD0B969BB69BE
S2140022F07A6913445A1E7B680293414B019310235C
S21400230000930423002001F08FFB59E07B689B6854
S21400231019463C480EF073FD1B2352E07B689B6811
S214002320194639480EF06BFD1B234AE07B689B6814
S214002330194636480EF063FD1B2342E00F2234494F
S214002340F86813F0F4FB0346002B39D1BB68012272
S2140023501A70FB680F33FB6107F1180207F11C03C4
S214002360114618460FF09AFB0346002B28D1BB698E
S214002370C3F30A03002B07D07B689B6819462548E1
S2140023800EF03DFD1B231CE007F1140207F11C03B1
S214002390114618460FF082FB0346002B08D1BB6996
S2140023A01A467B6919461046FFF74CFE034608E0BE
S2140023B07B689B68194618480EF021FD1B2300E039
S2140023C0002318462037BD4680BD00BF8C6701003D
S2140023D044610100546101000461010034600100A1
S2140023E0586001007461010088610100A06101006D
S2140023F0BC6101009C670100D4610100E46101003A
S21400240025080100F4610100106201002862010045
S21400241044620100546201008062010080B582B00F
S21400242000AF642200210B4813F006FB0948FEF7B4
S21400243095FD78607B68002B08D0074B40F2A722FA
S2140024400649052000F078FA00BFFDE700BF083710
S214002450BD4680BD680100209C620100B462010098
S21400246080B582B000AF786014220449786813F013
S214002470E1FA00BF0837BD4680BD00BFF481010009
S21400248080B586B000AFF860B9607A60FB687B61A3
S214002490BB6800221A70F8680EF08EFA0346002B0E
S2140024A005D0364A7968B8680FF051F804E0344A27
S2140024B07968B8680FF04BF8F8680EF032FB034600
S2140024C0002B05D02F4A7968B8680FF040F804E072
S2140024D02D4A7968B8680FF03AF82C4A7968B868D7
S2140024E00FF035F87B695B681A467968B8680FF0B4
S2140024F06FFA274A7968B8680FF029F87B699B68F5
S2140025001A467968B8680FF063FA224A7968B8689C
S2140025100FF01DF87B69DB681A467968B8680FF01B
S214002520A5FA1D4A7968B8680FF011F87B691B7C1C
S214002530022B12D0022B16DC002B02D0012B06D069
S21400254011E0164A7968B8680FF001F811E0144AED
S2140025507968B8680EF0FBFF0BE0124A7968B86835
S2140025600EF0F5FF05E0104A7968B8680EF0EFFF48
S21400257000BF00BF1837BD4680BD00BF1063010016
S214002580186301006C7001007C6301002063010089
S2140025902C630100386301004063010048630100BA
S2140025A04C630100506301005463010080B483B0A3
S2140025B000AF78607B681B68214A13607B68043331
S2140025C01B68204A13607B6808331B681E4A13602A
S2140025D07B680C331B681D4A13607B6810331B68CE
S2140025E01B4A13607B6814331B681A4A13607B68A7
S2140025F018331B68184A13607B681C331B68174A1D
S2140026001360174B1B68174A1360174B1B68174A53
S2140026101360174B1B68174A1360174B1B68174A43
S2140026201360174B1B68174A1360174B1B68174A33
S214002630136000BE00BF0C37BD465DF8047B7047D4
S214002640CC010020D0010020D4010020D8010020B9
S214002650DC010020E0010020E4010020E801002069
S21400266028ED00E0EC0100202CED00E0F001002059
S21400267030ED00E0F40100203CED00E0F801002021
S21400268034ED00E0FC01002038ED00E00002002000
S21400269080B582B000AF786014220449786813F0E1
S2140026A0C9F900BF0837BD4680BD00BF08820100DB
S2140026B080B500AF064B9B68002B06D0044B9B688A
S2140026C0034AD26801211046984700BF80BD00BF6C
S2140026D00402002080B500AF064B9B68002B06D096
S2140026E0044B9B68034AD26800211046984700BFF7
S2140026F080BD00BF0402002080B483B000AF7860C5
S2140027000B46FB70FB78054904337A6841F82320B2
S21400271000BF0C37BD465DF8047B704704020020FE
S21400272080B483B000AF7860044A7B68936000BFD3
S2140027300C37BD465DF8047B704700BF04020020DE
S21400274080B483B000AF0346FB71044AFB79137074
S21400275000BF0C37BD465DF8047B704704020020BE
S21400276080B483B000AF0346FB71044AFB7913754F
S21400277000BF0C37BD465DF8047B7047040200209E
S21400278080B483B000AF0346FB71044AFB795375EF
S21400279000BF0C37BD465DF8047B7047040200207E
S2140027A080B590B002AFF860B96011461A460B4685
S2140027B0FB711346BB7100233B7407F11000594BA5
S2140027C0FA68202101F0D6FC07F110032022202110
S2140027D018460EF0EFFE07F11003FA6CB96C1846B7
S2140027E00EF0B1FA00233B74BB79002B0DD04E4B94
S2140027F05B7D002B09D0FB794C4A52F8232007F169
S2140028001003202118460EF0A2FEFB79484A52F823
S214002810232007F1100006230093202320210FF029
S214002820AFFBBB79002B0AD03F4B5B7D002B06D05D
S21400283007F110033F4A202118460EF088FE07F1E4
S2140028401003FA6CB96C18460EF07DFA3B6C7B638D
S2140028507B6B1B782E2B0CD102E07B6B01337B63EA
S2140028607B6B1B78202BF8D07B6B1B782E2BF4D041
S21400287031E0386C13F034F90346013B3B6302E069
S2140028803B6B013B3B633B6B012B0DD93B6B013B29
S2140028903A6C13441B782F2B06D03B6B013B3A6CEB
S2140028A013441B785C2BEBD13B6B012B0FD13B6B9E
S2140028B0013B3A6C13441B782F2B08D03B6B013B33
S2140028C03A6C13441B785C2B01D000233B633A6CB4
S2140028D03B6B13447B63FA6CB96C786B0EF033FA7F
S2140028E000233B7407F110033A22202118460EF00D
S2140028F061FE7A6C07F11003202118460FF0B6F837
S21400290007F110032022202118460EF053FE07F18F
S2140029101003FA6CB96C18460EF015FA00BF38377B
S214002920BD4680BDB0630100040200203482010071
S2140029301C820100BC63010008B480B58DB004AFF2
S2140029400346B9607A60FB732E4B1B78FA7B9A427B
S21400295051D3FFF7ADFE07F1180207F11403114635
S21400296018460EF067FD274B1B7D83F00103DBB294
S214002970002B3DD00023FB6137E0224AFB6904337D
S21400298052F82330002B2DD01E4AFB69043352F830
S21400299023309B68FA7B07F1180107F114000393B4
S2140029A0194B02937B680193BB6800930123FFF7E2
S2140029B0F7FE07F130033B61124AFB69043352F815
S2140029C0233099683B69FA6A0F4802F0F7FD0D4A12
S2140029D0FB69043352F823309B681A460A490B48B1
S2140029E00EF0B1F9FB690133FB61FB69002BC4DD16
S2140029F0FFF770FE00E000BF2437BD46BDE880400C
S214002A0001B0704704020020270D0100A0690100F4
S214002A1080B582B000AF78600B46FB70FB78002B69
S214002A2007D0084B5B684FF0FF31184610F031FEB8
S214002A3004E0044B5B68184610F0F6FD00BF08374C
S214002A40BD4680BD0402002080B586B000AF786029
S214002A507B685B681A462C492C480EF030FC07F160
S214002A6008030122102118460EF0CDFD07F10803D9
S214002A70274A102118460EF06AFD7B685A6807F14F
S214002A800803194623480EF01AFC234B9B68002BBC
S214002A9001D0224900E022497B685B681A4621483B
S214002AA00EF00DFC1C4B1B781A461F4B53F82210D9
S214002AB07B685B681A461D480EF001FC7B685B6805
S214002AC019461B480EF09BF9134B1A787B685B6817
S214002AD0194610460EF0C2F97B685B681946154821
S214002AE00EF08DF90C4B5B7D002B01D0124900E0F7
S214002AF012497B685B681A4611480EF0E0FB00231B
S214002B0018461837BD4680BDC4630100D463010073
S214002B10DC630100E863010004020020F4630100A6
S214002B20FC630100046401001C8201000C640100C7
S214002B301464010018640100B47001007879010083
S214002B404064010080B582B000AF78607B685B6847
S214002B501A46124912480EF0A0FB7B685B681A46BC
S214002B60104911480EF099FB7B685B681A460F49BE
S214002B700F480EF092FB7B685B681A460D490E48BC
S214002B800EF08BFB7B685B681A460C490C480EF00F
S214002B9084FB002318460837BD4680BD4864010004
S214002BA0D4630100346001005860010064640100D1
S214002BB0B4640100C4640100E4640100F864010028
S214002BC00C65010080B588B000AFF860B9607A6027
S214002BD00023FB774449F86812F03EFF0346002BBB
S214002BE006D04249F86812F037FF0346002B07D19B
S214002BF0BB6801221A707868FFF7A4FF03466FE0EF
S214002C003B49F86812F028FF0346002B06D03949E6
S214002C10F86812F021FF0346002B08D1BB6801229A
S214002C201A707868FFF710FF0346FB7757E03249C3
S214002C30F86812F011FF0346002B06D1BB6801228C
S214002C401A700120FFF78CFD49E02C49F86812F055
S214002C5003FF0346002B06D1BB6801221A70002032
S214002C60FFF77EFD3BE02649F86812F0F5FE0346C6
S214002C70002B06D1BB6801221A700120FFF780FDE9
S214002C802DE02049F86812F0E7FE0346002B06D137
S214002C90BB6801221A700020FFF772FD1FE00D22AC
S214002CA01949F86812F043FF0346002B17D1BB689A
S214002CB001221A70FB680D33BB6107F1170207F19A
S214002CC01803114618460EF099FF0346002B06D14E
S214002CD0FB7D052B03D8FB7D1846FFF731FDFB7FF8
S214002CE018462037BD4680BD8C6701002065010070
S214002CF09C6701002C6501003C6501004C650100E5
S214002D0060650100706501008465010080B582B0D1
S214002D1000AF042010F070FC0346154A5360144BB5
S214002D205B68002B01D100BFFDE71248FFF7F8FCF7
S214002D300120FFF725FD00F06BFE03460C4A1361E9
S214002D400020FFF7FDFC00237B6008E07B68DBB219
S214002D5019460020FFF7D0FC7B6801337B607B6858
S214002D60002BF3DD00BF00BF0837BD4680BD00BFA7
S214002D7004020020112A000090B5B9B002AF7860B6
S214002D80002387F8D3307B685B681946AB480EF0A3
S214002D9036F800233B7307F10C000423009320232E
S214002DA0A74A20210FF0ECF87B685A6807F10C035D
S214002DB0114618460EF023F800233B7307F10C006B
S214002DC00723009320239F4A20210FF0D9F87B6821
S214002DD05A6807F10C03114618460EF010F8002347
S214002DE03B7307F10C000B2300932023964A202107
S214002DF00FF0C6F87B685A6807F10C0311461846B0
S214002E000DF0FDFF00233B7307F10C000523009334
S214002E1020238E4A20210FF0B3F87B685A6807F10A
S214002E200C03114618460DF0EAFF00233B7307F12A
S214002E300C00092300932023854A20210FF0A0F8D8
S214002E407B685A6807F10C03114618460DF0D7FF49
S214002E5000233B7307F10C000823009320237D4AD0
S214002E6020210FF08DF87B685A6807F10C03114695
S214002E7018460DF0C4FF00233B7307F10C000B232C
S214002E8000932023744A20210FF07AF87B685A6852
S214002E9007F10C03114618460DF0B1FF00233B73F3
S214002EA007F10C000B23009320236C4A20210FF01F
S214002EB067F87B685A6807F10C03114618460DF050
S214002EC09EFF00233B7307F10C000823009320238A
S214002ED0634A20210FF054F87B685A6807F10C0308
S214002EE0114618460DF08BFF00233B7307F10C00CC
S214002EF01523009320235B4A20210FF041F87B68BE
S214002F005A6807F10C03114618460DF078FF0023A7
S214002F103B7307F10C00082300932023524A20211C
S214002F200FF02EF87B685A6807F10C031146184616
S214002F300DF065FF7B685B6819464C480DF05FFF37
S214002F4005F0D4FCC7F8CC00D7F8CC30102B11D93C
S214002F5007F10C03464A202118460EF0D3FA7B6888
S214002F609A6807F10C03114618460DF048FF102327
S214002F70C7F8CC3007F188031021184606F018FC75
S214002F80C7F8CC000023C7F8D43081E2D7F8D43095
S214002F909B00D8333B4453F8503C002B00F0738220
S214002FA0D7F8D4309B00D8333B4453F8500C07F185
S214002FB02C010523012206F0B9F8D7F8D4309B007F
S214002FC0D8333B4453F8500C07F17C0407F18002D9
S214002FD007F1840107F17B030093234606F036FCD5
S214002FE0002387F858307A6B07F1580320211846DB
S214002FF00EF03CFD00233B7307F1580207F10C006E
S21400300004230093202320210EF0BAFF7B685A6821
S21400301007F10C03114618460DF0F1FE002387F861
S214003020583097F87B30002B26D107F15803114A09
S214003030202118460EF066FA34E000BF94650100C1
S214003040DC650100E0650100E8650100F06501004F
S214003050F8650100006601000866010014660100BC
S21400306020660100286601003466010084750100B0
S2140030703C6601007866010007F15803584A202193
S21400308018460EF03FFA97F87B2007F158032021E8
S21400309018460EF06FFB07F15803524A20211846D7
S2140030A00EF055FA00233B7307F1580207F10C00A7
S2140030B007230093202320210EF062FF7B685A68C6
S2140030C007F10C03114618460DF099FE07F1580358
S2140030D0454A202118460EF015FAD7F8D4309B0042
S2140030E0D8333B4453F8503C1A4607F15803202186
S2140030F018460EF06DFC00233B7307F1580207F1EB
S2140031000C000B230093202320210EF039FF7B6850
S2140031105A6807F10C03114618460DF070FE00239E
S2140031203B73D7F8D4309B00D8333B4453F8503C1D
S214003130184605F0E7FB024607F10C00052300934E
S214003140202320210EF01CFF7B685A6807F10C0331
S214003150114618460DF053FE97F83830052B51D817
S21400316001A252F823F000BF813100009131000027
S214003170B1310000A1310000C1310000D1310000A2
S21400318007F15803194A202118460EF0BBF941E012
S21400319007F15803164A202118460EF0B3F939E015
S2140031A007F15803134A202118460EF0ABF931E018
S2140031B007F15803104A202118460EF0A3F929E01B
S2140031C007F158030D4A202118460EF09BF921E01E
S2140031D007F158030A4A202118460EF093F919E021
S2140031E08066010088660100207001008C66010080
S2140031F0946601009C660100A8660100B0660100A6
S214003200B866010007F15803A84A202118460EF0B8
S21400321079F900BF00233B7307F1580207F10C0051
S21400322009230093202320210EF0AAFE7B685A680B
S21400323007F10C03114618460DF0E1FD002387F850
S214003240583007F158032822202118460EF0B2F90C
S2140032503A6C07F15803202118460EF007FC07F1D8
S21400326058032C22202118460EF0A4F9FA6B07F119
S2140032705803202118460EF0F9FB07F158032922BF
S214003280202118460EF096F900233B7307F15802EA
S21400329007F10C0008230093202320210EF070FE77
S2140032A07B685A6807F10C03114618460DF0A7FD17
S2140032B007F158037E4A202118460EF023F9D7F866
S2140032C084301A4607F15803202118460EF080FB7A
S2140032D000233B7307F1580207F10C000B23009301
S2140032E0202320210EF04CFE7B685A6807F10C0361
S2140032F0114618460DF083FD07F158036C4A20214D
S21400330018460EF0FFF8D7F880301A4607F1580333
S214003310202118460EF05CFB00233B7307F1580291
S21400332007F10C000B230093202320210EF028FE2B
S2140033307B685A6807F10C03114618460DF05FFDCE
S214003340D7F884301A46D7F88030D31A9BB20833A1
S214003350A7F8CA30002387F85830B7F8CA2007F114
S214003360580005230093202320210EF035FA07F19C
S2140033705803504A202118460EF0E9F800233B7304
S21400338007F1580207F10C000823009320232021A0
S2140033900EF0F6FD7B685A6807F10C0311461846D6
S2140033A00DF02DFD07F15803414A202118460EF076
S2140033B0A9F8FB6F1A4607F15803202118460EF0AD
S2140033C007FB07F158033C4A202118460EF0BFF8C9
S2140033D0D7F884301A46FB6FD31A9BB204339AB2DE
S2140033E007F1580005230093202320210EF0F4F95E
S2140033F007F15803314A202118460EF0A8F800239A
S2140034003B7307F1580207F10C00152300932023A5
S21400341020210EF0B5FD7B685A6807F10C031146B3
S21400342018460DF0ECFC002387F85830B7F85430F7
S2140034309B009AB207F15800052300932023202111
S2140034400EF0CAF907F158031A4A202118460EF062
S2140034507EF800233B7307F1580207F10C0008239F
S2140034600093202320210EF08BFD7B685A6807F11D
S2140034700C03114618460DF0C2FC7B685B681946C3
S2140034800F480DF0BCFCD7F8D4300133C7F8D43061
S214003490D7F8D420D7F8CC309A42FFF477AD97F817
S2140034A0D3301846DC37BD4690BD00BFC06601006D
S2140034B020700100CC66010014640100D066010093
S2140034C08475010080B586B000AF78607B685B6865
S2140034D01A46334933480DF0F2FE7B685B681A469D
S2140034E0314932480DF0EBFE7B685B681946304880
S2140034F00DF085FC7B685B681A462E492E480DF059
S214003500DEFE07F108034FF47A721021184601F028
S214003510F5FB7B685A6807F10803114618460DF05C
S2140035206EFC7B685B68194624480DF068FC07F162
S214003530080301221021184601F0E0FB7B685A6858
S21400354007F10803114618460DF059FC7B685B68C6
S21400355019461B480DF053FC7B685B681A461549F4
S21400356018480DF0ACFE04F06BFB024607F10803AA
S2140035701021184601F0FAFC7B685A6807F1080328
S214003580114618460DF03BFC7B685B6819460E48F2
S2140035900DF035FC002318461837BD4680BD00BF29
S2140035A0D4660100F4660100FC66010004670100B1
S2140035B0847501007869010010670100206701002A
S2140035C028670100306701003C67010080B582B0C3
S2140035D000AF78607B685B681A460B490B480DF0B5
S2140035E05CFE7B685B681A4609490A480DF055FE82
S2140035F07B685B681A46084908480DF04EFE0023B3
S21400360018460837BD4680BD48670100F4660100CD
S21400361034600100586001006467010078670100AB
S21400362080B584B000AFF860B9607A601F49F8686A
S21400363012F012FA0346002B06D01D49F86812F065
S2140036400BFA0346002B07D1BB6801221A70786874
S214003650FFF7BCFF034625E01649F86812F0FCF9B0
S2140036600346002B06D01449F86812F0F5F9034615
S214003670002B07D1BB6801221A707868FFF722FF7B
S21400368003460FE00D49F86812F0E6F90346002BF2
S21400369007D1BB6801221A707868FFF76DFB0346F6
S2140036A000E0002318461037BD4680BD8C67010039
S2140036B0846701009C67010094670100A46701000D
S2140036C080B500AF72B603480DF056FB04F074FCEC
S2140036D000BF80BD0000381080B584B000AF034640
S2140036E0FB710A23FB60FB1D01221946002004F033
S2140036F0E7F80346012B0AD1184B1B78002B27D07E
S214003700164B1B78013BDAB2144B1A7020E0134BB1
S2140037101B780133DAB2114B1A70104B1B78632BEF
S21400372003D90E4B64221A7015E005F0BDFD034662
S214003730022B03D1052004F077FE02E0052001F0FD
S21400374091FDFB68002B05DDFB68053BFB60CAE7C7
S21400375000BF00E000BF1037BD4680BD5E0C0020F5
S21400376080B584B000AFF860B9607A603249F86816
S21400377012F072F90346002B06D03049F86812F0B2
S2140037806BF90346002B3CD17B685B6819462C48D6
S2140037900DF035FB7B685B6819462A480DF02FFB59
S2140037A07B685B68194626480DF029FB7B685B68DA
S2140037B0194625480DF023FB7B685B6819462048B0
S2140037C00DF01DFB7B685B6819461E480DF017FB65
S2140037D07B685B6819461A480DF011FB7B685B68CE
S2140037E01A461A491A480DF058FD7B685B681A4657
S2140037F0184919480DF051FDBB6801221A700023C4
S21400380016E01649F86812F027F90346002B06D092
S2140038101349F86812F020F90346002B07D1BB685D
S21400382001221A70786800F035F8034600E000239D
S21400383018461037BD4680BD8C670100B86701008A
S21400384084750100C8670100086801001868010057
S2140038503868010034600100586001009C67010070
S2140038604468010080B582B000AF78607B685B6812
S214003870194606480DF0C3FA7B685B68194604488B
S2140038800DF0BDFA00BF0837BD4680BD8475010047
S2140038905468010080B58AB000AF78607B685B68CA
S2140038A01A462B492B480DF00AFD7B685B681A46C2
S2140038B029492A480DF003FD7B685B6819462848AD
S2140038C00DF09DFA7B685B68194626480DF097FA5E
S2140038D07B685B68194624480DF091FA00233B721A
S2140038E007F108032322202118460DF063FE07F196
S2140038F008031D4A202118460DF029FE7B685A68E9
S21400390007F10803194619480DF0D9FC7B685B6877
S2140039101A46174917480DF0D2FC07F10803402253
S2140039202021184601F022FB07F10803124A202145
S21400393018460DF00CFE7B685A6807F10803194616
S2140039400E480DF0BCFC002318462837BD4680BD47
S2140039505C6801003868010078680100846801002E
S214003960246701008C6801008475010098680100D6
S214003970FC630100A4680100B0680100C86801008B
S21400398080B582B000AF786039603B689B681946A6
S21400399012480DF034FA3B689B68194678680DF0BB
S2140039A02EFA3B689B6819460D480DF028FA3B68CE
S2140039B09B6819460B480DF022FA3B689B6819462F
S2140039C009480DF01CFA3B689B68194607480DF03D
S2140039D016FA00BF0837BD4680BD00BFD06801009C
S2140039E084750100F06801008C670100FC68010026
S2140039F080B483B000AF7860044A7B68136000230D
S214003A0018460C37BD465DF8047B70475C02002004
S214003A1080B400AF034B1B681846BD465DF8047BB8
S214003A20704700BF5C02002090B5A9B000AFF860F8
S214003A30B9607A60FB70002387F899307A68BB68B3
S214003A409A4208D2D7F8B8309B68194685480DF0D8
S214003A50D6F9022301E1BB68C7F89C30F6E07A6825
S214003A60D7F89C30D31A5A1C97F8B0309A4204D331
S214003A7097F8B03087F89A3009E07B68DAB2D7F862
S214003A809C30DBB2D31ADBB2013387F89A3097F852
S214003A909A3007F17802D7F8B440D7F89C10F86847
S214003AA0A0470346002B08D0D7F8B8309B681946C5
S214003AB06D480DF0A4F91B23CFE097F89930002B42
S214003AC008D0D7F8B8309B68194668480DF097F9C3
S214003AD01223C2E007F11003654A652118460DF06F
S214003AE011FDFB7807F11000D7F89C2065210EF039
S214003AF0B4FA07F110033A22652118460DF05AFD74
S214003B00D7F8B8305A6807F11003114618460DF07A
S214003B1076F900233B74002387F89B3022E097F861
S214003B209B30002B06D107F1100320226521184692
S214003B300DF040FD97F89B30A0333B4413F8282C3B
S214003B4007F11003652118460DF0A6FE07F11003D5
S214003B502022652118460DF02DFD97F89B30013385
S214003B6087F89B3097F89B2097F89A309A42D6D3DE
S214003B700BE007F110033F4A652118460DF0E7FCFD
S214003B8097F89B30013387F89B3097F89B2097F87F
S214003B90B0309A42EDD3D7F8B8305A6807F1100320
S214003BA0114618460DF02BF9D7F8B8305B68202080
S214003BB09847002387F89B3021E097F89B30A03386
S214003BC03B4413F8283C87F8983097F898301F2B1A
S214003BD00BD997F99830002B07DBD7F8B8305B681D
S214003BE097F898201046984704E0D7F8B8305B68F6
S214003BF02E20984797F89B30013387F89B3097F82C
S214003C009B2097F89A309A42D7D30BE007F110031F
S214003C10184A652118460DF09AFC97F89B30013338
S214003C2087F89B3097F89B2097F8B0309A42EDD3F0
S214003C30D7F8B8305B6819460F480DF0E0F897F8EB
S214003C40B030D7F89C201344C7F89C30D7F89C2097
S214003C507B689A427FF603AF00231846A437BD461A
S214003C6090BD00BF24690100646901007C69010001
S214003C7020700100A46901008475010080B586B03B
S214003C8000AF786039600023FB757B68002B14D08A
S214003C90EFF3108072B6B873184B1B683B61B87BA5
S214003CA080F310887968386900F030F80346FB73B3
S214003CB0FB7B002B01D00123FB753B68002B12D049
S214003CC0EFF3108072B6B8730D4B1A883B681A80F3
S214003CD00C4B1A783B689A700B4B1A783B68DA7074
S214003CE0B87B80F31088FB7D002B01D01B2300E0FF
S214003CF0002318461837BD4680BD00BF600200206E
S214003D005C0C0020600C00205F0C002080B483B0A8
S214003D1000AF786039607B68224AA2FB03235B0D04
S214003D20DAB23B681A707B681E4AA2FB0312520D79
S214003D301D4901FB02F29B1A7B607B681B4AA2FBB3
S214003D4003239B0BDAB23B685A707B68174AA2FBC8
S214003D500312920B4EF6602101FB02F29B1A7B6067
S214003D607B68134AA2FB03239B09DAB23B689A706E
S214003D707B680F4AA2FB031292094FF47A7101FB8B
S214003D8002F29B1A7B607B680A4AA2FB0323DB08CD
S214003D90DAB23B68DA70002318460C37BD465DF889
S214003DA0047B7047B17C219580EE360073B2E74500
S214003DB0D34D6210CDCCCCCC80B48BB000AF0346D4
S214003DC0FB800B467B7113463B71FB882B4AA2FB9C
S214003DD003235B099BB27B62FA88FB882749A1FB19
S214003DE003135B099BB219466FF0630301FB03F3F1
S214003DF013443B627B6A002B00DA03339B101A469F
S214003E007B6A5B00D31A013BFB613A6A13469B0050
S214003E101344002B00DA03339B10BB617B7901331C
S214003E201A2202FB03F3164A82FB03129210DB17D8
S214003E30D31A7B613B793B61FB69DAB2BB69DBB2C3
S214003E401344DAB27B69DBB21344DAB23B69DBB205
S214003E501344DAB20B4BA3FB0213D11A49080B44E6
S214003E6099080B46DB005B1AD31AFB73FB7B1846DC
S214003E702C37BD465DF8047B704700BF1F85EB51AD
S214003E80676666662549922490B58DB000AFF860E7
S214003E907A603B600B46FB72684B07F114040FCB4D
S214003EA007C4237097F90B304FF4616202FB03F3EB
S214003EB0FA681344FB60B7F84030FB84FB8C184666
S214003EC001F0C8F80346002B02D05D4BFB6215E0FC
S214003ED05C4BFB6212E0FA68FB6AD31AFB60FB8C51
S214003EE00133FB84FB8C184601F0B4F80346002B24
S214003EF002D0534BFB6201E0524BFB62FA68FB6A4E
S214003F009A42E8DAFB8C184601F0A4F80346002B28
S214003F1002D01D23BB7501E01C23BB75012387F867
S214003F2025307B7D1A46484B02FB03F3BB6213E049
S214003F30FA68BB6AD31AFB6097F82530013387F816
S214003F40253097F8253030333B4413F81C3C1A468E
S214003F503D4B02FB03F3BB62FA68BB6A9A42E7DAA0
S214003F60FB683A4A82FB03121A441214DB17D31A70
S214003F70DBB2013387F82430FB68344A82FB031235
S214003F801A441114DA178A1A2F4901FB02F29B1AF7
S214003F90FB60FB682E4A82FB03121A44D212DB1720
S214003FA0D31A87F82330FB68294A82FB03121A4487
S214003FB0D112DA178A1A4FF4616101FB02F29B1ADA
S214003FC0FB60FB68234A82FB03121A445211DB177C
S214003FD0D31A87F82230FA681E4B83FB0213134469
S214003FE05911D317C91A0B461B015B1A9B00D31A2B
S214003FF0FB603B68002B0AD03B6897F82420DA70F9
S2140040003B6897F825209A703B68FA8C1A807B6884
S214004010002B0ED07B6897F823201A707B6897F8E1
S21400402022205A70FB68DAB27B689A707B6800229E
S214004030DA7000BF3437BD4690BD00BF6082010015
S2140040400085E2018033E1018051010007452EC260
S214004050C5B3A2918988888890B58BB000AFF86008
S214004060B96011461A460B46FB711346BB803E4BA1
S21400407007F114040FCB07C42370FB689B787B62A0
S214004080FB685B781A4613461B019B1A9B001A4670
S2140040907B6A13447B62FB681B781A464FF46163A5
S2140040A002FB03F37A6A13447B6297F907304FF4F6
S2140040B0616202FB03F37A6A13447B62BB68DB78B7
S2140040C0013B2A4A02FB03F37A6A13447B62BB680D
S2140040D01B88184600F0BEFF0346002B02D01D23A7
S2140040E0BB7501E01C23BB75BB689B78013B87F85A
S2140040F0213011E097F8213028333B4413F8143C64
S2140041001A461A4B02FB03F37A6A13447B6297F84B
S2140041102130013B87F8213097F82130002BE9D178
S214004120BB681B88013B7B8414E07B8C184600F040
S21400413091FF0346002B06D07B6A03F1F17303F56B
S21400414005437B6203E07A6A094B13447B627B8CEF
S214004150013B7B847A8CBB889A42E6D27B6A1846FF
S2140041602C37BD4690BD00BF608201008051010023
S2140041708033E10180B586B002AFF860B9607A603E
S2140041803B607B681B781AB2022300933023B96821
S214004190F8680DF042FB234938680DF077FE0346B9
S2140041A0002B3ADB3A22B968F8680DF003FA7B6810
S2140041B05B781AB2022300933023B968F8680DF0D2
S2140041C02CFB194938680DF061FE0346002B24DBF2
S2140041D03A22B968F8680DF0EDF97B689B781AB258
S2140041E0022300933023B968F8680DF016FB0F49D8
S2140041F038680DF04BFE0346002B0EDB2C22B96808
S214004200F8680DF0D7F97B68DB781AB202230093C2
S2140042103023B968F8680DF000FB00231846103705
S214004220BD4680BDA8690100AC690100B863010005
S21400423080B485B000AF78600023FB737B68002BEA
S21400424001D101237B60EFF3108072B6B87302E0F1
S214004250FB7B0133FB73FB7B002B07D1FB7B114AF7
S214004260D35C83F00103DBB2002BF1D1FB7B002B88
S21400427008D1FB7B0B4A0021D154FB7B0A497A68A4
S21400428041F82320B87B80F31088FB7B012B01D1FB
S214004290FF2300E0FB7B18461437BD465DF8047B21
S2140042A0704700BF680200206402002080B485B01A
S2140042B000AF0346FB71FB79FF2B10D0EFF31080A5
S2140042C072B6F873FB79094A002142F82310FB798D
S2140042D0074A0121D154F87B80F3108800E000BF24
S2140042E01437BD465DF8047B704700BF64020020AB
S2140042F06802002080B485B000AF0346FB71FB79EE
S214004300FF2B01D1012310E0EFF3108072B6B873D3
S214004310FB79094A52F82330002B0CBF01230023F7
S214004320FB73B87B80F31088FB7B18461437BD46BA
S2140043305DF8047B704700BF6402002080B483B041
S21400434000AFEFF3108072B6B8710023FB7110E077
S214004350FB790E4A52F82330002B07D0FB790B4A24
S21400436052F82320013A094941F82320FB7901330A
S214004370FB71FB79002BEBD0B87980F3108800BF77
S2140043800C37BD465DF8047B704700BF6402002012
S21400439080B483B000AF0023FB710BE0FB790A4AC0
S2140043A0002142F82310FB79084A0121D154FB79F9
S2140043B00133FB71FB79002BF0D000BF00BF0C3738
S2140043C0BD465DF8047B704764020020680200204A
S2140043D080B483B000AF0346FB7197F90730002B1B
S2140043E00BDBFB7903F01F02074997F907305B09DF
S2140043F0012000FA02F241F8232000BF0C37BD4628
S2140044005DF8047B704700BF00E100E080B483B035
S21400441000AF03463960FB7197F90730002B0ADBC3
S2140044203B68DAB20C4997F907301201D2B20B4456
S21400443083F800230AE03B68DAB20849FB7903F008
S2140044400F03043B1201D2B20B441A7600BF0C379E
S214004450BD465DF8047B704700E100E000ED00E03B
S21400446080B500AF034B1B68002118460EF0ACFF6A
S21400447000BF80BD7002002080B582B000AF084B40
S2140044801B68F91D002218460FF0C4FB0346012BDB
S21400449001D00023FB71FB7918460837BD4680BD66
S2140044A07002002080B582B000AF786039603A684C
S2140044B0796803480BF0EFFF00BF0837BD4680BDA4
S2140044C000B0064080B582B000AF0346FB71104BCB
S2140044D01B685A1C0E490A600E49FA79CA54FB79C1
S2140044E00A2B03D00A4B1B683F2B0DD1084B1B68C9
S2140044F0084A0021D15407480CF0F4FF054B00226F
S2140045001A70034B00221A6000BF0837BD4680BDF4
S214004510740200207802002080B584B000AF786076
S2140045200A4B1B6807F10F01002218460FF072FBBA
S2140045300346012B03D1FA7B7B681A7002E07B6886
S21400454000221A7000BF1037BD4680BD6C020020E6
S21400455080B500AF064B1B6818460FF021FD0346DA
S214004560002B14BF01230023DBB2184680BD00BF1A
S2140045706C02002080B586B000AF0023BB6000232D
S2140045807B6033480BF01DFF38613B6903F08063A6
S214004590002B01D00023FB753B6903F02803002B9A
S2140045A03DD02B4B9B7DFB7536E029480CF08DFFEC
S2140045B00346FB73FB7B002B2BD0264B1B780A2B6A
S2140045C005D1FB7B402B02D1234B01221A70224BD4
S2140045D01B78002B08D0214B186807F1080207F15A
S2140045E00F0100230FF090F9FA7B1A4B1A701A4B42
S2140045F01B78002B05D0FB7B0A2B02D1164B002222
S2140046001A70174B18683A1D07F10F0100230FF0B8
S2140046107BF9FB7D013BFB75FB7D002BC5D13B6920
S21400462043F0806343F008033B61396908480BF0A8
S214004630ECFEBB68002B02D17B68002B01D003F098
S21400464087FDBFF34F8F00BF00BF1837BD4680BD44
S21400465000B00640F8000020610C00207002002028
S2140046606C02002080B584B000AF3B4618460BF0C5
S2140046707FFE4FF4E1333B6000233B710123FB7266
S2140046800123BB720123FB7100233B720D20FCF754
S21400469037F802463B4619461948FCF7FFFFF86014
S2140046A0FB68002B08D0174B4FF4AF721649052055
S2140046B0FEF742F900BFFDE7114B5B7BDBB2104A09
S2140046C043F00403DBB253730D4B5B7BDBB20C4A47
S2140046D043F00203DBB25373012109480BF003FFDA
S2140046E00A490748FDF7D4F805212120FFF78EFE7A
S2140046F021200CF0D4FE00BF1037BD4680BD00BFA1
S21400470000B00640B0690100CC6901000020080432
S21400471080B582B000AF786039607B6803F08003B4
S214004720002B06D03B685B681A46694969480CF05E
S214004730C6FD7B6803F04003002B06D03B685B6831
S2140047401A46654963480CF0BAFD7B6803F02003FF
S214004750002B06D03B685B681A4660495D480CF043
S214004760AEFD7B6803F01003002B06D03B685B6849
S2140047701A465B4957480CF0A2FD7B6803F0080315
S214004780002B06D03B685B681A46564951480CF029
S21400479096FD7B6803F00403002B06D03B685B683D
S2140047A01A4651494B480CF08AFD7B6803F0020319
S2140047B0002B06D03B685B681A464C4945480CF00F
S2140047C07EFD7B6803F00103002B06D03B685B6828
S2140047D01A4647493F480CF072FD7B6803F40043D5
S2140047E0002B06D03B685B681A46424939480CF0F5
S2140047F066FD7B6803F48043002B06D03B685B684D
S2140048001A463D4933480CF05AFD7B6803F4807322
S214004810002B06D03B685B681A4638492D480CF0DA
S2140048204EFD7B6803F40003002B06D03B685B68F4
S2140048301A46334927480CF042FD7B6803F4800390
S214004840002B06D03B685B681A462E4921480CF0C0
S21400485036FD7B68002B06DA3B685B681A462A49F9
S2140048601C480CF02CFD7B6803F08043002B06D020
S2140048703B685B681A46254916480CF020FD7B68A5
S21400488003F00073002B06D03B685B681A4620498D
S21400489010480CF014FD7B6803F08063002B06D0F4
S2140048A03B685B681A461B490A480CF008FD7B68A3
S2140048B003F08063002B06D03B685B681A461549F8
S2140048C004480CF0FCFC00BF0837BD4680BD00BFA6
S2140048D02C6A010078690100486A01006C6A0100D0
S2140048E0886A0100A06A0100B86A0100D06A010067
S2140048F0EC6A0100046B01001C6B0100386B0100C0
S214004900506B0100746B0100986B0100B06B0100E6
S214004910C86B0100E46B010080B59CB000AF786006
S2140049207B685B681A463C493C480CF0C8FC7B68D0
S2140049305B681A463A493B480CF0C1FC3A480BF013
S21400494040FDF86607F10C03384A602118460CF063
S214004950D9FD07F10C03FA6E602118460DF038F801
S21400496007F10C03324A602118460CF0F0FD7B6814
S2140049705A6807F10C0319462E480CF0A0FC79681B
S214004980F86EFFF7C5FE07F10C034FF4E132602125
S214004990184600F0EBFA07F10C03254A602118468A
S2140049A00CF0D5FD7B685A6807F10C0319462248BF
S2140049B00CF085FC07F10C03204A602118460CF029
S2140049C0A1FD07F10C034FF44062602118460DF07C
S2140049D04DF807F10C031A4A602118460CF0B7FD93
S2140049E007F10C036022602118460DF03FF807F12E
S2140049F00C030F4A602118460CF0A9FD7B685A6824
S214004A0007F10C0319460F480CF059FC0023184612
S214004A107037BD4680BD00BF006C0100186C0100F9
S214004A20F4630100246C010000B006402070010011
S214004A3084750100306C0100386C0100406C010088
S214004A40486C0100586C010080B582B000AF7860F9
S214004A507B685B681A460B490B480CF01EFC7B68AB
S214004A605B681A4609490A480CF017FC7B685B68C5
S214004A701A46084908480CF010FC00231846083768
S214004A80BD4680BD646C0100186C010034600100F6
S214004A9058600100806C0100986C010080B588B0F9
S214004AA000AFF860B9607A603349F86810F0D4FF58
S214004AB00346002B06D03149F86810F0CDFF0346B8
S214004AC0002B07D1BB6801221A707868FFF7BCFF7D
S214004AD003464CE02A49F86810F0BEFF0346002B58
S214004AE006D02849F86810F0B7FF0346002B07D118
S214004AF0BB6801221A707868FFF70EFF034636E09F
S214004B0011222149F86811F012F80346002B2DD126
S214004B10BB6801221A70FB6811337B6107F118022B
S214004B2007F11403114618460CF0B8FF0346002B95
S214004B301AD1BB69194615480BF067FCF8617B680B
S214004B405B68194612480CF05AF9FA697B685B688C
S214004B50194610460CF06CF97B685B6819460D48E0
S214004B600CF04DF9002302E01B2300E0002318465A
S214004B702037BD4680BD00BF8C670100A86C0100D1
S214004B809C670100B86C0100CC6C010000B00640C8
S214004B90E06C01008475010080B500AFFFF762FD90
S214004BA0002201214FF440600EF097FC0346134AA2
S214004BB01360124B1B68002B08D1114B40F2952254
S214004BC010490520FDF7B8FE00BFFDE700220121D1
S214004BD060200EF082FC03460B4A13600A4B1B68EB
S214004BE0002B08D1094B4FF4277206490520FDF724
S214004BF0A3FE00BFFDE700BF80BD00BF6C02002023
S214004C00EC6C0100CC690100700200200C6D010004
S214004C1080B489B000AFF860B9601346FB80FB68CB
S214004C20BB610023FB77BB68013BBB60FB88002BA6
S214004C302CD1BB68002B29D0FB7F5A1CFA771A466A
S214004C40BB69134430221A70BB68013BBB601DE091
S214004C50FA88294BA3FB0213D9080B469B000B448A
S214004C605B00D31A9BB2DAB2FB7F591CF977194660
S214004C70BB690B443032D2B21A70BB68013BBB60D2
S214004C80FB881D4AA2FB0323DB08FB80FB88002B66
S214004C9002D0BB68002BDBD10023BB771AE0BB7FBA
S214004CA0BA6913441B78FB75FA7FBB7FD31A013BA6
S214004CB0BA691A44BB7FB9690B4412781A70FA7F36
S214004CC0BB7FD31A013BBA691344FA7D1A70BB7FC7
S214004CD00133BB77FB7F5B08DBB2BA7F9A42DED339
S214004CE0FB7FBA69134400221A7000BF2437BD4602
S214004CF05DF8047B704700BFCDCCCCCC80B588B0C7
S214004D0000AFF860B9601346FB80FB68BB61002308
S214004D10FB77FB88DB0BDBB2FB75B7F9063013F5C8
S214004D20004F05D1434AB968F8680CF0EBFB7EE00B
S214004D30BB68013BBB60FB7D002B03D0FB885B425E
S214004D409BB2FB80B7F90630002B32D1BB68002B34
S214004D502FD0FB7F5A1CFA771A46BB6913443022C1
S214004D601A70BB68013BBB6023E0B7F90620324BE4
S214004D7083FB02139910D317C91A0B469B000B44EA
S214004D805B00D31A1BB2DAB2FB7F591CF9771946BF
S214004D90BB690B443032D2B21A70BB68013BBB60B1
S214004DA0B7F90630244A82FB03129210DB17D31A97
S214004DB0FB80B7F90630002B02DDBB68002BD4D190
S214004DC0FB7D002B0AD0BB68002B07D0FB7F5A1C4C
S214004DD0FA771A46BB6913442D221A700023BB7754
S214004DE01AE0BB7FBA6913441B78BB75FA7FBB7F9A
S214004DF0D31A013BBA691A44BB7FB9690B441278CF
S214004E001A70FA7FBB7FD31A013BBA691344BA7D86
S214004E101A70BB7F0133BB77FB7F5B08DBB2BA7FC0
S214004E209A42DED3FB7FBA69134400221A702037F9
S214004E30BD4680BD346D01006766666680B588B085
S214004E4000AFF860B9607A60FB68BB610023FB774F
S214004E507B68DB0FDBB2FB757B68B3F1004F05D1D7
S214004E60404AB968F8680CF04DFB78E0BB68013B37
S214004E70BB60FB7D002B02D07B685B427B607B685F
S214004E80002B2FD1BB68002B2CD0FB7F5A1CFA7747
S214004E901A46BB69134430221A70BB68013BBB60DC
S214004EA020E07A68304B83FB02139910D317C91A97
S214004EB00B469B000B445B00D11ACAB2FB7F591C01
S214004EC0F9771946BB690B443032D2B21A70BB6808
S214004ED0013BBB607B68244A82FB03129210DB17FF
S214004EE0D31A7B607B68002B02DDBB68002BD8D111
S214004EF0FB7D002B0AD0BB68002B07D0FB7F5A1C1B
S214004F00FA771A46BB6913442D221A700023BB7722
S214004F101AE0BB7FBA6913441B78BB75FA7FBB7F68
S214004F20D31A013BBA691A44BB7FB9690B4412789D
S214004F301A70FA7FBB7FD31A013BBA691344BA7D55
S214004F401A70BB7F0133BB77FB7F5B08DBB2BA7F8F
S214004F509A42DED3FB7FBA69134400221A702037C8
S214004F60BD4680BD3C6D01006766666680B489B04C
S214004F7000AFF860B9607A60FB68BB610023FB771E
S214004F80BB68013BBB607B68002B2BD1BB68002B4A
S214004F9028D0FB7F5A1CFA771A46BB691344302286
S214004FA01A70BB68013BBB601CE07968284BA3FB0A
S214004FB00123DA0813469B0013445B00CA1AD2B2D8
S214004FC0FB7F591CF9771946BB690B443032D2B2C5
S214004FD01A70BB68013BBB607B681D4AA2FB0323BB
S214004FE0DB087B607B68002B02D0BB68002BDCD123
S214004FF00023BB771AE0BB7FBA6913441B78FB75A6
S214005000FA7FBB7FD31A013BBA691A44BB7FB969E2
S2140050100B4412781A70FA7FBB7FD31A013BBA6929
S2140050201344FA7D1A70BB7F0133BB77FB7F5B08A6
S214005030DBB2BA7F9A42DED3FB7FBA691344002202
S2140050401A7000BF2437BD465DF8047B704700BF6A
S214005050CDCCCCCC80B483B000AF0346FB80FB88BD
S21400506003F003039BB2002B0BD1FB88114AA2FB73
S21400507003125209642101FB02F29B1A9BB2002B19
S2140050800CD1FB880B4AA2FB0312D2094FF4C8715D
S21400509001FB02F29B1A9BB2002B01D1012300E018
S2140050A0002303F00103DBB218460C37BD465DF85B
S2140050B0047B70471F85EB5180B588B000AFF86061
S2140050C0B9607A603B600023FB610023BB6100236C
S2140050D0FB750023BB75FB68002B05D0BB68002B57
S2140050E004D07B68002B01D11B2380E0FB681B7873
S2140050F0222B07D1FB680133FB60BB690133BB6120
S2140051000123FB75FB6A002B01D13B4BFB62FB7D49
S214005110002B14D0FB681B78222B09D1FB680133C7
S214005120FB60BB690133BB61FB681B78222B47D150
S214005130FB681B78002B27D10123BB7541E0FB6879
S2140051401B78202B3DD0FB681B78092B39D0FB68D9
S2140051501B780A2B35D0FB681B780B2B31D0FB68ED
S2140051601B780C2B2DD0FB681B780D2B29D0FB68E9
S2140051701B78002B25D0FB681B781946F86A10F0C0
S2140051805FFC0346002B1CD1BB68002B11D0FB69CB
S21400519001337A689A4207D9FB681A78BB681A7096
S2140051A0BB680133BB6004E0BB6800221A700023B2
S2140051B0BB60FB690133FB61FB680133FB60A6E75C
S2140051C000BFBB68002B02D0BB6800221A703B6889
S2140051D0002B04D0FA69BB691A443B681A60BB6AA4
S2140051E0002B03D0FB695A1CBB6A1A60BB7D1846AD
S2140051F02037BD4680BD00BF7869010080B485B009
S21400520000AF78607B68FB60084B1B68FA68134445
S214005210FB6000BF054B1B68FA689A42FAD800BFCD
S21400522000BF1437BD465DF8047B7047041000E0ED
S21400523080B485B000AF78607B68FB60084B1B6865
S214005240FA681344FB6000BF054B1B68FA689A4275
S214005250FAD800BF00BF1437BD465DF8047B704720
S214005260041000E080B584B000AF78600A4B1B687D
S2140052700A4AA2FB03239B09FB6005E0F868FFF7D8
S214005280D7FF7B68013B7B607B68002BF6D100BFB5
S21400529000BF1037BD4680BD08000020D34D621009
S2140052A080B400AF094B1B68084A43F08073136054
S2140052B0074B00221A60074B1B68064A43F001039F
S2140052C0136000BFBD465DF8047B7047FCED00E050
S2140052D0041000E0001000E080B582B000AF7860F7
S2140052E0A4220449786810F0A5FB00BF0837BD4625
S2140052F080BD00BF8082010080B584B000AF7860BA
S2140053007B68FB60FB681B78002B31D0FB685B6812
S21400531018460BF0A1FB0120FFF7A4FFFB685B68B3
S21400532018460BF0AEFB144B1A6813469B0013444A
S2140053305B001A46114B9A421AD90F4B1A6813464D
S2140053409B0013445B001A460D4B9A4202D20CF0A7
S21400535072FF0DE0084B1A6813469B0013445B006F
S2140053601A46084BA3FB02239B0C1846FFF746FF82
S21400537000BF1037BD4680BD080000203F420F002A
S214005380C0D8A70083DE1B4380B584B000AF78602A
S2140053900B46FB707B68FB60FB78FA6801331B01E9
S2140053A013441868FB78FA681B0113440D331B7806
S2140053B0002B14BF01230023DBB283F00103DBB212
S2140053C003F00103DBB219460BF085FBFB78FA68A5
S2140053D01B0113440C3301221A70144B1A6813462F
S2140053E09B0013445B001A46114B9A421AD90F4B86
S2140053F01A6813469B0013445B001A460D4B9A42EC
S21400540002D20CF018FF0DE0084B1A6813469B00FA
S21400541013445B001A46084BA3FB02239B0C18465A
S214005420FFF7ECFE00BF1037BD4680BD0800002029
S2140054303F420F00C0D8A70083DE1B4380B584B070
S21400544000AF78600B46FB707B68FB60FB78FA6801
S21400545001331B0113441868FB78FA681B011344D8
S2140054600D331B7819460BF036FBFB78FA681B01E8
S21400547013440C3300221A70144B1A6813469B0010
S21400548013445B001A46124B9A421AD90F4B1A68FD
S21400549013469B0013445B001A460E4B9A4202D2F8
S2140054A00CF0C9FE0DE0094B1A6813469B00134426
S2140054B05B001A46084BA3FB02239B0C1846FFF71B
S2140054C09DFE00BF1037BD4680BD00BF080000200F
S2140054D03F420F00C0D8A70083DE1B4380B485B0D0
S2140054E000AF786053E07B6893F85730102B1ED0DF
S2140054F0102B28DC022B02D0082B0CD023E07B6874
S2140055001B68DBB203F00103FB737B681B685A0859
S2140055107B681A602DE07B681B68DBB203F007032C
S214005520FB737B681B68DA087B681A6021E07B687F
S2140055301B68DBB203F00F03FB737B681B681A095A
S2140055407B681A6015E07B6819681A4BA3FB012379
S214005550DA0813469B0013445B00CA1A1346FB7313
S2140055607B681B68134AA2FB0323DA087B681A6071
S21400557000BFFA7B7B689B68581E796888600E4976
S2140055808A5C1A707B68DB695A1C7B68DA617B6808
S2140055901B6A591E7A681162002BA4DC7B681B68A4
S2140055A0002BA0D100BF00BF1437BD465DF8047BBA
S2140055B0704700BFCDCCCCCC3C8301002DE9B04376
S2140055C0A0B002AFF860B9607A603B600023BB63AE
S2140055D0002387F86930DCE37B685A1C7A601B7806
S2140055E087F8733097F873301F2B03D997F873300A
S2140055F07A2B02D900237B6707E097F87330203BAD
S214005600C44AD35C03F00F037B677B6FDB0097F81D
S21400561069201344BF4AD35C1B09DBB287F86930A4
S21400562097F86930013B062B10D801A252F823F0F8
S21400563061560000115700007D560000915D000085
S214005640A9560000DD5600009957000097F8732011
S214005650FB681146B8689847BB6B0133BB6398E399
S21400566000233B633B6B7B637B6B3B643B6CFB6267
S214005670FB6AFB63202387F868308AE397F8733069
S2140056802A2B05D13B681A1D3A601B687B6380E3B2
S2140056907A6B13469B0013445B001A4697F87330E8
S2140056A0303B13447B6374E3FB6B43F00403FB6300
S2140056B097F873302A2B05D13B681A1D3A601B6891
S2140056C03B6366E33A6B13469B0013445B001A4643
S2140056D097F87330303B13443B635AE397F87330C4
S2140056E06C2B0AD07A2B11D1FB6B23F00303FB63E0
S2140056F0FB6B43F00203FB6309E0FB6B23F0030341
S214005700FB63FB6B43F00103FB6300E000BF40E379
S21400571097F87330203B102B3CD801A252F823F0A8
S21400572077570000955700009557000081570000F6
S21400573095570000955700009557000095570000B4
S2140057409557000095570000955700008B570000AE
S21400575095570000655700009557000095570000C4
S2140057606F570000FB6B43F00803FB6313E0302326
S21400577087F868300FE0FB6B43F01003FB630AE02A
S214005780FB6B43F02003FB6305E0FB6B43F0400339
S214005790FB6300E000BFFCE297F87330423B362B19
S2140057A070D801A252F823F0635B0000B1590000E4
S2140057B08558000085580000855800008558000070
S2140057C08558000085580000855800008558000060
S2140057D08558000085580000855800008558000050
S2140057E08B58000085580000855800006D59000051
S2140057F08558000085580000855800008558000030
S214005800195900008558000085580000855800008A
S214005810855800008558000085580000855800000F
S2140058208558000085580000C3580000B95900008C
S2140058304D59000085580000D559000085580000D5
S214005840855800004D590000855800008558000016
S214005850855800008558000097590000EF58000052
S21400586093580000855800008558000075590000C0
S214005870855800005D5900008558000085580000D6
S214005880215900000023FB6284E1FB6B43F0800398
S214005890FB63FB6B23F00303FB63FB6B43F40073B8
S2140058A043F00203FB63102387F8673008233B634B
S2140058B02D2387F844303E2387F8453002233B6487
S2140058C068E1FB6B43F40073FB63022387F86730E1
