S01500004B30325F3132385F436C6F636B322E733139BB
S214000000002000206D0100006D0200009BE700004C
S2140000107D020000850200008D0200000000000046
S214000020000000000000000000000000F96B000067
S2140000309D02000000000000196C0000AD020000E8
S21400004045D4000051D400005DD4000069D40000FF
S21400005075D4000081D400008DD4000099D400002F
S214000060A5D40000B1D40000BDD40000C9D400005F
S214000070D5D40000E1D40000EDD40000F9D400008F
S21400008005D5000011D500001DD5000029D50000BB
S21400009035D5000041D500004DD5000059D50000EB
S2140000A065D5000071D500007DD5000089D500001B
S2140000B095D50000A1D50000ADD50000B9D500004B
S2140000C0C5D50000E5380000D1D50000DDD500001C
S2140000D0E9D50000F5D5000001D600000DD60000D9
S2140000E019D6000025D60000D18D000031D60000BC
S2140000F03DD6000049D6000055D6000061D6000067
S21400010025CC00006DD6000079D6000085D600000C
S21400011091D600009DD60000A9D60000B5D60000F6
S214000120C1D60000CDD600005D6B0000D9D6000019
S214000130E5D60000F1D60000FDD6000009D7000085
S21400014015D70000C853010000000020180000006A
S214000150C853010000E0FF1F000000001800002048
S214000160A40C000000E0FF1F0000000080B584B073
S21400017000AF72B601F0D8FB194BFB6013E0FB68CA
S2140001801A1DFA601B683B60FB681A1DFA601B6844
S214000190BB60FB681A1DFA601B687B607A68B968EA
S2140001A0386800F023F8FB680E4A9342E7D30DE068
S2140001B0FB681A1DFA601B68BB60FB681A1DFA60B4
S2140001C01B687B607968B86800F033F8FB68064AFD
S2140001D09342EDD362B612F0C2FF00BFFDE700BF48
S2140001E0440100005C0100006C01000080B489B08E
S2140001F000AFF860B9607A60BB68FB61FB68BB6102
S21400020000237B610AE0BA69131DBB61FB69191DF7
S214000210F96112681A607B6904337B617A697B68CE
S2140002209A42F0D300BF00BF2437BD465DF8047B7A
S214000230704780B485B000AF786039607B68FB603B
S2140002400023BB6007E0FB681A1DFA6000221A60F4
S214000250BB680433BB60BA683B689A42F3D300BFFE
S21400026000BF1437BD465DF8047B704780B400AF0E
S21400027000BFFDE780B400AF00BFFDE780B400AF6D
S21400028000BFFDE780B400AF00BFFDE780B400AF5D
S21400029000BFFDE780B400AF00BFFDE780B400AF4D
S2140002A000BFFDE780B400AF00BFFDE780B400AF3D
S2140002B000BFFDE780B400AF00BFFDE7FFFFFFFF14
S2140002C0FFFFFFFFFFFFFFFFFFFFFFFFFFFFFFFF39
S2140002D0FFFFFFFFFFFFFFFFFFFFFFFFFFFFFFFF29
S2140002E0FFFFFFFFFFFFFFFFFFFFFFFFFFFFFFFF19
S2140002F0FFFFFFFFFFFFFFFFFFFFFFFFFFFFFFFF09
S214000300FFFFFFFFFFFFFFFFFFFFFFFFFFFFFFFFF8
S214000310FFFFFFFFFFFFFFFFFFFFFFFFFFFFFFFFE8
S214000320FFFFFFFFFFFFFFFFFFFFFFFFFFFFFFFFD8
S214000330FFFFFFFFFFFFFFFFFFFFFFFFFFFFFFFFC8
S214000340FFFFFFFFFFFFFFFFFFFFFFFFFFFFFFFFB8
S214000350FFFFFFFFFFFFFFFFFFFFFFFFFFFFFFFFA8
S214000360FFFFFFFFFFFFFFFFFFFFFFFFFFFFFFFF98
S214000370FFFFFFFFFFFFFFFFFFFFFFFFFFFFFFFF88
S214000380FFFFFFFFFFFFFFFFFFFFFFFFFFFFFFFF78
S214000390FFFFFFFFFFFFFFFFFFFFFFFFFFFFFFFF68
S2140003A0FFFFFFFFFFFFFFFFFFFFFFFFFFFFFFFF58
S2140003B0FFFFFFFFFFFFFFFFFFFFFFFFFFFFFFFF48
S2140003C0FFFFFFFFFFFFFFFFFFFFFFFFFFFFFFFF38
S2140003D0FFFFFFFFFFFFFFFFFFFFFFFFFFFFFFFF28
S2140003E0FFFFFFFFFFFFFFFFFFFFFFFFFFFFFFFF18
S2140003F0FFFFFFFFFFFFFFFFFFFFFFFFFFFFFFFF08
S214000400FFFFFFFFFFFFFFFFFFFFFFFFFEFFFFFFF8
S21400041080B483B000AF7860084B1B6823F440229A
S2140004207B689B0403F44023044913430B6000BF1E
S2140004300C37BD465DF8047B704700BF0070044073
S21400044080B483B000AF78600A4B03F580535B68D6
S21400045023F440327B681B0403F4403305491343FE
S21400046001F58052536000BF0C37BD465DF8047B33
S214000470704700BF0070044080B483B000AF114BDB
S2140004801B7BDBB203F00303022B0ED0022B0FD82C
S214000490002B02D0012B04D00AE00B4B1B687B60BC
S2140004A009E00A4B1B687B6005E0094B7B6002E0B5
S2140004B000237B6000BF7B6818460C37BD465DF89E
S2140004C0047B704700400640180000201C000020F7
S2140004D0006CDC0280B582B000AFFFF7CDFF78601D
S2140004E07B68002B01D17B6846E0254B1B78DBB28E
S2140004F0DB08DBB203F00703FB70FB787A6822FAAE
S21400050003F37B601E4B5B78DBB21B09DBB203F0A8
S2140005100303BB701A4B1B7BDBB203F003037B7039
S214000520BB78002B02D07B78002B02D07B78022B86
S21400053021D1FB78072B14D0072B19DC052B02DC06
S214000540002B03DA14E0062B04D011E07B685B096D
S2140005507B6010E07B680B4AA2FB03231B097B60D1
S21400056009E07B68084AA2FB0323DB087B6002E005
S21400057000237B6000BF7B6818460837BD4680BDF9
S21400058000400640CDCCCCCCABAAAAAA80B400AF23
S2140005900C4B9B79DBB203F00103002B02D10A4B14
S2140005A01B6809E0094B1A68064B1B7ADBB25B082E
S2140005B003F0070322FA03F31846BD465DF8047BF2
S2140005C0704700BF004006400000002004000020E6
S2140005D080B500AF074B9B79DBB203F01003002B0E
S2140005E003D1FFF777FF034601E0034B1B6818466D
S2140005F080BD00BF004006400000002080B400AF71
S214000600074B1B78DBB25BB2002B02DA054B1B688C
S21400061000E000231846BD465DF8047B704700BF27
S214000620005006401800002080B483B000AF0D4B89
S2140006301B78DBB25BB2002B0CDA0A4B9B78DBB282
S21400064023F03F03FB71084B1B68FA799209D2B27C
S214000650D34000E0002318460C37BD465DF8047B07
S214000660704700BF005006401800002080B582B0DA
S21400067000AF114B1B689B0C03F00303002B02D04A
S214000680032B0CD00FE0FFF7B9FF0346B3F5004F7E
S21400069002D14FF4004300E000237B6006E04FF4F5
S2140006A07A737B6002E000237B6000BF7B6818469D
S2140006B00837BD4680BD00BF0070044080B582B0DC
S2140006C000AF0D4B03F580535B681B0C03F0030370
S2140006D0002B02D0032B04D006E000F0E9F8786087
S2140006E005E0064B7B6002E000237B6000BF7B6872
S2140006F018460837BD4680BD00700440006CDC021A
S21400070080B584B000AF0346FB71FB79132B7BD812
S21400071001A252F823F000BF690700006907000035
S2140007208707000009080000A50700000908000068
S214000730C3070000CB0700000108000009080000FE
S214000740F9070000D3070000DB070000E3070000FE
S2140007500908000009080000090800000908000050
S214000760EB070000F107000000F074F802462A4B81
S21400077003F580535B6C1B0F03F00F030133B2FBD2
S214000780F3F3FB6043E000F065F80246224B03F506
S21400079080535B6C1B0E03F00F030133B2FBF3F3C5
S2140007A0FB6034E000F056F802461B4B03F580531E
S2140007B05B6C1B0C03F00F030133B2FBF3F3FB601F
S2140007C025E0FFF77BFFF86021E0FFF74FFFF860BA
S2140007D01DE00CF0B2FFF86019E000F0A1F8F86038
S2140007E015E000F065F8F86011E00C4BFB600EE0D9
S2140007F04FF47A73FB600AE0FFF700FFF86006E04C
S214000800FFF712FFF86002E00023FB6000BFFB6802
S21400081018461037BD4680BD00700440006CDC02F0
S21400082080B582B000AF7860094A7B685B6802F5E5
S214000830805253647B681B781846FFF701FE7B687E
S2140008405B781846FFF7E4FD00BF0837BD4680BD5D
S2140008500070044080B582B000AF144B9B79DBB2C9
S2140008609B0803F003033B603B68022B11D03B68F8
S214000870022B12D83B68002B03D03B68012B04D018
S2140008800BE000F015F878600AE0FFF77FFE78606E
S21400089006E0FFF7F1FD786002E000237B6000BF12
S2140008A07B6818460837BD4680BD00BF004006403E
S2140008B080B582B000AF184B5B78DBB203F0020362
S2140008C0002B01D0002322E0FFF782FE78607B68D1
S2140008D0002B01D17B681AE00F4BDB78DBB25B099B
S2140008E0DBB203F00303FB700B4BDB78DBB2DB09F8
S2140008F0DBB203F00103BB70FA78BB7807495200FD
S214000900134431F813301A467B6802FB03F318468B
S2140009100837BD4680BD00BF00400640F8340100E1
S21400092080B500AF064B1B78DBB203F00203002B4A
S21400093001D1002302E0FFF729FE0346184680BDDA
S2140009400040064080B485B000AF0346FB710B46FE
S214000950BB7113467B713B4B9B79DBB29B0803F064
S2140009600303FB60374B9B79DBB203F00103FB729A
S214000970344B1B7ADBB25B08DBB203F00703BB72B7
S2140009807A79BB7A9A422CD02E4B1B78DBB203F0D6
S2140009900203002B02D1FB68012B12D1FB7A012B3C
S2140009A00FD1284B5B78DBB2264A23F00103DBB27B
S2140009B0537000BF234B9B79DBB203F00103002B7F
S2140009C0F8D1204B1B7ADBB223F02F03DAB27B7907
S2140009D05B00DBB203F00E03DBB21A491343DBB253
S2140009E00B72184B5B78DBB223F00103DAB2BB79EB
S2140009F003F00103DBB213491343DBB24B70114B18
S214000A001B78DBB223F00303DAB20E49FB791343FB
S214000A10DBB20B70FB68012B04D0FB7903F00203FA
S214000A20002B08D000BF074B9B79DBB203F0010216
S214000A30BB799A42F7D1002318461437BD465DF8B5
S214000A40047B70470040064080B584B000AF034684
S214000A503A60FB710B46BB710023FB73284BDB78B7
S214000A60BB73274B9B79DBB203F01003002B09D135
S214000A700123FB73224BDB78DBB2214A83F0200391
S214000A80DBB2D3701E4B1B78DBB203F03B03DBB24A
S214000A901B4A43F00403DBB2137000BF184B9B796C
S214000AA0DBB203F01003102BF8D1FB7B002B02D037
S214000AB0134ABB7BD370BB7B03F01F03DAB2FB7910
S214000AC0DB01D9B2BB795B01DBB203F06003DBB2BA
S214000AD00B43DBB20A491343DBB2CB7000BF084BB3
S214000AE09B79DBB203F00C03002BF8D13B68002B9C
S214000AF001D03B689847002318461037BD4680BD96
S214000B000040064080B485B000AF78600023FB60EC
S214000B1006E0094A7B68934206D0FB680133FB6017
S214000B20FB68002BF5D000E000BFFB6818461437C2
S214000B30BD465DF8047B70470010024080B582B069
S214000B4000AF78607868FFF7DDFF044B18460CF0BE
S214000B501EFE00BF0837BD4680BD00BF01003C102A
S214000B6080B500AF044B1B6818460CF02AFEBFF396
S214000B704F8F00BF00BF80BD2000002080B500AFB3
S214000B80044B5B6818460CF01CFEBFF34F8F00BF8B
S214000B9000BF80BD2000002080B500AF044B9B68DE
S214000BA018460CF00EFEBFF34F8F00BF00BF80BD8F
S214000BB02000002080B500AF044BDB6818460CF020
S214000BC000FEBFF34F8F00BF00BF80BD2000002097
S214000BD080B584B000AF78607B68002B01D1042319
S214000BE01EE07B6800229A647B680022DA637B68DA
S214000BF000221A647B689B6C002B02D10A4A7B6831
S214000C009A647B689B6C184600F04EF978680CF086
S214000C107FFEF860FB68002B01D0FB6800E0002335
S214000C2018461037BD4680BD3000002080B58AB01B
S214000C3000AFF860B9607A603B60FB6893F83430C8
S214000C407A68B968F8680CF099FE38623B6A002B3F
S214000C5001D03B6A43E0386800F06CF938623B6AC2
S214000C60002B01D03B6A3AE0FB681B6BFB61FB681C
S214000C701B69BB61FA697B681344013B7B627B6A34
S214000C80BA69B3FBF2F2B96901FB02F29B1A002BB8
S214000C901ED07A6ABB69B2FBF3F301337B617B69D2
S214000CA0BA6902FB03F3013B7B6211E0FB6923F0A8
S214000CB07F430D4A43F010631360F86800F004F9B0
S214000CC038623B6A002B08D1FA69BB691344FB61A2
S214000CD0FA697B6A9A42E9D900E000BF3B6A184687
S214000CE02837BD4680BD00BF0400024090B589B0DD
S214000CF000AFF860B9607A603B60FB6893F8393003
S214000D00FB747B68002B01D1042353E0FB7C3A681C
S214000D10B968F8680CF032FEF861FB69002B01D068
S214000D20FB6947E0FB681B6BBB613B687B613BE094
S214000D30224B1C1D78680CF059FE034623607B6826
S214000D4004337B60FB7C042B07D1BB6923F07F4315
S214000D501A4A43F0C063136017E0FB7C082B12D1DD
S214000D60164B03F1080478680CF040FE0346236037
S214000D707B6804337B60BB6923F07F430F4A43F0F4
S214000D80E063136001E0042314E0F86800F09CF8C8
S214000D90F861FB69002B0BD1FB7CBA691344BB617D
S214000DA0FB7C7A69D31A7B617B69002BC0D100E09B
S214000DB000BFFB6918462437BD4690BD04000240BC
S214000DC080B58CB000AFF860B9607A60FB70FB68E5
S214000DD093F83530FB77FB7F7A68B968F8680CF0D3
S214000DE0CDFDB861BB69002B01D0BB6955E0FB683F
S214000DF01B6B7B62FB68DA68FB685B69B2FBF3F32C
S214000E007B617A6A7B6913445A1E7B695B42134096
S214000E10FB62FA6A7B6A9A4203D1FA6A7B691344D8
S214000E20FB627B68BB6234E0FA6A7B6AD31A3B6279
S214000E303A6ABB6A9A4201D9BB6A3B62FB7F3A6A4E
S214000E40B2FBF3F33B617B6A23F07F43154A43F022
S214000E50807313603B691A04FB781B021A43114B1C
S214000E60043342F0FF021A60F86800F02DF8B8610B
S214000E70BB69002B01D0BB690FE0BA6A3B6AD31A84
S214000E80BB627A6A3B6A13447B62FA6A7B691344E4
S214000E90FB62BB6A002BC7D1002318463037BD461D
S214000EA080BD00BF0400024080B582B000AF78600D
S214000EB00C220449786812F04EF900BF0837BD4688
S214000EC080BD00BF0835010080B584B000AF7860F3
S214000ED0174B70221A707B689B6C5A1C7B689A644E
S214000EE07B689B6CFB60FB68114898477B689B6C33
S214000EF05A1E7B689A640E4B1B78FB72FB7A03F0D3
S214000F002003002B01D067230EE0FB7A03F01003CA
S214000F10002B01D0682307E0FB7A03F00103002BC7
S214000F2001D0692300E0002318461037BD4680BD77
S214000F300000024080B483B000AF78607B68064A49
S214000F40934201D06B2300E0002318460C37BD46C1
S214000F505DF8047B704700BF6B66656B90B597B015
S214000F6000AF78607B68002B01D10423C8E1002322
S214000F7087F85730BEE197F857307A68642101FB4E
S214000F8003F3134400221A7097F857307A686421E6
S214000F9001FB03F31344013397F857201A7097F8B0
S214000FA05730642202FB03F37A68134418460CF0A9
S214000FB0EDFDB864BB6C002B01D0BB6CA0E1002338
S214000FC07B644FF400333B640123FB634FF4006300
S214000FD0BB6320237B6304233B630823FB62082355
S214000FE0BB624FF070637B6218233B628D4B93F8B5
S214000FF02830DBB2FB618B4B93F82B30DBB2BB6146
S21400100097F857307A68642101FB03F313440833DA
S2140010107A6C1A6097F857307A68642101FB03F3FC
S21400102013441433FA6B1A6097F857307A686421C1
S21400103001FB03F313441033BA6B1A6097F857306A
S2140010407A68642101FB03F313441B79C3F300039E
S214001050DBB2002B1DD097F857307A68642101FB6D
S21400106003F313441B79C3F34003DBB2002B10D009
S21400107097F857403B6A7A6A396CF86B00F0E4F9E7
S21400108001467A68642304FB03F313440C331960A7
S2140010900CE097F85730FA6B396C01FB02F279686E
S2140010A0642000FB03F30B440C331A6097F85730A8
S2140010B07A68642101FB03F313441B79C3F300131E
S2140010C0DBB2002B40D097F85730642202FB03F3C4
S2140010D018337A6813447B6197F857307A6864212E
S2140010E001FB03F313441B79C3F34013DBB2002B5D
S2140010F014D097F857307A68642101FB03F3134441
S21400110008331A687B691A604FF48072FB699A404C
S2140011107B695A607B69BA699A6015E07B689A6851
S2140011207B691A603F4B93F82830DBB21A464FF4BF
S214001130807303FA02F27B695A603A4B93F82B30BD
S214001140DBB21A467B699A6097F857307A68642152
S21400115001FB03F313441B79C3F38003DBB2002BBC
S21400116071D097F85730642202FB03F320337A6875
S214001170134404333B6197F857307A68642101FBC7
S21400118003F313441B79C3F3C003DBB2002B20D058
S21400119097F857307A68642101FB03F31344083349
S2140011A01A683B691A603B697A6B9A6097F8573001
S2140011B07A68642101FB03F313440C331A683B6915
S2140011C09B68194610460CF015FD02463B695A60AE
S2140011D039E00023FB647B689A683B691A603B69C8
S2140011E020229A6000233B650EE097F857307A6815
S2140011F0642101FB03F313440C331B68FA6C13449D
S214001200FB643B6D01333B653B6D002BEDD03B69CA
S2140012109B681946F86C0CF0EDFCF86000233B6503
S2140012200EE000BF000002407A683B6D642101FBBF
S21400123003F313442833FA681A603B6D01333B65A9
S2140012403B6D002BF0D097F857303A6BD0B27A68E7
S214001250642101FB03F31344393302461A7097F8EE
S2140012605730FA6AD0B27A68642101FB03F313445C
S214001270343302461A7097F85730BA6AD0B27A6892
S214001280642101FB03F31344353302461A7097F8C2
S21400129057307A68642101FB03F313443633042283
S2140012A01A7097F857307A68642101FB03F31344E9
S2140012B0373304221A7097F857307A68642101FB96
S2140012C003F31344383300221A7097F85730642219
S2140012D002FB03F37A6813441846FFF779FCB864F8
S2140012E0BB6C002B01D0BB6C0AE097F8573001337B
S2140012F087F8573097F85730002B3FF43CAE002362
S21400130018465C37BD4690BD80B487B000AFF86025
S2140013100B467A60FB72FB68002B02D07B68002BC2
S21400132001D104238AE000237B61FB7A212B00F2A3
S214001330818001A252F823F0C1130000CB130000F5
S214001340D5130000E7130000F1130000FB130000A4
S2140013500D140000171400003514000035140000AA
S2140013603514000035140000351400003514000054
S2140013703514000035140000351400003514000044
S2140013803514000035140000351400003514000034
S2140013903514000035140000351400003514000024
S2140013A03514000035140000351400003514000014
S2140013B03514000035140000211400002B14000022
S2140013C0FB681A697B681A6037E0FB68DA687B6836
S2140013D01A6032E0FB68DA68FB685B69B2FBF3F21E
S2140013E07B681A6029E0FB685A697B681A6024E00B
S2140013F0FB689A687B681A601FE0FB681B79C3F37A
S2140014000013DBB21A467B681A6016E0FB68DA69DE
S2140014107B681A6011E0FB681A6A7B681A600CE049
S214001420FB68DA6B7B681A6007E0FB681A6C7B68FF
S2140014301A6002E06A237B6100BF7B6918461C378E
S214001440BD465DF8047B704780B487B000AFF86097
S214001450B9607A603B60104B03F58053DA6C7B68AA
S2140014601A403B6822FA03F3FB74FB7C0F2B05D172
S214001470FB68BA6802FB03F37B6105E0FB7C074A66
S21400148032F813309B027B617B6918461C37BD46D9
S2140014905DF8047B704700BF0070044014350100FF
S2140014A080B485B000AF78600023FB6006E0094A90
S2140014B07B68934206D0FB680133FB60FB68002B19
S2140014C0F5D000E000BFFB6818461437BD465DF84F
S2140014D0047B70470000044080B584B000AF78609D
S2140014E039607868FFF7DCFFF860194B18460CF097
S2140014F053FC3B681B785B0003F002023B68DB781A
S2140015009B0003F004031A433B689B78DB0003F060
S21400151008031A433B685B781B0103F030031A4349
S2140015207B681A603B689B79DB0003F078023B68B7
S2140015301B799B0003F004031A433B685B7903F0B6
S21400154003031A437B685A6000BF1037BD4680BD50
S2140015500000381080B485B000AF78600023FB60D0
S21400156006E0094A7B68934206D0FB680133FB60BD
S214001570FB68002BF5D000E000BFFB681846143768
S214001580BD465DF8047B70470070034080B584B0AC
S21400159000AF786039607868FFF7DCFF1B4B1846B1
S2140015A00CF036FC7B681B6823F002027B681A602E
S2140015B00023FB7312E0FB7B7A681B01134403F5E0
S2140015C084731A68FB7B22F0010279681B010B44C6
S2140015D003F584731A60FB7B0133FB73FB7B032BE1
S2140015E0E9D93B681B78002B06D07B681B6823F084
S2140015F001027B681A6005E07B681B6843F0010205
S2140016007B681A6000BF1037BD4680BD17003C10CF
S21400161080B483B000AF78600E4B03F580535A6DEC
S2140016207B681A600B4B03F580539A6D7B685A6093
S214001630084B03F58053DA6D7B689A60054B03F51B
S21400164080531A6E7B68DA6000BF0C37BD465DF8C3
S214001650047B70470070044080B485B000AF7860AB
S2140016600223BB600023FB6009E00B4AFB6852F8CC
S21400167023307A689A4207D0FB680133FB60FA6829
S214001680BB689A42F1D300E000BFFB6818461437E7
S214001690BD465DF8047B70473435010080B58AB0DE
S2140016A000AFF860B9607A6000237B62002387F899
S2140016B023300023FB61BB681B681B017A68B2FB02
S2140016C0F3F37B627B6A002B01D101237B6200234C
S2140016D0BB617B685A00BB681B68B2FBF3F27B6A8F
S2140016E05B01D31A7B617B685A007B6A59017B6970
S2140016F00B44B2FBF3F3BB61BB681B68BA699A4242
S21400170004D9BB681B68BA69D31A03E0BB681A68B9
S214001710BB69D31AFB61BB681B685B4AA2FB032349
S2140017205A0913465B001344FA699A4202D940F2FA
S214001730F533A5E0F868FFF78FFF0346534A52F8E3
S214001740233018460CF0B0FBFB68DB78DBB223F0E6
S2140017500C03DAB2FB68DA70FB681B78DBB25BB2AC
S21400176023F01F035AB27B6A1B0A5BB213435BB2B9
S214001770DAB2FB681A707B6ADAB2FB685A70FB68EA
S2140017809B7ADBB223F01F03DAB27B69DBB203F08D
S2140017901F03DBB21343DAB2FB689A72FB689B78CE
S2140017A0DBB223F0170387F82330BB685B7A9B0015
S2140017B0DBB203F00403DAB297F82330134387F85A
S2140017C02330BB681B79002B09D0BB681A7997F8C1
S2140017D023301343DBB243F0100387F82330FB6853
S2140017E097F823209A70BB685A79FB68DA74BB684E
S2140017F09A79FB685A75FB681B7CDBB263F077034B
S214001800DAB2FB681A74FB685B7CDBB263F03F03FA
S214001810DAB2FB685A74BB68DB79002B07D0FB682A
S2140018205B7BDBB243F00803DAB2FB685A73BB6833
S2140018301B7A002B07D0FB685B7BDBB243F001030F
S214001840DAB2FB685A73FB68DB7887F82330BB682C
S2140018509B7A002B05D097F8233043F0080387F8CF
S2140018602330BB68DB7A002B05D097F8233043F093
S214001870040387F82330FB6897F82320DA700023E8
S21400188018462837BD4680BD1F85EB513C35010004
S21400189080B483B000AF786039603A68174B134065
S2140018A03B607B681B78DAB23B68DBB21343DAB284
S2140018B07B681A707B68DB78DAB23B681B0ADBB29F
S2140018C01343DAB27B68DA707B689B79DAB23B68DE
S2140018D01B0CDBB21343DAB27B689A717B685B7CC5
S2140018E0DAB23B681B0EDBB21343DAB27B685A747B
S2140018F000BF0C37BD465DF8047B7047C0F00F078D
S21400190080B500AF054B1B68054A126811460548AE
S2140019109847BFF34F8F00BF00BF80BD7800002000
S2140019207000002000A0064080B500AF0B4BD3F837
S21400193088300A4A43F47003C2F88830084B4CF2E9
S2140019402052DA81064B4DF62812DA81044B4FF40A
S214001950E9721A800CF0DBFB00BF80BD00ED00E0F2
S2140019600020054080B400AF054B03F580531A46AF
S214001970044B536400BFBD465DF8047B704700BF50
S214001980007004400000071180B500AFAA2111487E
S2140019900CF0C4FB0F480CF06CFA00BF0D480CF0BE
S2140019A0CCFB0346802BF9D1FFF7DCFF0123032194
S2140019B0094A18460BF0D8FE0223012100221846D9
S2140019C0FEF7C0FF0548FEF72BFF054B054A1A60D9
S2140019D000BF80BD00E0074055E10000443501002F
S2140019E0080000200080B80580B590B000AFB7486A
S2140019F00CF0D7FBB6480CF0D4FBB6480CF0D1FB85
S214001A00B5480CF0CEFBB5480CF0CBFB002387F8AE
S214001A103C30002387F83D3007F13C031A4601218D
S214001A20AF480CF08EF9002387F83830002387F88B
S214001A30393007F138031A460221A9480CF081F91B
S214001A40A84B1B88BB8607F134031A461221A4480C
S214001A500CF077F9012387F83030002387F831300F
S214001A6007F130031A4613219D480CF06AF901234A
S214001A7087F82C30002387F82D3007F12C031A4600
S214001A80002199480CF05DF9012387F828300023DF
S214001A9087F8293007F128031A46012192480CF0EE
S214001AA050F9012387F82430002387F8253007F102
S214001AB024031A4605218D480CF043F9012387F8C4
S214001AC02030002387F8213007F120031A4606212C
S214001AD086480CF036F901233B7700237B7707F125
S214001AE01C031A46042182480CF02BF901233B768E
S214001AF000237B7607F118031A4605217C480CF074
S214001B0020F900233B7500237B7507F114031A4662
S214001B10062177480CF015F900233B7400237B74EC
S214001B2007F110031A46072171480CF00AF9012341
S214001B303B7300237B7307F10C031A4610216D4894
S214001B400CF0FFF801233B7200237B7207F10803B9
S214001B501A46112167480CF0F4F801233B71002364
S214001B607B713B1D1A46122162480CF0EAF80123ED
S214001B703B7000237B703B461A4613215D480CF0F1
S214001B80E0F8012201215C480CF025FB012212211D
S214001B9059480CF020FB0122132157480CF01BFB80
S214001BA00122022154480CF016FB01220021534862
S214001BB00CF011FB0122012150480CF00CFB032213
S214001BC001214F480CF007FB4D4B5B6823F08073F8
S214001BD023F003034A4A43F0030353600122022121
S214001BE047480CF0F8FA0322032145480CF0F3FAB4
S214001BF0434BDB6823F0807323F00303404A43F033
S214001C000303D360032204213D480CF0E4FA3C4B66
S214001C101B6923F0807323F00303394A43F0030360
S214001C2013610122052136480CF0D5FA012206215F
S214001C3033480CF0D0FA0122042132480CF0CBFADB
S214001C40012205212F480CF0C6FA012206212D4854
S214001C500CF0C1FA2B4B9B6923F0807323F003032F
S214001C60284A43F0030393610122072125480CF01C
S214001C70B2FA244BDB6923F0807323F00303214A76
S214001C8043F00303D361012210211F480CF0A3FA8E
S214001C90012211211C480CF09EFA012212211A483A
S214001CA00CF099FA0122132117480CF094FA174BFE
S214001CB003F580531B69154A23F0300302F5805262
S214001CC0136100BF4037BD4680BD00BF0900381015
S214001CD00A0038100B0038100C0038100D003810B1
S214001CE000F00F404C35010040F00F4080F00F40F0
S214001CF0C0F00F4000F10F400090044000A00440E8
S214001D0000B0044000C0044000D00440007004400E
S214001D1080B59CB000AF78607B685B681A46244943
S214001D2024480DF042F807F10C0318460CF076FA3A
S214001D30034687F86F3097F86F30002B0AD107F10B
S214001D401C0107F10C035322184600F073F80346F3
S214001D5087F86F3097F86F30002B06D007F11C031A
S214001D60154A532118460DF065F87B685A6807F146
S214001D701C03194611480DF018F87B685B68194675
S214001D800F480CF0C9FD00F0E1F801467B685B687F
S214001D901A460C480DF009F87B685B681946084837
S214001DA00CF0BAFD002318467037BD4680BD00BF54
S214001DB0D0350100E4350100F0350100F8350100AA
S214001DC0F84601000036010080B582B000AF7860AA
S214001DD07B685B681A460B490B480CF0D4FF7B689F
S214001DE05B681A4609490A480CF0CDFF7B685B68B9
S214001DF01A46084908480CF0C6FF0023184608375C
S214001E00BD4680BD0C360100E43501002C360100CD
S214001E1050360100603601007C36010080B400AF09
S214001E20024B034ADA6000BFFDE700BF00ED00E0AA
S214001E300400FA0580B586B000AFF860B9607A6035
S214001E40164A7968B8680CF0F5FF00237B6118E045
S214001E50134A7968B8680DF012F8FA687B6913447B
S214001E601B781A467968B8680DF0AEF97B690E2BB8
S214001E7004D80C4A7968B8680DF001F87B6901331C
S214001E807B617B690F2BE3D9074A7968B8680CF049
S214001E90F6FF002318461837BD4680BD843601007D
S214001EA038420100883601008C36010080B586B0C5
S214001EB000AFF860B9607A600023FB751E49F868C9
S214001EC011F05BF90346002B06D01C49F86811F0A8
S214001ED054F90346002B07D1BB6801221A707868B4
S214001EE0FFF772FF034623E01549F86811F045F93D
S214001EF00346002B06D01349F86811F03EF9034656
S214001F00002B08D1BB6801221A707868FFF700FF23
S214001F100346FB750BE00C49F86811F02EF90346F2
S214001F20002B04D1BB6801221A70FFF777FFFB7DF8
S214001F3018461837BD4680BDDC3A010090360100D1
S214001F40EC3A0100A4360100B836010080B483B034
S214001F5000AF0D4B03F580535B6A1B0903F00303C8
S214001F607B607B68002B07DB7B68082B04DC074A5A
S214001F707B6852F8233000E0054B18460C37BD4608
S214001F805DF8047B704700BF0070044058500100A5
S214001F90CC36010080B483B000AF786039607B68CF
S214001FA0054A1360044A3B68536000BF0C37BD46C1
S214001FB05DF8047B704700BF7C00002080B588B0C9
S214001FC000AFF860B9607A600023FB777968F8683C
S214001FD000F038F80346002B01D01B2329E01748F1
S214001FE00BF030FFB861BB69002B01D01B2320E04B
S214001FF0012002F09DFA0CF04FF97861F9687B68D1
S214002000BA680F480BF056FDB861BB69002B02D0CA
S2140020101B23FB7700E000BF78690CF04EF90748F9
S2140020200BF027FFB861BB69002B01D01B23FB77A1
S214002030FB7F18462037BD4680BD00BF00E0074046
S2140020408400002080B586B000AF78603960002339
S214002050BB600023FB75396878680CF04AF90346C4
S214002060002B01D000234CE028480BF0EBFE386133
S2140020703B69002B01D01B2343E0012002F058FAF5
S21400208007F108031A4600212148FFF73DF9386199
S2140020903B69002B01D01B2333E0BB68B3F5006F10
S2140020A001D01B232DE00CF0F7F8F8607968194B87
S2140020B03A6817480BF0C8FC38613B69002B05D01E
S2140020C01B23FB75F8680CF0F8F810E0F8680CF0C5
S2140020D0F4F8796801233A680D480BF021FD386161
S2140020E03B69002B02D01B23FB7500E000BF0748AE
S2140020F00BF0BFFE38613B69002B01D01B23FB753C
S214002100FB7D18461837BD4680BD00BF00E007407F
S214002110840000206B66656B80B58EB000AF78607B
S2140021207B685B681A462A492A480CF03EFE07F18F
S2140021300803294A302118460CF07CFE07F10803F4
S2140021404FF40062302118460DF06DF807F10803D1
S214002150224A302118460CF092FE7B685A6807F136
S214002160080319461E480CF020FE07F108031D4A16
S214002170302118460CF05EFE1B4B1A6807F1080368
S214002180302118460DF0BCF807F10803174A302135
S21400219018460CF074FE144B5A6807F108033021F9
S2140021A018460DF0ADF807F108030C4A3021184622
S2140021B00CF065FE7B685A6807F1080319460C4860
S2140021C00CF0F3FD002318463837BD4680BD00BF2F
S2140021D0E8360100FC36010008370100F846010029
S2140021E010370100183701007C000020203701005E
S2140021F02C37010080B58CB004AFF860B9607A6007
S2140022007249F86810F0B9FF0346002B06D07049F3
S214002210F86810F0B2FF0346002B20D17B685B689D
S2140022201A466C496C480CF0AEFD7B685B681A4633
S2140022306A496B480CF0A7FD7B685B681A466949DB
S21400224069480CF0A0FD7B685B681A4667496848D9
S2140022500CF099FDBB6801221A700023B1E06549B5
S214002260F86810F08AFF0346002B06D06249F8682B
S21400227010F083FF0346002B07D1BB6801221A70BB
S2140022807868FFF749FF03469BE00E225B49F86833
S21400229010F0DEFF0346002B50D1BB6801221A70F7
S2140022A0FB680E33FB6107F1180207F11C031146A9
S2140022B018460DF08BF80346002B37D107F11402B1
S2140022C007F11C03114618460DF080F80346002B54
S2140022D024D17B69002B21DDBB691A467B69194630
S2140022E010460BF0FAFF0346002B0FD0B969BB6906
S2140022F07A6913445A1E7B680293414B019310235C
S21400230000930423002001F021F859E07B689B68C5
S21400231019463C480CF000FB1B2352E07B689B6888
S214002320194639480CF0F8FA1B234AE07B689B688C
S214002330194636480CF0F0FA1B2342E00F223449C7
S214002340F86810F085FF0346002B39D1BB680122E0
S2140023501A70FB680F33FB6107F1180207F11C03C4
S214002360114618460DF032F80346002B28D1BB69FB
S214002370C3F30A03002B07D07B689B6819462548E1
S2140023800CF0CAFA1B231CE007F1140207F11C0329
S214002390114618460DF01AF80346002B08D1BB6903
S2140023A01A467B6919461046FFF74CFE034608E0BE
S2140023B07B689B68194618480CF0AEFA1B2300E0B1
S2140023C0002318462037BD4680BD00BFDC3A01001A
S2140023D03C3701004C370100FC3601002C3601006A
S2140023E0503601006C370100803701009837010035
S2140023F0B4370100EC3A0100CC370100DC370100AD
S21400240091E30000EC370100083801002038010095
S2140024103C3801004C3801007838010080B582B0A5
S21400242000AF64220021084810F097FE0648FEF729
S21400243095FD78607B68002B01D000BFFDE700BFEC
S2140024400837BD4680BD00BF8400002080B582B03E
S21400245000AF786014220449786810F07CFE00BF54
S2140024600837BD4680BD00BF7850010080B586B0F5
S21400247000AFF860B9607A60FB687B61BB680022D9
S2140024801A70F8680CF04EF80346002B05D0364A52
S2140024907968B8680CF0F3FC04E0344A7968B868E8
S2140024A00CF0EDFCF8680CF0F2F80346002B05D0B3
S2140024B02F4A7968B8680CF0E2FC04E02D4A796887
S2140024C0B8680CF0DCFC2C4A7968B8680CF0D7FCCD
S2140024D07B695B681A467968B8680CF011FF274A72
S2140024E07968B8680CF0CBFC7B699B681A467968FB
S2140024F0B8680CF005FF224A7968B8680CF0BFFC93
S2140025007B69DB681A467968B8680CF047FF1D4A95
S2140025107968B8680CF0B3FC7B691B7C022B12D080
S214002520022B16DC002B02D0012B06D011E0164A37
S2140025307968B8680CF0A3FC11E0144A7968B868AA
S2140025400CF09DFC0BE0124A7968B8680CF097FC1A
S21400255005E0104A7968B8680CF091FC00BF00BF2F
S2140025601837BD4680BD00BF943801009C38010076
S21400257084420100A4380100A8380100B4380100E4
S214002580C0380100C8380100D0380100D438010036
S214002590D8380100DC38010080B483B000AF786022
S2140025A07B681B68214A13607B6804331B68204ADB
S2140025B013607B6808331B681E4A13607B680C3305
S2140025C01B681D4A13607B6810331B681B4A136028
S2140025D07B6814331B681A4A13607B6818331B68C1
S2140025E0184A13607B681C331B68174A1360174B26
S2140025F01B68174A1360174B1B68174A1360174B64
S2140026001B68174A1360174B1B68174A1360174B53
S2140026101B68174A1360174B1B68174A136000BEE7
S21400262000BF0C37BD465DF8047B7047E80000200D
S214002630EC000020F0000020F4000020F80000204D
S214002640FC000020000100200401002028ED00E02E
S214002650080100202CED00E00C01002030ED00E029
S214002660100100203CED00E01401002034ED00E0F5
S2140026701801002038ED00E01C01002080B582B073
S21400268000AF786014220449786810F064FD00BF3B
S2140026900837BD4680BD00BF8C50010090B5B9B06C
S2140026A002AF7860002387F8D3307B685B681946F2
S2140026B0AB480CF031F900233B7307F10C00042300
S2140026C000932023A74A20210DF0C5F87B685A689E
S2140026D007F10C03114618460CF01EF900233B7355
S2140026E007F10C000723009320239F4A20210DF0BA
S2140026F0B2F87B685A6807F10C03114618460CF0CE
S2140027000BF900233B7307F10C000B2300932023E7
S214002710964A20210DF09FF87B685A6807F10C0353
S214002720114618460CF0F8F800233B7307F10C002E
S2140027300523009320238E4A20210DF08CF87B6819
S2140027405A6807F10C03114618460CF0E5F800230A
S2140027503B7307F10C00092300932023854A2021B0
S2140027600DF079F87B685A6807F10C031146184695
S2140027700CF0D2F800233B7307F10C0008230093FB
S21400278020237D4A20210DF066F87B685A6807F101
S2140027900C03114618460CF0BFF800233B7307F1F4
S2140027A00C000B2300932023744A20210DF053F8CD
S2140027B07B685A6807F10C03114618460CF0ACF813
S2140027C000233B7307F10C000B23009320236C4A75
S2140027D020210DF040F87B685A6807F10C0311467B
S2140027E018460CF099F800233B7307F10C000823F9
S2140027F000932023634A20210DF02DF87B685A6849
S21400280007F10C03114618460CF086F800233B73BC
S21400281007F10C001523009320235B4A20210DF0BE
S2140028201AF87B685A6807F10C03114618460CF034
S21400283073F800233B7307F10C0008230093202352
S214002840524A20210DF007F87B685A6807F10C03FE
S214002850114618460CF060F87B685B6819464C48D1
S2140028600CF05AF804F020FDC7F8CC00D7F8CC30AE
S214002870102B11D907F10C03464A202118460CF0FC
S214002880D9FA7B689A6807F10C03114618460CF0D3
S21400289043F81023C7F8CC3007F1880310211846F8
S2140028A005F01EFCC7F8CC000023C7F8D43081E240
S2140028B0D7F8D4309B00D8333B4453F8503C002B19
S2140028C000F07382D7F8D4309B00D8333B4453F8DB
S2140028D0500C07F12C010523012205F0BFF8D7F8AC
S2140028E0D4309B00D8333B4453F8500C07F17C049B
S2140028F007F1800207F1840107F17B03009323466A
S21400290005F03CFC002387F858307A6B07F1580333
S214002910202118460CF042FD00233B7307F15802B5
S21400292007F10C0004230093202320210CF093FFD2
S2140029307B685A6807F10C03114618460BF0ECFF4B
S214002940002387F8583097F87B30002B26D107F104
S2140029505803114A202118460CF06CFA34E000BFE8
S214002960E0380100283901002C3901003439010013
S2140029703C390100443901004C390100543901004A
S214002980603901006C39010074390100803901009A
S214002990F846010088390100C439010007F15803E0
S2140029A0584A202118460CF045FA97F87B2007F184
S2140029B05803202118460CF075FB07F15803524ABD
S2140029C0202118460CF05BFA00233B7307F15802EF
S2140029D007F10C0007230093202320210CF03BFF77
S2140029E07B685A6807F10C03114618460BF094FFF3
S2140029F007F15803454A202118460CF01BFAD7F871
S214002A00D4309B00D8333B4453F8503C1A4607F169
S214002A105803202118460CF073FC00233B7307F183
S214002A20580207F10C000B230093202320210CF002
S214002A3012FF7B685A6807F10C03114618460BF024
S214002A406BFF00233B73D7F8D4309B00D8333B444E
S214002A5053F8503C184604F033FC024607F10C00CD
S214002A6005230093202320210CF0F5FE7B685A688E
S214002A7007F10C03114618460BF04EFF97F8383056
S214002A80052B51D801A252F823F000BFA52A00005A
S214002A90B52A0000D52A0000C52A0000E52A000055
S214002AA0F52A000007F15803194A202118460CF0B1
S214002AB0C1F941E007F15803164A202118460CF0E8
S214002AC0B9F939E007F15803134A202118460CF0EB
S214002AD0B1F931E007F15803104A202118460CF0EE
S214002AE0A9F929E007F158030D4A202118460CF0F1
S214002AF0A1F921E007F158030A4A202118460CF0F4
S214002B0099F919E0CC390100D439010038420100A6
S214002B10D8390100E0390100E8390100F439010034
S214002B20FC390100043A010007F15803A84A2021A5
S214002B3018460CF07FF900BF00233B7307F15802DC
S214002B4007F10C0009230093202320210CF083FEBC
S214002B507B685A6807F10C03114618460BF0DCFE3A
S214002B60002387F8583007F15803282220211846FA
S214002B700CF0B8F93A6C07F15803202118460CF00F
S214002B800DFC07F158032C22202118460CF0AAF958
S214002B90FA6B07F15803202118460CF0FFFB07F1EB
S214002BA058032922202118460CF09CF900233B7379
S214002BB007F1580207F10C00082300932023202178
S214002BC00CF049FE7B685A6807F10C03114618465C
S214002BD00BF0A2FE07F158037E4A202118460CF09F
S214002BE029F9D7F884301A4607F1580320211846E9
S214002BF00CF086FB00233B7307F1580207F10C002C
S214002C000B230093202320210CF025FE7B685A68B6
S214002C1007F10C03114618460BF07EFE07F1580329
S214002C206C4A202118460CF005F9D7F880301A4671
S214002C3007F15803202118460CF062FB00233B7373
S214002C4007F1580207F10C000B23009320232021E4
S214002C500CF001FE7B685A6807F10C031146184613
S214002C600BF05AFED7F884301A46D7F88030D31ABD
S214002C709BB20833A7F8CA30002387F85830B7F855
S214002C80CA2007F1580005230093202320210CF0CA
S214002C903BFA07F15803504A202118460CF0EFF88B
S214002CA000233B7307F1580207F10C00082300933A
S214002CB0202320210CF0CFFD7B685A6807F10C0317
S214002CC0114618460BF028FE07F15803414A20210A
S214002CD018460CF0AFF8FB6F1A4607F15803202190
S214002CE018460CF00DFB07F158033C4A2021184605
S214002CF00CF0C5F8D7F884301A46FB6FD31A9BB28F
S214002D0004339AB207F158000523009320232021AC
S214002D100CF0FAF907F15803314A202118460CF056
S214002D20AEF800233B7307F1580207F10C00152399
S214002D300093202320210CF08EFD7B685A6807F153
S214002D400C03114618460BF0E7FD002387F85830B1
S214002D50B7F854309B009AB207F158000523009349
S214002D60202320210CF0D0F907F158031A4A20211D
S214002D7018460CF084F800233B7307F1580207F15D
S214002D800C0008230093202320210CF064FD7B68B0
S214002D905A6807F10C03114618460BF0BDFD7B6818
S214002DA05B6819460F480BF0B7FDD7F8D4300133EF
S214002DB0C7F8D430D7F8D420D7F8CC309A42FFF4EE
S214002DC077AD97F8D3301846DC37BD4690BD00BFC8
S214002DD00C3A010038420100183A01001C3A010082
S214002DE0203A0100F846010080B586B000AF786052
S214002DF07B685B681A46334933480BF0D6FF7B681E
S214002E005B681A46314932480BF0CFFF7B685B6837
S214002E10194630480BF080FD7B685B681A462E49E1
S214002E202E480BF0C2FF07F108034FF47A72102108
S214002E30184601F0FBF87B685A6807F1080311464C
S214002E4018460BF069FD7B685B68194624480BF052
S214002E5063FD07F1080301221021184601F0E6F889
S214002E607B685A6807F10803114618460BF054FDB4
S214002E707B685B6819461B480BF04EFD7B685B68F9
S214002E801A46154918480BF090FF03F0CDFB024692
S214002E9007F108031021184601F000FA7B685A680B
S214002EA007F10803114618460BF036FD7B685B6891
S214002EB019460E480BF030FD002318461837BD465D
S214002EC080BD00BF243A0100443A01004C3A01009C
S214002ED0543A0100F8460100D03C0100603A010077
S214002EE0703A0100783A0100803A01008C3A0100FD
S214002EF080B582B000AF78607B685B681A460B4985
S214002F000B480BF040FF7B685B681A4609490A4885
S214002F100BF039FF7B685B681A46084908480BF0D7
S214002F2032FF002318460837BD4680BD983A010098
S214002F30443A01002C36010050360100B43A010034
S214002F40C83A010080B584B000AFF860B9607A6016
S214002F501F49F86810F011F90346002B06D01D49EA
S214002F60F86810F00AF90346002B07D1BB68012267
S214002F701A707868FFF7BCFF034625E01649F86824
S214002F8010F0FBF80346002B06D01449F86810F042
S214002F90F4F80346002B07D1BB6801221A70786844
S214002FA0FFF722FF03460FE00D49F86810F0E5F83A
S214002FB00346002B07D1BB6801221A707868FFF71A
S214002FC06DFB034600E0002318461037BD4680BD63
S214002FD0DC3A0100D43A0100EC3A0100E43A010080
S214002FE0F43A010080B500AF72B603480BF051FC0E
S214002FF003F0D6FC00BF80BD0000381080B584B05A
S21400300000AF0346FB710A23FB60FB1D0122194635
S214003010002003F049F90346012B0AD1184B1B7810
S214003020002B27D0164B1B78013BDAB2144B1A70D4
S21400303020E0134B1B780133DAB2114B1A70104B99
S2140030401B78632B03D90E4B64221A7015E004F02C
S214003050C3FD0346022B03D1052003F0D9FE02E090
S214003060052001F065FAFB68002B05DDFB68053BD3
S214003070FB60CAE700BF00E000BF1037BD4680BD5A
S214003080B40C002080B584B000AFF860B9607A60F8
S2140030903249F86810F071F80346002B06D0304924
S2140030A0F86810F06AF80346002B3CD17B685B6832
S2140030B019462C480BF030FC7B685B6819462A489A
S2140030C00BF02AFC7B685B68194626480BF024FC4C
S2140030D07B685B68194625480BF01EFC7B685B68BE
S2140030E0194620480BF018FC7B685B6819461E489A
S2140030F00BF012FC7B685B6819461A480BF00CFC58
S2140031007B685B681A461A491A480BF03CFE7B68D7
S2140031105B681A46184919480BF035FEBB68012251
S2140031201A70002316E01649F86810F026F80346D1
S214003130002B06D01349F86810F01FF80346002B42
S21400314007D1BB6801221A70786800F035F803468C
S21400315000E0002318461037BD4680BDDC3A01006B
S214003160083B0100F8460100183B0100583B0100EF
S214003170683B0100883B01002C36010050360100F8
S214003180EC3A0100943B010080B582B000AF786055
S2140031907B685B68194606480BF0BEFB7B685B687D
S2140031A0194604480BF0B8FB00BF0837BD4680BD83
S2140031B0F8460100A43B010080B58AB000AF7860F5
S2140031C07B685B681A462B492B480BF0EEFD7B6844
S2140031D05B681A4629492A480BF0E7FD7B685B685E
S2140031E0194628480BF098FB7B685B68194626480A
S2140031F00BF092FB7B685B68194624480BF08CFB4F
S21400320000233B7207F108032322202118460BF007
S21400321069FE07F108031D4A202118460BF02FFE11
S2140032207B685A6807F10803194619480BF0BDFD7C
S2140032307B685B681A46174917480BF0B6FD07F11E
S2140032400803C8222021184601F028F807F10803D1
S214003250124A202118460BF012FE7B685A6807F1C6
S214003260080319460E480BF0A0FD00231846283721
S214003270BD4680BDAC3B0100883B0100C83B010059
S214003280D43B0100743A0100DC3B0100F846010023
S214003290E83B0100F43B0100FC3B0100083C010058
S2140032A0203C010080B582B000AF786039603B6892
S2140032B09B68194612480BF02FFB3B689B68194623
S2140032C078680BF029FB3B689B6819460D480BF0A5
S2140032D023FB3B689B6819460B480BF01DFB3B68BD
S2140032E09B68194609480BF017FB3B689B68194614
S2140032F007480BF011FB00BF0837BD4680BD00BF76
S214003300283C0100F8460100483C0100DC3A010078
S214003310543C010080B483B000AF7860044A7B68F8
S2140033201360002318460C37BD465DF8047B7047D3
S214003330E801002080B400AF034B1B681846BD466A
S2140033405DF8047B704700BFE801002090B5A9B087
S21400335000AFF860B9607A60FB70002387F8993098
S2140033607A68BB689A4208D2D7F8B8309B68194684
S21400337085480BF0D1FA022301E1BB68C7F89C3000
S214003380F6E07A68D7F89C30D31A5A1C97F8B03013
S2140033909A4204D397F8B03087F89A3009E07B68F1
S2140033A0DAB2D7F89C30DBB2D31ADBB2013387F837
S2140033B09A3097F89A3007F17802D7F8B440D7F8E1
S2140033C09C10F868A0470346002B08D0D7F8B83002
S2140033D09B6819466D480BF09FFA1B23CFE097F8C1
S2140033E09930002B08D0D7F8B8309B681946684843
S2140033F00BF092FA1223C2E007F11003654A65212A
S21400340018460BF017FDFB7807F11000D7F89C2044
S21400341065210CF082FA07F110033A22652118465E
S2140034200BF060FDD7F8B8305A6807F11003114664
S21400343018460BF071FA00233B74002387F89B3084
S21400344022E097F89B30002B06D107F110032022CC
S214003450652118460BF046FD97F89B30A0333B4499
S21400346013F8282C07F11003652118460BF0ACFE64
S21400347007F110032022652118460BF033FD97F85C
S2140034809B30013387F89B3097F89B2097F89A304B
S2140034909A42D6D30BE007F110033F4A652118463F
S2140034A00BF0EDFC97F89B30013387F89B3097F8CC
S2140034B09B2097F8B0309A42EDD3D7F8B8305A68C8
S2140034C007F11003114618460BF026FAD7F8B83065
S2140034D05B6820209847002387F89B3021E097F808
S2140034E09B30A0333B4413F8283C87F8983097F875
S2140034F098301F2B0BD997F99830002B07DBD7F89D
S214003500B8305B6897F898201046984704E0D7F8DC
S214003510B8305B682E20984797F89B30013387F8C1
S2140035209B3097F89B2097F89A309A42D7D30BE0B7
S21400353007F11003184A652118460BF0A0FC97F80F
S2140035409B30013387F89B3097F89B2097F8B03074
S2140035509A42EDD3D7F8B8305B6819460F480BF09F
S214003560DBF997F8B030D7F89C201344C7F89C30A6
S214003570D7F89C207B689A427FF603AF0023184654
S214003580A437BD4690BD00BF7C3C0100BC3C01009A
S214003590D43C010038420100FC3C0100F846010022
S2140035A080B485B000AF78600023FB737B68002B87
S2140035B001D101237B60EFF3108072B6B87302E08E
S2140035C0FB7B0133FB73FB7B002B07D1FB7B114A94
S2140035D0D35C83F00103DBB2002BF1D1FB7B002B25
S2140035E008D1FB7B0B4A0021D154FB7B0A497A6841
S2140035F041F82320B87B80F31088FB7B012B01D198
S214003600FF2300E0FB7B18461437BD465DF8047BBD
S214003610704700BFF0010020EC01002080B485B0A8
S21400362000AF0346FB71FB79FF2B10D0EFF3108041
S21400363072B6F873FB79094A002142F82310FB7929
S214003640074A0121D154F87B80F3108800E000BFC0
S2140036501437BD465DF8047B704700BFEC010020C0
S214003660F001002080B485B000AF0346FB71FB7903
S214003670FF2B01D1012310E0EFF3108072B6B87370
S214003680FB79094A52F82330002B0CBF0123002394
S214003690FB73B87B80F31088FB7B18461437BD4657
S2140036A05DF8047B704700BFEC01002080B483B057
S2140036B000AFEFF3108072B6B8710023FB7110E014
S2140036C0FB790E4A52F82330002B07D0FB790B4AC1
S2140036D052F82320013A094941F82320FB790133A7
S2140036E0FB71FB79002BEBD0B87980F3108800BF14
S2140036F00C37BD465DF8047B704700BFEC01002028
S21400370080B483B000AF0023FB710BE0FB790A4A5C
S214003710002142F82310FB79084A0121D154FB7995
S2140037200133FB71FB79002BF0D000BF00BF0C37D4
S214003730BD465DF8047B7047EC010020F0010020D8
S21400374080B483B000AF0346FB7197F90730002BB7
S2140037500BDBFB7903F01F02074997F907305B097B
S214003760012000FA02F241F8232000BF0C37BD46C4
S2140037705DF8047B704700BF00E100E080B483B0D2
S21400378000AF03463960FB7197F90730002B0ADB60
S2140037903B68DAB20C4997F907301201D2B20B44F3
S2140037A083F800230AE03B68DAB20849FB7903F0A5
S2140037B00F03043B1201D2B20B441A7600BF0C373B
S2140037C0BD465DF8047B704700E100E000ED00E0D8
S2140037D080B500AF034B1B68002118460DF0EFF9CB
S2140037E000BF80BDF801002080B582B000AF084B56
S2140037F01B68F91D002218460DF007FE0346012B34
S21400380001D00023FB71FB7918460837BD4680BD02
S214003810F801002080B582B000AF786039603A6861
S214003820796803480AF0EDFB00BF0837BD4680BD47
S21400383000B0064080B582B000AF0346FB71104B67
S2140038401B685A1C0E490A600E49FA79CA54FB795D
S2140038500A2B03D00A4B1B68C72B0DD1084B1B68DD
S214003860084A0021D15407480BF0D4FA054B002231
S2140038701A70034B00221A6000BF0837BD4680BD91
S214003880FC0100200002002080B584B000AF786004
S2140038900A4B1B6807F10F01002218460DF0B5FD14
S2140038A00346012B03D1FA7B7B681A7002E07B6823
S2140038B000221A7000BF1037BD4680BDF4010020FC
S2140038C080B500AF064B1B6818460DF064FF034634
S2140038D0002B14BF01230023DBB2184680BD00BFB7
S2140038E0F401002080B586B000AF0023BB60002343
S2140038F07B6033480AF01BFB38613B6903F080634A
S214003900002B01D00023FB753B6903F02803002B36
S2140039103DD02B4B9B7DFB7536E029480BF06DFAAE
S2140039200346FB73FB7B002B2BD0264B1B780A2B06
S21400393005D1FB7B402B02D1234B01221A70224B70
S2140039401B78002B08D0214B186807F1080207F1F6
S2140039500F0100230DF0D3FBFA7B1A4B1A701A4B9B
S2140039601B78002B05D0FB7B0A2B02D1164B0022BE
S2140039701A70174B18683A1D07F10F0100230DF057
S214003980BEFBFB7D013BFB75FB7D002BC5D13B6978
S21400399043F0806343F008033B61396908480AF046
S2140039A0EAFABB68002B02D17B68002B01D003F03B
S2140039B0C3F8BFF34F8F00BF00BF1837BD4680BDAA
S2140039C000B0064014000020B50C0020F8010020CE
S2140039D0F401002080B584B000AF3B4618460AF0DC
S2140039E07DFA4FF4E1333B6000233B710123FB7209
S2140039F00123BB720123FB7100233B720D20FCF7F1
S214003A007FFE02463B4619461548FDF747FEF8601E
S214003A10FB68002B01D000BFFDE7114B5B7BDBB2E0
S214003A200F4A43F00403DBB253730D4B5B7BDBB2F0
S214003A300B4A43F00203DBB25373012108480AF035
S214003A4008FB08490648FDF723FF05212120FFF75C
S214003A5095FE21200BF0BBF900BF1037BD4680BD98
S214003A6000B006400020080480B582B000AF786041
S214003A7039607B6803F08003002B06D03B685B68E8
S214003A801A46694969480BF090F97B6803F04003D1
S214003A90002B06D03B685B681A46654963480BF006
S214003AA084F97B6803F02003002B06D03B685B6834
S214003AB01A4660495D480BF078F97B6803F01003FE
S214003AC0002B06D03B685B681A465B4957480BF0EC
S214003AD06CF97B6803F00803002B06D03B685B6834
S214003AE01A46564951480BF060F97B6803F0040308
S214003AF0002B06D03B685B681A4651494B480BF0D2
S214003B0054F97B6803F00203002B06D03B685B6821
S214003B101A464C4945480BF048F97B6803F0010308
S214003B20002B06D03B685B681A4647493F480BF0B7
S214003B303CF97B6803F40043002B06D03B685B68C7
S214003B401A46424939480BF030F97B6803F4804343
S214003B50002B06D03B685B681A463D4933480BF09D
S214003B6024F97B6803F48073002B06D03B685B68FF
S214003B701A4638492D480BF018F97B6803F4000301
S214003B80002B06D03B685B681A46334927480BF083
S214003B900CF97B6803F48003002B06D03B685B6857
S214003BA01A462E4921480BF000F97B68002B06DAEE
S214003BB03B685B681A462A491C480BF0F6F87B6897
S214003BC003F08043002B06D03B685B681A46254905
S214003BD016480BF0EAF87B6803F00073002B06D05B
S214003BE03B685B681A46204910480BF0DEF87B6895
S214003BF003F08063002B06D03B685B681A461B49BF
S214003C000A480BF0D2F87B6803F08063002B06D0DE
S214003C103B685B681A46154904480BF0C6F800BFB7
S214003C200837BD4680BD00BF003D0100D03C010006
S214003C301C3D0100403D01005C3D0100743D01005B
S214003C408C3D0100A43D0100C03D0100D83D0100AF
S214003C50F03D01000C3E0100243E0100483E0100FC
S214003C606C3E0100843E01009C3E0100B83E01000F
S214003C7080B59CB000AF78607B685B681A463C49AC
S214003C803C480BF092F87B685B681A463A493B481A
S214003C900BF08BF83A480AF04AF9F86607F10C037D
S214003CA0384A602118460BF0C5F807F10C03FA6E87
S214003CB0602118460BF024FB07F10C03324A602102
S214003CC018460BF0DCF87B685A6807F10C031946B7
S214003CD02E480BF06AF87968F86EFFF7C5FE07F114
S214003CE00C034FF4E1326021184600F0D7FA07F1D2
S214003CF00C03254A602118460BF0C1F87B685A6809
S214003D0007F10C03194622480BF04FF807F10C0395
S214003D10204A602118460BF08DF807F10C034FF48B
S214003D204062602118460BF039FB07F10C031A4A73
S214003D30602118460BF0A3F807F10C0360226021FF
S214003D4018460BF02BFB07F10C030F4A60211846B0
S214003D500BF095F87B685A6807F10C0319460F4874
S214003D600BF023F8002318467037BD4680BD00BF11
S214003D70D43E0100EC3E0100F83E0100003F010089
S214003D8000B0064038420100F84601000C3F010032
S214003D90143F01001C3F0100243F0100343F010096
S214003DA080B582B000AF78607B685B681A460B49C6
S214003DB00B480AF0E8FF7B685B681A4609490A4820
S214003DC00AF0E1FF7B685B681A46084908480AF073
S214003DD0DAFF002318460837BD4680BD403F010085
S214003DE0EC3E01002C360100503601005C3F01001D
S214003DF0743F010080B588B000AFF860B9607A60A3
S214003E003349F8680FF0B9F90346002B06D031495C
S214003E10F8680FF0B2F90346002B07D1BB68012201
S214003E201A707868FFF7BCFF03464CE02A49F8682A
S214003E300FF0A3F90346002B06D02849F8680FF0C8
S214003E409CF90346002B07D1BB6801221A707868DC
S214003E50FFF70EFF034636E011222149F8680FF0FF
S214003E60F7F90346002B2DD1BB6801221A70FB68B8
S214003E7011337B6107F1180207F114031146184647
S214003E800BF0A4FA0346002B1AD1BB691946154855
S214003E900AF071F8F8617B685B68194612480AF008
S214003EA03BFDFA697B685B68194610460AF04DFDD3
S214003EB07B685B6819460D480AF02EFD002302E079
S214003EC01B2300E0002318462037BD4680BD00BFF8
S214003ED0DC3A0100843F0100EC3A0100943F010007
S214003EE0A83F010000B00640BC3F0100F8460100B4
S214003EF080B500AFFFF76EFD002201214FF4406051
S214003F000CF0E6FE03460C4A13600B4B1B68002BB6
S214003F1001D100BFFDE70022012160200CF0D8FE91
S214003F200346064A1360054B1B68002B01D100BFF1
S214003F30FDE700BF80BD00BFF4010020F8010020AF
S214003F4080B489B000AFF860B9601346FB80FB68A8
S214003F50BB610023FB77BB68013BBB60FB88002B83
S214003F602CD1BB68002B29D0FB7F5A1CFA771A4647
S214003F70BB69134430221A70BB68013BBB601DE06E
S214003F80FA88294BA3FB0213D9080B469B000B4467
S214003F905B00D31A9BB2DAB2FB7F591CF97719463D
S214003FA0BB690B443032D2B21A70BB68013BBB60AF
S214003FB0FB881D4AA2FB0323DB08FB80FB88002B43
S214003FC002D0BB68002BDBD10023BB771AE0BB7F97
S214003FD0BA6913441B78FB75FA7FBB7FD31A013B83
S214003FE0BA691A44BB7FB9690B4412781A70FA7F13
S214003FF0BB7FD31A013BBA691344FA7D1A70BB7FA4
S2140040000133BB77FB7F5B08DBB2BA7F9A42DED315
S214004010FB7FBA69134400221A7000BF2437BD46DE
S2140040205DF8047B704700BFCDCCCCCC80B588B0A3
S21400403000AFF860B9601346FB80FB68BB610023E5
S214004040FB77FB88DB0BDBB2FB75B7F9063013F5A5
S214004050004F05D1434AB968F8680AF0EBFE7EE0E7
S214004060BB68013BBB60FB7D002B03D0FB885B423B
S2140040709BB2FB80B7F90630002B32D1BB68002B11
S2140040802FD0FB7F5A1CFA771A46BB69134430229E
S2140040901A70BB68013BBB6023E0B7F90620324BC1
S2140040A083FB02139910D317C91A0B469B000B44C7
S2140040B05B00D31A1BB2DAB2FB7F591CF97719469C
S2140040C0BB690B443032D2B21A70BB68013BBB608E
S2140040D0B7F90630244A82FB03129210DB17D31A74
S2140040E0FB80B7F90630002B02DDBB68002BD4D16D
S2140040F0FB7D002B0AD0BB68002B07D0FB7F5A1C29
S214004100FA771A46BB6913442D221A700023BB7730
S2140041101AE0BB7FBA6913441B78BB75FA7FBB7F76
S214004120D31A013BBA691A44BB7FB9690B441278AB
S2140041301A70FA7FBB7FD31A013BBA691344BA7D63
S2140041401A70BB7F0133BB77FB7F5B08DBB2BA7F9D
S2140041509A42DED3FB7FBA69134400221A702037D6
S214004160BD4680BDC83F01006766666680B588B0FC
S21400417000AFF860B9607A60FB68BB610023FB772C
S2140041807B68DB0FDBB2FB757B68B3F1004F05D1B4
S214004190404AB968F8680AF04DFE78E0BB68013B13
S2140041A0BB60FB7D002B02D07B685B427B607B683C
S2140041B0002B2FD1BB68002B2CD0FB7F5A1CFA7724
S2140041C01A46BB69134430221A70BB68013BBB60B9
S2140041D020E07A68304B83FB02139910D317C91A74
S2140041E00B469B000B445B00D11ACAB2FB7F591CDE
S2140041F0F9771946BB690B443032D2B21A70BB68E5
S214004200013BBB607B68244A82FB03129210DB17DB
S214004210D31A7B607B68002B02DDBB68002BD8D1ED
S214004220FB7D002B0AD0BB68002B07D0FB7F5A1CF7
S214004230FA771A46BB6913442D221A700023BB77FF
S2140042401AE0BB7FBA6913441B78BB75FA7FBB7F45
S214004250D31A013BBA691A44BB7FB9690B4412787A
S2140042601A70FA7FBB7FD31A013BBA691344BA7D32
S2140042701A70BB7F0133BB77FB7F5B08DBB2BA7F6C
S2140042809A42DED3FB7FBA69134400221A702037A5
S214004290BD4680BDD03F01006766666680B489B0C3
S2140042A000AFF860B9607A60FB68BB610023FB77FB
S2140042B0BB68013BBB607B68002B2BD1BB68002B27
S2140042C028D0FB7F5A1CFA771A46BB691344302263
S2140042D01A70BB68013BBB601CE07968284BA3FBE7
S2140042E00123DA0813469B0013445B00CA1AD2B2B5
S2140042F0FB7F591CF9771946BB690B443032D2B2A2
S2140043001A70BB68013BBB607B681D4AA2FB032397
S214004310DB087B607B68002B02D0BB68002BDCD1FF
S2140043200023BB771AE0BB7FBA6913441B78FB7582
S214004330FA7FBB7FD31A013BBA691A44BB7FB969BF
S2140043400B4412781A70FA7FBB7FD31A013BBA6906
S2140043501344FA7D1A70BB7F0133BB77FB7F5B0883
S214004360DBB2BA7F9A42DED3FB7FBA6913440022DF
S2140043701A7000BF2437BD465DF8047B704700BF47
S214004380CDCCCCCC80B588B000AFF860B9607A6090
S2140043903B600023FB610023BB610023FB75002309
S2140043A0BB75FB68002B05D0BB68002B04D07B6870
S2140043B0002B01D11B2380E0FB681B78222B07D142
S2140043C0FB680133FB60BB690133BB610123FB75EE
S2140043D0FB6A002B01D13B4BFB62FB7D002B14D00C
S2140043E0FB681B78222B09D1FB680133FB60BB6995
S2140043F00133BB61FB681B78222B47D1FB681B7817
S214004400002B27D10123BB7541E0FB681B78202BCE
S2140044103DD0FB681B78092B39D0FB681B780A2B2C
S21400442035D0FB681B780B2B31D0FB681B780C2B28
S2140044302DD0FB681B780D2B29D0FB681B78002B32
S21400444025D0FB681B781946F86A0EF08AFE0346EC
S214004450002B1CD1BB68002B11D0FB6901337A6896
S2140044609A4207D9FB681A78BB681A70BB68013392
S214004470BB6004E0BB6800221A700023BB60FB69C7
S2140044800133FB61FB680133FB60A6E700BFBB6836
S214004490002B02D0BB6800221A703B68002B04D0A9
S2140044A0FA69BB691A443B681A60BB6A002B03D0E2
S2140044B0FB695A1CBB6A1A60BB7D18462037BD468E
S2140044C080BD00BFD03C010080B485B000AF7860EE
S2140044D07B68FB60084B1B68FA681344FB6000BFF0
S2140044E0054B1B68FA689A42FAD800BF00BF14371B
S2140044F0BD465DF8047B7047041000E080B485B0CC
S21400450000AF78607B68FB60084B1B68FA68134452
S214004510FB6000BF054B1B68FA689A42FAD800BFDA
S21400452000BF1437BD465DF8047B7047041000E0FA
S21400453080B584B000AF78600A4B1B680A4AA2FBBD
S21400454003239B09FB6005E0F868FFF7D7FF7B684D
S214004550013B7B607B68002BF6D100BF00BF1037A5
S214004560BD4680BD08000020D34D621080B400AF69
S214004570094B1B68084A43F080731360074B002200
S2140045801A60074B1B68064A43F00103136000BF1E
S214004590BD465DF8047B7047FCED00E0041000E0CB
S2140045A0001000E080B582B000AF7860A422044915
S2140045B078680EF0D0FD00BF0837BD4680BD00BF4E
S2140045C0C050010080B584B000AF78607B68FB60A7
S2140045D0FB681B78002B31D0FB685B68184609F037
S2140045E0F1FF0120FFF7A4FFFB685B68184609F09F
S2140045F0FEFF144B1A6813469B0013445B001A46D2
S214004600114B9A421AD90F4B1A6813469B00134453
S2140046105B001A460D4B9A4202D20BF06CFA0DE084
S214004620084B1A6813469B0013445B001A46084B57
S214004630A3FB02239B0C1846FFF746FF00BF10376C
S214004640BD4680BD080000203F420F00C0D8A7002E
S21400465083DE1B4380B584B000AF78600B46FB70EA
S2140046607B68FB60FB78FA6801331B01134418680B
S214004670FB78FA681B0113440D331B78002B14BF1C
S21400468001230023DBB283F00103DBB203F0010356
S214004690DBB2194609F0D5FFFB78FA681B01134414
S2140046A00C3301221A70144B1A6813469B001344ED
S2140046B05B001A46114B9A421AD90F4B1A681346DA
S2140046C09B0013445B001A460D4B9A4202D20BF035
S2140046D012FA0DE0084B1A6813469B0013445B0061
S2140046E01A46084BA3FB02239B0C1846FFF7ECFE6A
S2140046F000BF1037BD4680BD080000203F420F00B7
S214004700C0D8A70083DE1B4380B584B000AF7860B6
S2140047100B46FB707B68FB60FB78FA6801331B0175
S21400472013441868FB78FA681B0113440D331B7892
S214004730194609F086FFFB78FA681B0113440C3310
S21400474000221A70144B1A6813469B0013445B0031
S2140047501A46124B9A421AD90F4B1A6813469B00F8
S21400476013445B001A460E4B9A4202D20BF0C3F972
S2140047700DE0094B1A6813469B0013445B001A466B
S214004780084BA3FB02239B0C1846FFF79DFE00BFB9
S2140047901037BD4680BD00BF080000203F420F0016
S2140047A0C0D8A70083DE1B4380B500AF064B1B684E
S2140047B04FF0FF3118460CF067FB0346012B01D083
S2140047C000BFFDE700BF80BDC802002080B500AF77
S2140047D0054B1B6818460CF022FB0346012B01D044
S2140047E000BFFDE700BF80BDC802002080B586B0D0
S2140047F000AF78607B685B681A46264926480AF050
S214004800D4FA07F10803402210211846FFF746FDA8
S21400481007F10803214A102118460AF030FB7B688E
S2140048205A6807F1080319461D480AF0BEFA07F150
S21400483008031C4A102118460AF0FCFA7B685A68DE
S21400484007F10803194618480AF0AFFA07F10803FB
S214004850164A102118460AF0EDFA7B685A6807F1E6
S2140048600803194612480AF0A0FA07F10803114A8D
S214004870102118460AF0DEFA00BF7B685A6807F176
S214004880080319460C480AF090FA00231846183711
S214004890BD4680BDDC3F0100EC3F01008C3A0100C4
S2140048A0F83F010004400100144001001C400100D4
S2140048B02C400100344001003C40010080B5C8B0E7
S2140048C002AF07F58C73A3F58673186007F58C7333
S2140048D0A3F58873196007F58C73A3F58A731A60BD
S2140048E007F58C73A3F58673AD4918680EF045FC82
S2140048F00346002B0AD007F58C73A3F58673A949E7
S21400490018680EF03AFC0346002B4AD107F58C7364
S214004910A3F58A731B685B681A46A349A3480AF086
S21400492032FA07F58C73A3F58A731B685B681A4620
S2140049309F49A0480AF027FA07F58C73A3F58A73F7
S2140049401B685B681A469C499C480AF01CFA07F5E7
S2140049508C73A3F58A731B685B681A469849994856
S2140049600AF011FA07F58C73A3F58A731B685B6867
S2140049701A46954995480AF006FA07F58C73A3F58A
S2140049808A731B685B681A46914992480AF0FBF9DD
S21400499007F58C73A3F588731B6801221A70002331
S2140049A01DE307F58C73A3F586738B4918680EF024
S2140049B0E4FB0346002B0AD007F58C73A3F5867339
S2140049C0864918680EF0D9FB0346002B0FD107F571
S2140049D08C73A3F588731B6801221A7007F58C7315
S2140049E0A3F58A731868FFF701FF0346F7E207F599
S2140049F08C73A3F586730F22794918680EF028FC8D
S214004A000346002B40F0F48007F58C73A3F58873FB
S214004A101B6801221A7007F58C73A3F586731B6852
S214004A200F33C7F81431D7F8140107F1100307F154
S214004A30140100220192002200924022FFF7A2FCFD
S214004A400346002B06D107F58C73A3F584731B6809
S214004A50002B01D11B23C2E2D7F8142107F58C7373
S214004A60A3F584731B681344C7F8143107F58A73DB
S214004A7018460BF02AF8D7F8140107F1100307F1CF
S214004A80E40100220192002200923022FFF77AFC15
S214004A900346002B06D107F58C73A3F584731B68B9
S214004AA0002B01D11B239AE2D7F8142107F58C734B
S214004AB0A3F584731B681344C7F8143107F58A738B
S214004AC018460BF002F8D7F8140107F1100307F1A7
S214004AD0B40100220192002200923022FFF752FC1D
S214004AE00346002B06D107F58C73A3F584731B6869
S214004AF0002B01D11B2372E2D7F8142107F58C7323
S214004B00A3F584731B681344C7F81431D7F814311F
S214004B101B78002B01D01B2361E207F1540207F13A
S214004B20B40107F1E40007F1140301936023009336
S214004B3013462C4A00F0BCFD0346002B01D11B2374
S214004B404DE207F58C73A3F58A731B685A6807F164
S214004B50B4031146184609F0DFFE07F58C73A3F57B
S214004B608A731B685B6819461F4809F0D5FE07F56F
S214004B708C73A3F58A731B685A6807F154031146B1
S214004B80184609F0C9FE07F58C73A3F58A731B68EF
S214004B905B681946154809F0BFFE00231FE200BFF8
S214004BA0DC3A01004440010054400100EC3F0100A3
S214004BB02C36010050360100744001009C40010074
S214004BC0B0400100E0400100F84001001C41010037
S214004BD03441010054410100EC3A010068410100F3
S214004BE07C410100D03C01008C410100F8460100E8
S214004BF007F58C73A3F586731022B84918680EF073
S214004C0027FB0346002B40F0C28007F58C73A3F504
S214004C1088731B6801221A7007F58C73A3F58673D8
S214004C201B681033C7F81431D7F8140107F11003C6
S214004C3007F1140100220192002200924022FFF7A1
S214004C40A1FB0346002B06D107F58C73A3F58473EE
S214004C501B68002B01D11B23C1E1D7F8142107F5EF
S214004C608C73A3F584731B681344C7F8143107F5D7
S214004C708A7318460AF029FFD7F8140107F11003C3
S214004C8007F1E40100220192002200923022FFF791
S214004C9079FB0346002B06D107F58C73A3F58473C6
S214004CA01B68002B01D11B2399E1D7F8142107F5C7
S214004CB08C73A3F584731B681344C7F8143107F587
S214004CC08A7318460AF001FFD7F8140107F110039B
S214004CD007F1B40100220192002200923022FFF771
S214004CE051FB0346002B06D107F58C73A3F584739E
S214004CF01B68002B01D11B2371E1D7F8142107F59F
S214004D008C73A3F584731B681344C7F8143107F536
S214004D108A7318460AF0D9FED7F8140107F1100373
S214004D2007F1540100220192002200926022FFF750
S214004D3029FB0346002B06D107F58C73A3F5847375
S214004D401B68002B01D11B2349E1D7F8142107F576
S214004D508C73A3F584731B681344C7F81431D7F813
S214004D6014311B78002B01D01B2338E107F1140304
S214004D7007F1540207F1B40107F1E40000F002FE67
S214004D800346002B01D11B2329E1002327E107F569
S214004D908C73A3F586731122514918680EF058FAE1
S214004DA00346002B40F09E8007F58C73A3F58873AE
S214004DB01B6801221A7007F58C73A3F586731B68AF
S214004DC01133C7F81431D7F8140107F1100307F1AF
S214004DD0140100220192002200924022FFF7D2FA2C
S214004DE00346002B06D107F58C73A3F584731B6866
S214004DF0002B01D11B23F2E0D7F8142107F58C73A2
S214004E00A3F584731B681344C7F8143107F58A7337
S214004E1018460AF05AFED7F8140107F1100307F1F6
S214004E20E40100220192002200923022FFF7AAFA43
S214004E300346002B06D107F58C73A3F584731B6815
S214004E40002B01D11B23CAE0D7F8142107F58C7379
S214004E50A3F584731B681344C7F8143107F58A73E7
S214004E6018460AF032FED7F8140107F1100307F1CE
S214004E70B40100220192002200923022FFF782FA4B
S214004E800346002B06D107F58C73A3F584731B68C5
S214004E90002B01D11B23A2E0D7F8142107F58C7351
S214004EA0A3F584731B681344C7F81431D7F814317C
S214004EB01B78002B01D01B2391E007F1140307F1A8
S214004EC0B40107F1E400002200F05CFD0346002B6D
S214004ED001D11B2383E0002381E000BF9041010045
S214004EE0A441010007F58C73A3F5867311223E4991
S214004EF018680EF0ADF90346002B6FD107F58C73DA
S214004F00A3F588731B6801221A7007F58C73A3F546
S214004F1086731B681133C7F81431D7F8140107F1EC
S214004F20100307F114010022019200220092402291
S214004F30FFF728FA0346002B06D107F58C73A3F576
S214004F4084731B68002B01D11B2348E0D7F814217B
S214004F5007F58C73A3F584731B681344C7F81431E4
S214004F6007F58A7318460AF0B0FDD7F8140107F162
S214004F70100307F1E4010022019200220092302281
S214004F80FFF700FA0346002B06D107F58C73A3F54E
S214004F9084731B68002B01D11B2320E0D7F8142153
S214004FA007F58C73A3F584731B681344C7F8143194
S214004FB0D7F814311B78002B01D01B230FE007F124
S214004FC0140307F1E4000022002100F0DBFC034696
S214004FD0002B01D11B2302E0002300E0002318462B
S214004FE007F58C77BD4680BDB841010080B500AF9F
S214004FF004200BF0FCFE0346054A1360044B1B68B6
S214005000002B01D100BFFDE70BF00EF800BF80BDFE
S214005010C802002080B582B000AF78603960FFF724
S214005020C3FB1022002138680EF097F83B684FF457
S214005030FC321A603B681B6803F118023B685A6032
S2140050403B681B681B68124A934203D0FFF7BEFBFF
S214005050002318E03B681B680433796818460EF096
S2140050608CF80346002B03D0FFF7B0FB00230AE0C2
S2140050703B685A683B689A603B6801225A733B68F3
S21400508001221A73012318460837BD4680BD00BFAB
S214005090BEBAEDFE80B582B000AF78603960FFF72B
S2140050A083FB1022002138680EF057F84FF4807208
S2140050B0002115480EF051F83B68134A1A603B6809
S2140050C01B6803F118023B685A603B681B680F4A6E
S2140050D01A603B681B6804337A681021184609F08A
S2140050E0A9FE3B681B6800225A613B685A683B6809
S2140050F09A603B6801225A733B6800221A730123A8
S21400510018460837BD4680BDCC020020BEBAEDFE6C
S21400511080B584B000AF786039603B681B7B002B9D
S21400512001D001233AE078680EF06BF8F8601D4A6B
S2140051303B689B68D31ABB603B689B687A68B96813
S214005140184609F077FE3B689A68FB681A443B6885
S2140051509A603B689A683B681B6803F580739A42BE
S21400516007D33B681B6803F580723B689A60002390
S21400517014E03B689A683B6859683B681B685B6943
S2140051800B449A4209D33B689A683B685B68D21A1C
S2140051903B681B685A61012300E00123184610375C
S2140051A0BD4680BDCC03002080B584B000AF7860DB
S2140051B03960FFF7F9FA78680AF07FFE0346002B9D
S2140051C029D0184BFB60FB680433796818460DF04D
S2140051D0D4FF0346002B03D0FFF7F8FA00231DE0A8
S2140051E0FB6804333A681021184609F023FE4FF492
S2140051F080720C494FF4FC3009F0BAF80346002BD5
S21400520003D0FFF7E3FA002308E04FF48072002192
S21400521004480DF0A2FFFFF7D9FA0123184610370D
S214005220BD4680BDCC02002080B590B000AFF860CF
S214005230B9607A601821B86809F04FF8034683F021
S2140052400103DBB2002B0FD007F110032C4A3021EC
S214005250184609F0EFFDFB685A6807F11003194677
S214005260786809F0A2FD48E007F11003254A3021CE
S214005270184609F0DFFDBB681A6807F110033021F5
S21400528018460AF03DF807F110031F4A3021184669
S21400529009F0F5FDBB681B681C4A934217D1BB6832
S2140052A01A1D07F110033021184609F0E8FD07F132
S2140052B01003174A3021184609F0E1FDBB685A6909
S2140052C007F11003302118460AF068F806E007F1E7
S2140052D01003104A3021184609F0D1FD07F11003DB
S2140052E00D4A3021184609F0CAFDFB685A6807F1D6
S2140052F010031946786809F058FD4037BD4680BD52
S214005300CC410100E8410100F4410100BEBAEDFEC7
S214005310F841010000420100F846010080B594B053
S21400532000AF78607B685B681A463D493D4809F0E7
S2140053303CFD07F120033C4A3021184609F07AFD6F
S21400534007F120034FF4FC323021184609F0D8FF4D
S21400535007F12003354A3021184609F090FD07F181
S21400536020034FF400623021184609F05CFF07F175
S21400537020032F4A3021184609F081FD07F120034B
S21400538001223021184609F0A6FE07F12003294A1B
S2140053903021184609F073FD7B685A6807F1200330
S2140053A01946254809F001FD07F120034FF48072E5
S2140053B030211846FEF772FF07F120031F4A3021FE
S2140053C0184609F05CFD7B685A6807F12003194609
S2140053D01B4809F0EAFC07F10803182219464FF4A7
S2140053E0FC3008F0A4FF0346002B07D107F10803A2
S2140053F0144A19467868FFF717FF06E07B685B6873
S2140054001A4611490F4809F0D0FC104A104978682E
S214005410FFF70AFF002318465037BD4680BD00BF81
S2140054200C420100204201002442010030420100EB
S2140054303C420100F8460100444201008C3A01005B
S2140054404C420100584201006042010078420100CF
S214005450CC02002080B598B000AF7860FFF7A4F9C2
S21400546007F12C03182219464FF4FC3008F05FFFB2
S2140054700346002B09D07B685B6819463E4809F056
S2140054804BFAFFF7A3F91B2372E0FB6A3B4A9342F1
S21400549048D13B6C7B653A4B3B6507F12C03394A98
S2140054A019467868FFF7C0FE33E07B6D202B02D9E3
S2140054B02023BB6501E07B6DBB653B6DBA6D07F1D4
S2140054C00C01184608F033FF0346002B06D07B6815
S2140054D05B681946284809F01FFA1DE0BB6D3A6D57
S2140054E013443B657A6DBB6DD31A7B650023FB6462
S2140054F00BE07B685B6807F10C01FA6C0A441278D3
S21400550010469847FB6C0133FB64BB6DFA6C9A42FD
S214005510EFD37B6D002BC8DC7B685B6819461A48A6
S21400552009F0FAF9194B7B64194A796C7868FFF729
S2140055307BFE7B6C1B68114A934216D17B6C18333A
S214005540FB650023BB640BE07B685B68FA6D127832
S21400555010469847FB6D0133FB65BB6C0133BB649B
S2140055607B6C5B69BA6C9A42EED3FFF72FF9002387
S21400557018466037BD4680BD60420100BEBAEDFEEB
S21400558018F8010080420100F8460100CC02002015
S2140055908842010080B584B000AFF860B9607A60D8
S2140055A03549F8680DF0E9FD0346002B06D033496F
S2140055B0F8680DF0E2FD0346002B20D17B685B689F
S2140055C01A462F492F4809F0DEFB7B685B681A46AF
S2140055D02D492E4809F0D7FB7B685B681A462C4994
S2140055E02C4809F0D0FB7B685B681A462A492B4892
S2140055F009F0C9FBBB6801221A70002337E028496E
S214005600F8680DF0BAFD0346002B06D02549F86869
S2140056100DF0B3FD0346002B07D1BB6801221A70BC
S2140056207868FFF77BFE034621E01F49F8680DF017
S214005630A4FD0346002B07D1BB6801221A707868C8
S214005640FFF708FF034612E01849F8680DF095FDCD
S2140056500346002B0AD1BB6801221A704FF4006182
S2140056604FF4FC30FCF7EEFC034600E0002318463F
S2140056701037BD4680BD00BFDC3A01008C420100F9
S2140056804C370100204201002C3601005036010044
S21400569098420100B0420100B8420100D442010025
S2140056A0EC3A0100DC420100E8420100F44201004D
S2140056B080B58EB004AFF860B9607A603B600023B6
S2140056C07B623B68002B05D03B6B002B02DDBB6882
S2140056D0002B01D1002331E007F114031946786B43
S2140056E0FFF798FC0346002B16D007F114000023A2
S2140056F003933B6B02933B6801934FF0FF33009399
S2140057004FF0FF33BA68F9680AF03BFE786207F19B
S214005710140318460AF0ECFB7B6A002B0AD17B6860
S214005720002B01D0796800E006493A6B0023386800
S2140057300AF0FFFC38680DF064FD0346184628376B
S214005740BD4680BDD03C010080B598B002AFF86081
S214005750B9607A603B6007F114023B68019340230E
S21400576000931346154AB968F868FFF7A1FF7865F5
S2140057707B6D002B1CD07B6D012B10DD7B7D1846CE
S21400578007F0A4FD0346582B09D107F11403102295
S2140057900021184607F016FE034600BF09E007F191
S2140057A014030A220021184607F00CFE034600E008
S2140057B07B6818465837BD4680BD00BFD03C010008
S2140057C080B586B000AFF860B9607A60BB68002B21
S2140057D024D0B8680DF015FD0346002B1ED0FB68DC
S2140057E05B221A70FB68581C00233C22B9680AF03A
S2140057F0A0FC0021F8680DF0B4FC78617B695A1CA7
S2140058007A615D221A70074978690DF0D9FC7B68C9
S214005810002B03D07968F868FFF77AFC00BF1837CA
S214005820BD4680BDF846010080B586B000AFF86082
S214005830B9607A603B6078680AF0C1FE0346FB7583
S21400584000233D22B968F8680AF073FC0021F86866
S2140058500DF087FC38613B695A1C3A613D221A708C
S2140058603A69FB68D31AC3F13E031A46FB7D796892
S21400587038690AF05EFC0021F8680DF072FC3861A9
S214005880074938690DF09CFC3B68002B03D039684B
S214005890F868FFF73DFC00BF1837BD4680BD00BF67
S2140058A0F846010080B588B000AFF860B9607A604D
S2140058B03B6033480DF0A5FC03467B610023FB618B
S2140058C04FF0FF33BB61B96A78680AF08AFBFB6861
